:1000000000000120910100007F0300008103000037
:100010008303000085030000870300000000000048
:100020000000000000000000000000008903000044
:100030008B030000000000008D0300008F03000010
:100040009103000093030000950300009703000054
:10005000990300009B0300009D0300009F03000024
:10006000A1030000A3030000790A0000950A000024
:10007000A9030000AB030000AD030000AF030000C4
:10008000B1030000B3030000B5030000590B0000EA
:10009000B9030000BB030000BD030000BF03000064
:1000A000C1030000C3030000C5030000210E0000CF
:1000B000B90E0000CB030000CD030000CF03000009
:1000C000D1030000D3030000D5030000D7030000D4
:1000D000D9030000DB030000DD030000DF030000A4
:1000E000E1030000E3030000E5030000E703000074
:1000F000E9030000EB030000ED030000EF03000044
:10010000F1030000F3030000F5030000F703000013
:10011000F9030000FB030000FD030000FF030000E3
:1001200001040000030400000504000007040000AF
:10013000090400000B0400000D0400000F0400007F
:10014000110400001304000015040000170400004F
:10015000190400001B0400001D0400001F0400001F
:1001600021040000230400002504000027040000EF
:10017000290400002B0400002D0400002F040000BF
:100180003104000033040000000000000000000003
:100190004FF0000BDFF8BE020068DFF8B612096806
:1001A00001F0030100F01C00142801D14BF0020BF8
:1001B000002901D04BF0010BBBF1000F05D0A7487F
:1001C000A749DFF8722200F09FF8A64880470BF09D
:1001D000020ABAF1000F0CD0DFF86E02DFF86E12DF
:1001E00002680B680FB44FF000024FF0FF0302608B
:1001F0000B609D489D4A9E4B022808D1DFF83E12B5
:100200000A60DFF842120A60DFF836120B6001283C
:1002100008D1DFF82E120A60DFF82A120A60DFF830
:100220001E120B609348002809D193489349944AC1
:1002300000F032F893489449944A00F02DF894481D
:100240009449954A00F028F894489549DFF8E6214A
:1002500000F05AF8BBF1000F12D092489249DFF833
:10026000DA2100F051F80BF0020ABAF1000F07D0C2
:100270000FBC02600B6000BFAFF30080AFF30080E3
:10028000DFF828020FF2030E00474FF000004FF096
:100290000001DFF81CF2FEE72DE9F841884225D085
:1002A000B2EB010200D5FEE740EA010313F00303BD
:1002B00002D000F01DF819E04FF000039046121133
:1002C000F7D09A421CBFF0C8F0C103F10103F8D186
:1002D00008F00F08B8F1000F08D004780C7000F196
:1002E000010001F10101B8F10108F6D1BDE8F88182
:1002F00008B54FF0000303780B7000F1010001F125
:100300000101013AF7D108BD884237D000F0030659
:10031000002E14D04FF00405A5EB06044FF008079B
:1003200007FB06F8914669FA08F9002C07D080F817
:10033000009069FA07F900F10100013CF5E74FF080
:1003400000060F46091A88460911914614461546BB
:10035000B14206D018BFA0E8340206F10106B1424E
:10036000F8D108F00F08B8F1000F07D002704FEA7B
:10037000322200F10100B8F10108F4E77047FEE70E
:10038000FEE7FEE7FEE7FEE7FEE7FEE7FEE7FEE745
:10039000FEE7FEE7FEE7FEE7FEE7FEE7FEE7FEE735
:1003A000FEE7FEE7FEE7FEE7FEE7FEE7FEE7FEE725
:1003B000FEE7FEE7FEE7FEE7FEE7FEE7FEE7FEE715
:1003C000FEE7FEE7FEE7FEE7FEE7FEE7FEE7FEE705
:1003D000FEE7FEE7FEE7FEE7FEE7FEE7FEE7FEE7F5
:1003E000FEE7FEE7FEE7FEE7FEE7FEE7FEE7FEE7E5
:1003F000FEE7FEE7FEE7FEE7FEE7FEE7FEE7FEE7D5
:10040000FEE7FEE7FEE7FEE7FEE7FEE7FEE7FEE7C4
:10041000FEE7FEE7FEE7FEE7FEE7FEE7FEE7FEE7B4
:10042000FEE7FEE7FEE7FEE7FEE7FEE7FEE7FEE7A4
:10043000FEE7FEE7704700000000A2A2A2A2008033
:100440000340088003401080034030800340348024
:1004500003403880034018080240000000F00020EC
:1004600000000120E10F000000000000000000007B
:10047000010000000000000000000000000000007B
:1004800090010000C0040000C0040000B02800007B
:10049000B028000000000020900000209000002004
:1004A000A0010020A001002000F000208D18000015
:1004B00085170000000000000000000000000000A0
:1004C00010B5054C237833B9044B13B10448AFF38E
:1004D00000800123237010BD900000200000000068
:1004E00090280000084B10B51BB108480849AFF32D
:1004F00000800848036803B910BD074B002BFBD0F0
:10050000BDE81040184700BF000000009028000020
:1005100094000020000000200000000001607047EF
:10052000006870470EB503FA01F303EA020301689D
:100530006FEA020201EA020141EA030101600EBD15
:10054000006800EA020020FA01F07047018070475D
:10055000008870470EB503FA01F303EA020301882D
:100560006FEA020201EA020141EA030101800EBDC5
:10057000008800EA020020FA01F07047017070471D
:10058000007870470EB503FA01F303EA020301781D
:100590006FEA020201EA020141EA030101700EBDA5
:1005A000007800EA020020FA01F0704700F0704382
:1005B00003EB8101C0F3130001F10071400101233D
:1005C0000B50704700F0704303EB8101C0F3130040
:1005D00001F10071400100230B50704700F070439F
:1005E00003EB8101C0F3130001F1007140010858D1
:1005F000C0B270471E4B30B598421A4603D01D4B0F
:10060000984200D000BE016901B900BE436903B938
:1006100000BE904202D0174A904228D139B333B37A
:100620000268417B127DD2B21143920641730CD411
:10063000826943699A421AD1BDE830400023436180
:10064000006801210430FFF7BDBF82699B1A102B9F
:1006500028BF102300229A42EAD084690569016804
:100660002C5D01320C70816901318161F3E730BD8D
:10067000500100201001002010B504460068037AE4
:1006800003F00F030C2B4BD8DFE803F0074A090FE8
:100690000B4A0D4A4A4A4A4A0B00A36A3BE0636A86
:1006A00039E0236A37E0E36935E028300021FFF7BD
:1006B00095FF28B1E36A0BB900BE01E020469847D8
:1006C000206801212830FFF789FF28B1236B0BB97F
:1006D00000BE01E020469847206802212830FFF73D
:1006E0007DFF28B1636B0BB900BE01E0204698473F
:1006F000206803212830FFF771FF28B1A36B0BB9E5
:1007000000BE01E020469847206804212830FFF70A
:1007100065FF30B1E36B1BB12046BDE810401847C0
:1007200000BE10BD2DE9F843714B0446984298462F
:100730000E4617466F4B04D06F4A904213D000BE4E
:1007400011E04FF0804202600A2202719A6C4FF46D
:10075000806142F080029A64684AC2F880119A6C03
:1007600022F080020FE0664A4FF4006122600B2203
:1007700022719A6C42F480729A64604AC2F88011C5
:100780009A6C22F480729A64236800251D71236894
:1007900001211D7220680830FFF708FF2068022140
:1007A0000830FFF703FF206829460830FFF7FEFEF8
:1007B000206804211030FFF705FF20680521103064
:1007C000FFF700FF206801213430FFF7FBFE2068AF
:1007D00029463430FFF7F6FE206801213830FFF754
:1007E000F1FE206805213030FFF7ECFE206806217D
:1007F0003030FFF7E7FE206807213030FFF7E2FED8
:10080000206803213830FFF7DDFE2368444583F874
:100810004450236883F84850236883F84C5002D032
:10082000354B9C4211D1A66000F05CFC44450CBFE6
:10083000344B354B1B68DB00B3FBF6F94FEAD91399
:10084000B3F5803F4FEA590501D300BE3CE0012BD0
:1008500020685FFA83F823D9A5EB8315A5EBC313B2
:100860004B440C300721A3EB4505FFF79FFE2268A0
:10087000C9F3C73313712368072183F80080206808
:100880000C30FFF79FFE206807213030FFF78EFE07
:10089000FF2D00D900BE2368EDB283F83C5013E071
:1008A0000C300721FFF782FE236800221A712368AB
:1008B000072183F8008020680C30FFF783FE206852
:1008C00007213030FFF77EFE23681F730023277354
:1008D0006373A66063612361A36123626362E36162
:1008E000A362E36223636363A363E363BDE8F88306
:1008F00050010020008003401001002000E100E0D2
:100900000000014014000020180000200E4B10B51C
:100910009842044603D00D4B984200D000BE2046BA
:10092000FFF700FF206803213030FFF74BFE2068FF
:1009300002213430FFF746FE206800213830FFF7EF
:1009400041FE034B636210BD5001002010010020E6
:10095000F5050000174BF0B5984203D0164CA042A5
:1009600000D000BE01B900BE02B900BE984202D05C
:10097000114B98421DD1E1B1DAB100240368457BE7
:100980001B7DDBB21D4345739D06F7D50F2A01EB96
:10099000040698BF1346354688BF1023076815F82C
:1009A00001EB87F800E0AF1B9F42F7D3D21A1C443B
:1009B000E4D1F0BD5001002010010020114B70B5B2
:1009C000984205D0104B984202D000BEC1B900E059
:1009D00009B900BE70BD0A7800238AB10668347D6B
:1009E000457BE4B22543A4064573F8D503F1100412
:1009F000056801332A70CA5C12B1A342F8D1ECE752
:100A000070BD00BF500100201001002003461848AF
:100A100030B5834203D0174CA34200D000BE01B9C9
:100A200000BE02B900BE834202D01248834217D1F1
:100A3000C1B1D2B11868047D587BE4B22043587329
:100A40000020E40710D590420FD01C6824780C5485
:100A50001C685D7B247D0130E4B225435D73F0E7C3
:100A6000002202E00A4600E00246104630BD00BF08
:100A70005001002010010020684620F007018D463B
:100A800001B50348FFF7F8FDBDE801408546704712
:100A900050010020684620F007018D4601B503484B
:100AA000FFF7EAFDBDE801408546704710010020D0
:100AB00010B5064C0146236833B1054A10689847C3
:100AC000044A00232360137010BD00BFC80000203B
:100AD000D4000020B80000200E4B13B51A6822F095
:100AE00004021A605B6803F0010301930023019A7A
:100AF0000AB919460AE08B4208D0C45C054A0133A2
:100B00001461526802F001020192F0E7084602B057
:100B100010BD00BF00600140024B1A680AB11B689B
:100B200018477047BC00002008B5084B1B7863B11C
:100B3000074B188880B2FFF7BBFF064B1A6842F0DC
:100B400001021A601A68D207FCD408BDB800002060
:100B5000CC00002000600140F8B57E4B5E68F2B228
:100B60009E681640B20776D518697B4D20F4FF4485
:100B70002B7824F07F04A4B2C0B2052B66D8DFE83E
:100B800003F0036161172B58002C64D0F1285AD16F
:100B9000724B0024724A1C8011681A8892B28854E1
:100BA0001A88013292B21A801B889BB2CC5411E091
:100BB000002C50D06B4B1B78984244D1674A0023DD
:100BC00013806749138809689BB2C854138801339E
:100BD0009BB2138004233DE0002C34D15F4F604B67
:100BE0003A88196892B20A4412F8013CF12B3B464C
:100BF0000AD13B889BB2C8543B889BB20B4413F884
:100C0000010CFFF789FF1BE0574C3A88248892B209
:100C1000A24206D23A8892B288543A88013292B2FD
:100C20003A801B889BB2A34215D14C4B188880B2E6
:100C30000DE044B94A4B1B6858700220FFF738FF9B
:100C40002C7008E03CB1FFF767FF04E00020FFF7DD
:100C50002FFF00232B70F3077AD53F4C23782646CD
:100C6000022B20D0052B3CD0012B67D13F4D2B8888
:100C70009BB2002B30D03E4E2988376889B2384667
:100C8000FFF72AFF2B889BB2984205D22B881B1AAC
:100C90009BB22B80384416E000232B80354B1B6819
:100CA000C3B1022353E0334D2B68ABB1324E2968F8
:100CB0003068FFF711FF2B68984206D22B681B1A89
:100CC0002B60336818443060F8BD224A936823F0E3
:100CD0000103936003233AE000BEBDE8F840FFF74C
:100CE00023BF244C236893B9244B1B6863B122486B
:100CF00098472060236853B9164A936823F001038C
:100D000093600323337002E000BEFFF70DFF2368FA
:100D1000184D3BB90F4A936823F0010393600323F6
:100D20003370F8BD144C29682068FFF7D5FE2B6896
:100D30001B1A2B60236818442060F8BD054A002068
:100D4000936823F001039360FFF7B2FE0023237042
:100D5000F8BD00BF00600140D8000020CC0000209A
:100D6000D4000020D9000020AC000020C0000020EA
:100D7000B4000020D0000020C4000020B0000020FB
:100D800070B5234C4FF420752668224C754363518F
:100D90001423734303F1402404F580346060A160A0
:100DA0001D4CB2F5803F1C44656898BF92B24FEA73
:100DB00015454FEA0545656098BF6168174B9BBFB5
:100DC0000A436260A2F5803200228CBF1A611A6168
:100DD0004FF0140202FB06F281BF01F5803100F5ED
:100DE0008030D96098600C4B13445A6842F4E0029A
:100DF0005A604FF42073734303F1844303F52013C7
:100E00000122C3F8C0210022C3F8CC2170BD00BF6D
:100E1000F8000020C401284208400140DC00002006
:100E2000684620F007018D4619B51D4B1D491A680B
:100E3000012402F5287041F82040142050431A493B
:100E4000224401444868042A20F4E000486017491D
:100E500008BF00221A600A690C4662B11449A068F2
:100E60000B68042B0CBF002301330B60E168237D6A
:100E7000FFF786FF10E01A6814235A430D4B9B5866
:100E800013F4E00308D1064A01201360084A0870F1
:100E900013604B6803B19847BDE819408546704719
:100EA000F40000200000284208400140DC0000203F
:100EB000F80000200C400140684620F007018D46F4
:100EC00019B5234B1B6813F4706F1FD0214A4FF4E0
:100ED0002073116814464B4303F1844303F5201338
:100EE000D3F808322BB11C4B022018705B6803B199
:100EF000984722684FF420735A43184B9B582BB1E4
:100F0000154B032018705B6803B19847104B1B68A2
:100F100013F4704F05D0104B042018705B6803B1B8
:100F200098470F4A0F490123C2F8C831C2F8803AE6
:100F3000C2F84834C1F8803AC2F8C836C1F8843AD9
:100F4000C2F84839C1F8883ABDE81940854670476B
:100F500000400140F4000020DC0000200C02284288
:100F600000002842040028420A4B0246196809B9C9
:100F7000094919601868EFF308818842024402D2D7
:100F8000914204D2FEE705498A4200D9FEE71A6081
:100F9000704700BFFC000020A001002000F00020EE
:100FA000074B084A1860084B1860084B1860084B3C
:100FB0001A60084B1860084B1860084B186070479F
:100FC0001C000020603D7902140000201800002061
:100FD000080000200C000020100000200400002069
:100FE0004FF6020238B53A4BD3F84C11914262D019
:100FF000384A536943F400735361354B9A6862B1C0
:10100000FFF718FA324A936C23F480339364324B1F
:101010001A6842F003021A6049E0304B1B683049FD
:1010200031F8120043F822000132392A0846F6D17D
:1010300003F5077400214518B5F87250284A44F8A2
:10104000115002318229F6D1B2F8F410C3F800141D
:10105000B2F8F610C3F80414B2F8F810C3F8081484
:10106000B2F8FA10C3F80C14B2F8FC10C3F810145C
:10107000B2F8FE10C3F81414B2F80011C3F8181433
:10108000B2F80211C3F81C14B2F80411C3F84014EA
:10109000B2F80611B2F80821C3F84414C3F8482482
:1010A00001221A60D3F8E420002AFBD0A8E75A688E
:1010B000D207FCD538BDD3F8982042F48072C3F82B
:1010C0009820D3F8982022F08062C3F898208FE708
:1010D0000080034000ED00E000200240BC2300003F
:1010E000B02200001E4B82B0D3F8982051012BD4BF
:1010F000D3F89820D20412D41A4B1B4A1B49136010
:101100001B4A13601B4A13601B4A11601B4A136081
:101110001B4A13601B4A1C4B1A6002B070476A4698
:101120001A490868496803C2D3F89C2002A9C2F38F
:1011300082120A4412F8082C012A02D004D314485F
:101140000AE04FF4004007E0D3F85031114813F0A3
:10115000040F114B18BF184602B0FFF721BF00BFA4
:101160000080034080F5E4091C000020603D790206
:101170001400002018000020080000200C000020AF
:101180001000002000EBC91304000020C023000061
:1011900040420F0040787D0180F0FA022DE9F041D5
:1011A000254886B02549FFF709FC23482449FFF765
:1011B00005FC244D20482449FFF700FC234E4FF046
:1011C00020432B60224F4FF0284333601A484FF0E2
:1011D000304320493B60FFF7F1FB4FF03208002419
:1011E000E2B21D4B2CB92A6852F8041B19602A6020
:1011F0000CE0012A0BBF32683A6852F8041B52F81F
:10120000041B07BF1960326019603A6013491A68FD
:1012100001A800F0A7FB0134074801A9FFF7CEFBA6
:10122000032CDDD104480E49FFF7C8FBB8F10108D3
:10123000D5D106B0BDE8F08150010020C8230000E0
:101240001324000004010020CA2300002400002011
:101250002000002035240000980100201326000003
:101260006126000037B50024009401940F4D10480A
:1012700029460122FFF7CAFB0E4BC0B218700028A6
:10128000F4D000221A702B780D2B04D1684600F0A0
:10129000F9FA03B030BD0DF80430054829460122A3
:1012A0000134FFF757FB082CE0D1EFE79001002055
:1012B000500100200001002038B504460D46236887
:1012C0003BB905480549FFF779FBFFF7CBFF2060E5
:1012D000F5E7AB42F5D838BD50010020502400009E
:1012E00000B59BB00246054901A800F03BFB04484D
:1012F00001A9FFF763FB1BB05DF804FB7424000039
:1013000050010020F0B57149B5B071480024019436
:10131000FFF754FBFFF7A6FF34AB43F8CC0D18469C
:101320003121FFF7C9FF0199E6B28E422AD200F0BF
:10133000DFFA34AB9D193223B0FBF3F202FB13004A
:10134000013005F8C80C00F0D3FA032390FBF3F347
:1013500003EB4303C01A013005F8640C86B115F89D
:10136000C82C15F8C93C9A420AD100F0C1FA3223C0
:10137000B0FBF3F202FB1300013005F8C80CEEE7F6
:101380000134D0E701228A4218D20020C3B28C1A5D
:10139000A34210D234AC1C4434AD01332B4414F8B6
:1013A000C86C13F8C85C0130AE4284BF03F8C86C47
:1013B00004F8C85CEAE70132D2B2E4E744484549A0
:1013C000FFF7FCFA0023DCB25D1C019B40489C4205
:1013D00016D24149FFF7F2FA34AB1C4414F8C80C9A
:1013E000FFF77EFF3D493A48FFF7E8FA14F8640C2E
:1013F000FFF776FF36483A49FFF7E0FA2B46E2E777
:101400003749FFF7DBFA32483649FFF7D7FA304859
:101410003549FFF7D3FA00272D483249FFF7CEFAB6
:101420003B464FF028454FF020444FF03046019A9C
:1014300034A90A4412F8C92CF8B2824239D90021E1
:1014400034AA5FFA81FE1A4469B912F864ECBEF15D
:10145000010F26D112F8C8EC421C964521D14AF65C
:10146000AA2222601BE0BEF1010F12F864EC0BD13E
:10147000BEF1020F15D112F8C8EC421C964510D1EE
:1014800040F6BB322A600AE0BEF1030F09D112F820
:10149000C8EC421C964504D14CF6CC423260013374
:1014A000DBB201310329CBD10137043604350434D2
:1014B000BDE70E4B06481E600D4B0E491D600E4BDE
:1014C0001C60FFF77BFA35B0F0BD00BF7724000049
:1014D00050010020A9240000C524000019260000A6
:1014E00061260000CA230000D7240000200000204D
:1014F00024000020FF24000004010020F8B5344E31
:1015000034493046FFF75AFAFFF7ACFE324D32212C
:1015100028602846FFF7D0FE2B68304F03F1205398
:10152000013B9B002E4C1B68394630462360FFF779
:1015300045FA2068FFF7D4FE21682A48FEF7EEFF3F
:1015400030462949FFF73AFAFFF78CFE322128602E
:101550002846FFF7B1FE2B68394603F12853013BBB
:101560009B001B6830462360FFF728FA2068FFF7CE
:10157000B7FE21681D48FEF7D1FF30461C49FFF732
:101580001DFAFFF76FFE322128602846FFF794FE10
:101590002B68394603F13053013B9B001B683046F2
:1015A0002360FFF70BFA2068FFF79AFE21681148C5
:1015B000FEF7B4FF30461049FFF700FA4FF04050F5
:1015C000FEF7AEFF2060BDE8F840FFF789BE00BF20
:1015D0005001002013250000940100204A2500003E
:1015E00098010020000100305C250000000200305E
:1015F0009325000000030030CD25000070B516498A
:1016000086B006461548FFF7D9F914481449FFF784
:10161000D5F912481349FFF7D1F900240F481049B2
:10162000FFF7CCF9254656F8243001340E492246FE
:1016300001A8013500F096F9EDB2084801A9FFF7BD
:10164000BDF9052D04D105480349FFF7B7F9002579
:10165000322CE8D106B070BD612600005001002098
:10166000CA230000132400001026000038B53948B2
:101670003949FFF7A3F937483849FFF79FF935484B
:101680003749FFF79BF933483449FFF797F94FF093
:10169000204500244FF05533013445F8043BE4B2B3
:1016A0002C483049FFF78AF9032C08D129482E49E4
:1016B000FFF784F927482D49FFF780F900242C4BC8
:1016C0009D42E7D14FF02040FFF798FF4FF02845AB
:1016D0000024284B013445F8043BE4B21D4821495D
:1016E000FFF76CF9032C08D11A481F49FFF766F978
:1016F00018481E49FFF762F900241F4B9D42E8D1AC
:101700004FF02840FFF77AFF4FF0304500244FF0AC
:101710005A33013445F8043BE4B20E481149FFF74F
:101720004DF9032C08D10B480F49FFF747F9094839
:101730000E49FFF743F90024104B9D42E7D14FF0CB
:101740003040FFF75BFFBDE8384002480C49FFF727
:1017500035B900BF5001002061260000CA230000F7
:101760001B260000482400004A24000062260000D6
:10177000C80000A0AAAAAA7AC80000A8C80000B0A1
:10178000FF24000038B5032231484FF41651FFF70B
:10179000BDF82F482F49FFF711F92D482E49FFF7C3
:1017A0000DF92B482B49FFF709F929482B49FFF779
:1017B00005F927482A49FFF701F925482949FFF784
:1017C000FDF823482849FFF7F9F821482749FFF792
:1017D000F5F81F482649FFF7F1F81D482549FFF79E
:1017E000EDF8254C1A4821460122FFF70FF9234D49
:1017F000C0B228700028F4D015482146FFF7DEF863
:1018000000232B702378313B052B1CD8DFE803F035
:101810000308060B0E1EFFF729FFC6E7FFF772FD50
:10182000FFF7BCFCC1E7FFF769FEBEE74FF02040C1
:10183000FFF7E4FE4FF02840FFF7E0FE4FF03040A6
:10184000FFF7DCFEB1E702480D49ACE7002038BDE8
:1018500050010020CA230000412600006426000039
:1018600080260000A0260000C2260000E42600001A
:10187000FE2600001C27000090010020000100202F
:101880002827000000210A2200F016B90E4B70B57F
:101890001E460E4C0025E41AA410A54204D056F8AA
:1018A000253098470135F8E700F0F2FF084B094C66
:1018B0001E46E41AA4100025A54204D056F825308F
:1018C00098470135F8E770BDA8280000A828000057
:1018D000A8280000AC28000010B5431E0A4491421D
:1018E00004D011F8014B03F8014FF8E710BD0000D8
:1018F000194B10B51C68A36BD3B9182000F0EAF897
:1019000043F20E33A06303804AF6CD33438041F2A5
:10191000342383804EF26D63C3804DF6EC63038104
:10192000052343810B23838101220023C0E9042383
:10193000A16B0A4C0B6948695C43094A02FB0040F1
:10194000A3FB02230132034443F10003C1E9042352
:1019500023F0004010BD00BF880000202DF4515836
:101960002D7F954C0EB400B54FF402719CB0ADF8CC
:1019700014106FF00041049107914FF6FF711DABF9
:10198000ADF81610084953F8042B02900690086829
:1019900002A9019300F09AF9029B00221A701CB070
:1019A0005DF804EB03B07047880000202DE9F04794
:1019B0000F46404CD4F800903D4615F801EB09EB7A
:1019C0000E04667806F0080404F0FF060CB12F46FA
:1019D000F2E774462D2C03D1BD1C7C78012603E070
:1019E0002B2C04BF7C78BD1C13B1102B0AD15AE0FC
:1019F000302C56D12C7804F0DF04582C4CD16C7864
:101A000010230235002E14BF4FF000486FF000483D
:101A1000B8FBF3FA0027BE4603FB1A8809EB040C57
:101A20009CF801C01CF0040F01D0303C0BE01CF00E
:101A3000030C1BD0BCF1010F0CBF4FF0370C4FF063
:101A4000570CCCEB04049C4210DAB7F1FF3F0AD0EC
:101A5000D64506D801D1444503DC03FB0E4E0127D1
:101A600001E04FF0FF3715F8014BD7E77C1C7346B8
:101A70000AD1002E4FF0220114BF4FF000436FF047
:101A8000004301602AB911E00EB1CEF100036AB142
:101A900007B1691E116009E03024002BB2D1082380
:101AA000B0E70A23AEE7302CACD1A3E71846BDE877
:101AB000F08700BF8C00002030B505460C46134669
:101AC000034A294610682246BDE83040FFF76EBF42
:101AD00088000020024B0146186800F047B800BF9C
:101AE0008800002030B500293CD051F8042C0B1F91
:101AF0001D49002AB8BF9B180A680C4612B95A60E3
:101B00000B6030BD93420DD219685818904201BF46
:101B10005A5852181A60426823605A6030BD994280
:101B200003D80A4651680029F9D1146815199D4255
:101B30000AD11B682344D0188842136012D1086868
:101B4000034413604B680CE002D90C23036030BDE2
:101B50001C681819884201BF086849680019186094
:101B60005960536030BD00BF0C01002070B5CC1C23
:101B700024F0030408340C2C38BF0C24002C064637
:101B800003DA0C233360002070BD8C42F9D3204A65
:101B9000136810461946A1B10A68121B0ED40B2A0D
:101BA00003D90A608B188C501FE08B420BBF5A6818
:101BB0004A6802605A6018BF0B4616E00B46496837
:101BC000E9E7144D2B681BB9304600F007FB28608D
:101BD0003046214600F002FB421C0346D1D0C51C12
:101BE00025F0030585420AD11C6003F10B001A1D84
:101BF00020F00700821A0AD05142995070BD304639
:101C0000E91A00F0EBFA0130BBD02B46ECE770BDCF
:101C10000C010020080100202DE9F0478E68824663
:101C2000B3420C469046994640D38A8912F4906F8D
:101C30003AD02568096902236F1A656905EB4505E5
:101C400095FBF3F57B1C4B449D4238BF1D46530565
:101C50000FD52946FFF78AFF064698B121693A4613
:101C6000FFF73AFEA38923F4906343F08003A38136
:101C700013E02A4600F0EBFA064670B95046216997
:101C8000FFF730FF0C23CAF80030A3894FF0FF3074
:101C900043F04003A381BDE8F08726613E442660FF
:101CA0004E466561ED1BA560B14500D24E463246F9
:101CB0002068414600F0B0FAA36800209B1BA36097
:101CC00023681E442660BDE8F08700002DE9F0433C
:101CD0009DB003938B8906461C060D4690460CD595
:101CE0000B6953B94021FFF741FF2860286110B903
:101CF0000C233360CCE040236B6100230993202345
:101D00008DF8293030238DF82A3043461C4613F8CD
:101D1000012B1AB9B4EB08090FD002E0252AF5D13E
:101D2000F8E73046294642464B46FFF775FF01303B
:101D300000F0A980099B4B4409932378002B00F005
:101D4000A28000234FF0FF3204930793059206937D
:101D50008DF853301A9304F101084446DFF8489196
:101D600021784846052200F049FA08F10108049B51
:101D700030B1C9EB00000122824013430493ECE729
:101D8000D80644BF20228DF85320190744BF2B22C8
:101D90008DF8532022782A2A02D0079923460EE094
:101DA000039A0134111D12680391002ABBBF5242ED
:101DB00043F0020307920792B8BF04930AE01C465F
:101DC00022780133303A092A03D80A2000FB012186
:101DD000F5E7079123782E2B1AD163782A2B0AD1A5
:101DE000039B02341A1D1B680392002BB8BF4FF0EF
:101DF000FF3305930CE0611C00220C46237801316F
:101E0000303B092B03D80A2000FB0232F5E705928C
:101E1000DFF8988021784046032200F0EFF938B1CE
:101E2000049AC8EB00004023834013430493013419
:101E300021781A48062204F101088DF8281000F0D4
:101E4000DDF988B1164B33B9039B073323F0070341
:101E50000833039313E003AB0093304604A92A46EA
:101E6000104BAFF3008007E003AB0093304604A9AA
:101E70002A460C4B00F092F8421C074603D0099BFF
:101E80003B44099341E7AB895B0601D4099801E023
:101E90004FF0FF301DB0BDE8F08300BF64280000A4
:101EA00000000000191C00005A28000060280000F3
:101EB0002DE9F84391461F468A680B69064693420E
:101EC000B8BF1346C9F8003091F843200C46DDF83E
:101ED000208012B10133C9F800302368990642BF4F
:101EE000D9F800300233C9F80030256815F006052E
:101EF0001CD094F843302268003318BF01239206A7
:101F00001FD5E118302081F843005A1C94F8451081
:101F10002244023382F8431013E03046394604F17C
:101F200019020123C047013007D00135E368D9F811
:101F300000209B1A9D42F0DBDBE74FF0FF30BDE84D
:101F4000F8833046394604F14302C0470130F4D0EB
:101F50002268D9F80050E36802F00602042A08BF9C
:101F60005D1B2269A3680CBF25EAE5750025934235
:101F7000C4BF9B1AED184FF00009A9450ADA304694
:101F8000394604F11A020123C0470130D5D009F1C6
:101F90000109F2E70020BDE8F88300002DE9FF41C8
:101FA0000C461746227E98466E2A06460A9B01F189
:101FB000430100F0B08012D8632A23D00AD8002A47
:101FC00000F0BD80582A40F0CC8084F84520DFF82E
:101FD00004E257E0642A1ED0692A1CD0C1E0732AAB
:101FE00000F0B18009D86F2A2ED0702A40F0B98055
:101FF000226842F0200222603FE0752A24D0782A2D
:102000003BD0AEE01A6804F14205111D1960136857
:1020100084F84230A9E020681A6810F0800F02D0DE
:10202000101D186008E010F0400F02F10400186065
:1020300002D0B2F9003000E01368002B3EDA2D2206
:102040005B4284F8432039E020681A6810F0800F62
:1020500002D0101D186007E010F0400F02F10400DC
:10206000186001D0138800E01368227EDFF864E175
:102070006F2A0CBF08220A221CE07822DFF858E100
:1020800084F845202268186812F0800F00F10405DA
:102090001D6003D1550601D5038800E00368D00711
:1020A00044BF42F0200222601BB9226822F02002C5
:1020B00022601022002084F8430002E0DFF814E1DF
:1020C0000A226568002DA8BF2068A560A4BF20F083
:1020D0000400206003B965B10D46B3FBF2F002FBCA
:1020E00010331EF8033005F8013D03460028F4D1F3
:1020F00000E00D46082A0BD12368DA0708D52369CA
:1021000062689A42DEBF302305F8013C05F1FF35D5
:10211000491B21612EE025681A6815F0800F60695F
:1021200003D0151D1D60136808E015F0400F02F183
:1021300004051D60136801D0188000E018600023BA
:1021400023610D4616E01A68111D196015680021FB
:102150002846626800F052F808B1401B606063686E
:1021600004E004F1420584F84220012323610023A6
:1021700084F84330CDF800803046214603AA3B4620
:10218000FFF796FE013002D14FF0FF301FE03046DE
:1021900039462A462369C0470130F5D023689B079A
:1021A00005D4E068039B9842B8BF18460FE00025AD
:1021B000E368039A9B1A9D42F3DA3046394604F1EC
:1021C00019020123C0470130DED00135F0E704B029
:1021D000BDE8F0816B2800007C28000038B5064C73
:1021E0000023054608462360FEF7BEFE431C02D1CD
:1021F000236803B12B6038BD9C01002010B5C9B223
:1022000002449042034605D01C7801308C42F8D13C
:10221000184610BD002010BD814210B501EB02032D
:1022200001D3421E0BE09842FBD28118D21AD3424E
:1022300004D013F8014D01F8014DF8E710BD9942A3
:1022400004D011F8014B02F8014FF8E710BDF8B5C2
:10225000074615460E4621B91146BDE8F840FFF77E
:1022600085BC1AB9FFF73EFC2846F8BD00F015F80A
:10227000A8420ED238462946FFF778FC044650B1F2
:1022800031462A46FFF728FB38463146FFF72AFC3D
:1022900001E03046F8BD2046F8BD51F8040C002896
:1022A000BEBF091851F8043CC0180438704700003C
:1022B000000000005E1E57020200000002018808B4
:1022C00000003F33FFFF7777770701003B420800AC
:1022D0001003440000000000C903850035026400BB
:1022E000AB0278013300C51514001800003300005C
:1022F000000006040000000240001200020000403E
:10230000F8800700F88007000002000000000400C9
:10231000030040000000000000000000090301006D
:10232000000000000000800000000000030000002A
:1023300000000000000000000B0000000000000092
:1023400000008000042000010800000000000000E0
:10235000000000000100000000000000000000007C
:102360005040010514500000000000000000000073
:10237000000000000000000000000000000000005D
:102380005000010510500000000000000000000097
:1023900000004300000003000100010000000000F5
:1023A000000001000000000000000000000000002C
:1023B00000000000000000000000000000080240D3
:1023C00000010001020203030A0D2A2A2A2A2A2AEE
:1023D0002A2A2A2A2A2A2A2A2A2A2A2A2A2A2A2A5D
:1023E0002A2A2A2A2A2A2A2A2A2A2A2A2A2A2A2A4D
:1023F0002A2A2A2A2A2A2A2A2A2A2A2A2A2A2A2A3D
:102400002A2A2A2A2A2A2A2A2A2A2A2A2A2A2A2A2C
:102410000A0D00202020202020204C6579656E6464
:102420006F20526567697374726F73205344524111
:102430004D200A0D002020204109092009204209D1
:1024400009090943200A0D002E0020092009200057
:102450000A20496E677265736120756E6120646938
:1024600072656363696F6E20436F72726563746136
:10247000200A0D002564000A20496E6772657365A5
:1024800020656C206E756D65726F206465206661D5
:102490006C6C6173206120696E7965637461722070
:1024A0004D41582E35300A0D000A2044697265638B
:1024B00063696F6E657320416C6561746F726961E9
:1024C00073200A0D000A204461746F094D656D6F19
:1024D000726961200A0D0020202020202020496EF2
:1024E00079656374616E646F204572726F72657393
:1024F00020416C6561746F72696F73200A0D000A68
:102500000D20436F6D706C657461646F2121212013
:102510000A0D000A0D20496E6772657361205072C2
:10252000696D65726120646972656363696F6E20AD
:10253000656E7472652031206120353020706172C3
:1025400061206C656572200A0D000A204461746F79
:1025500073206C6569646F733A0A0D000A0D204997
:102560006E677265736120536567756E6461206480
:102570006972656363696F6E20656E747265203180
:1025800020612035302070617261206C6565722099
:102590000A0D000A0D20496E67726573612054654B
:1025A000726365726120646972656363696F6E202E
:1025B000656E747265203020746F20383138382091
:1025C00070617261206C656572200A0D000A0A0D47
:1025D0002A2A2A2A2A2A2A2A2A2A2A2A2A20204455
:1025E00061746F7320446573646520544D522020DC
:1025F0002A2A2A2A2A2A2A2A2A2A2A2A2A2A2A2A3B
:102600002A2A2A2A2A2A2A2A2A2A2A2A2A0A0D0091
:1026100025643A252338582009090020202020204D
:102620002020496E696369616C697A616E646F200C
:102630006D656D6F72696120534452414D200A0DE2
:102640000020202020094269656E76656E69646FFE
:10265000206120536D617274467573696F6E32200C
:10266000200A0D000A0D2053656C656363696F6E67
:102670006120756E61206F7063696F6E3A0A0D009C
:10268000312E20496E696369616C697A61722053E9
:102690004452414D2032303020726567200A0D00CF
:1026A000322E204C656572203230302072656769A9
:1026B0007374726F7320646520534452414D200A35
:1026C0000D00332E20496E79656374617220657246
:1026D000726F72657320616C6561746F72696F737C
:1026E000200A0D00342E204F6274656E65722076CC
:1026F000616C6F72657320544D52200A0D00352EA7
:10270000204C656374757261206461746F7320314D
:10271000206D656D6F726961200A0D00362E2053A1
:10272000616C6972200A0D000A204F7063696F6E38
:1027300020496E636F7272656374612E0A0D2056B4
:1027400075656C766120612053656C656363696FA4
:102750006E6172200A0D00430000202020202020FE
:102760002020202828282828202020202020202041
:102770002020202020202020202088101010101041
:102780001010101010101010101004040404040491
:102790000404040410101010101010414141414174
:1027A00041010101010101010101010101010101D9
:1027B000010101010110101010101042424242426A
:1027C00042020202020202020202020202020202A9
:1027D000020202020210101010200000000000008F
:1027E00000000000000000000000000000000000E9
:1027F00000000000000000000000000000000000D9
:1028000000000000000000000000000000000000C8
:1028100000000000000000000000000000000000B8
:1028200000000000000000000000000000000000A8
:102830000000000000000000000000000000000098
:102840000000000000000000000000000000000088
:1028500000000000000000000000232D302B2000AD
:10286000686C4C006566674546470030313233344A
:1028700035363738394142434445460030313233EA
:1028800034353637383961626364656600000000AC
:10289000F8B500BFF8BC08BC9E467047F8B500BF4D
:1028A000F8BC08BC9E467047E5040000C104000067
:1028B0000000000000EBC913603D790280F5E409D7
:1028C00080F5E40980F5E40980F5E40980F5E40980
:1028D000000000B0000000A80000000000000000A0
:1028E00000000000000000000000000000000000E8
:1028F000000000000000000057270000000000005A
:1029000000000000000000000000000000000000C7
:1029100000000000000000000000000000000000B7
:1029200000000000000000000000000000000000A7
:1029300000000000000000002800002059270000CF
:040000030000019167
:00000001FF
