:1000000000000120910100007F0300008103000037
:100010008303000085030000870300000000000048
:100020000000000000000000000000008903000044
:100030008B030000000000008D0300008F03000010
:100040009103000093030000950300009703000054
:10005000990300009B0300009D0300009F03000024
:10006000A1030000A3030000CD090000E90900007E
:10007000A9030000AB030000AD030000AF030000C4
:10008000B1030000B3030000B5030000AD0A000097
:10009000B9030000BB030000BD030000BF03000064
:1000A000C1030000C3030000C5030000750D00007C
:1000B0000D0E0000CB030000CD030000CF030000B5
:1000C000D1030000D3030000D5030000D7030000D4
:1000D000D9030000DB030000DD030000DF030000A4
:1000E000E1030000E3030000E5030000E703000074
:1000F000E9030000EB030000ED030000EF03000044
:10010000F1030000F30300005D1100009D110000E9
:10011000F9030000FB030000FD030000FF030000E3
:1001200001040000030400000504000007040000AF
:10013000090400000B0400000D0400000F0400007F
:10014000110400001304000015040000170400004F
:10015000190400001B0400001D0400001F0400001F
:1001600021040000230400002504000027040000EF
:10017000290400002B0400002D0400002F040000BF
:100180003104000033040000000000000000000003
:100190004FF0000BDFF8BE020068DFF8B612096806
:1001A00001F0030100F01C00142801D14BF0020BF8
:1001B000002901D04BF0010BBBF1000F05D0A7487F
:1001C000A749DFF8722200F09FF8A64880470BF09D
:1001D000020ABAF1000F0CD0DFF86E02DFF86E12DF
:1001E00002680B680FB44FF000024FF0FF0302608B
:1001F0000B609D489D4A9E4B022808D1DFF83E12B5
:100200000A60DFF842120A60DFF836120B6001283C
:1002100008D1DFF82E120A60DFF82A120A60DFF830
:100220001E120B609348002809D193489349944AC1
:1002300000F032F893489449944A00F02DF894481D
:100240009449954A00F028F894489549DFF8E6214A
:1002500000F05AF8BBF1000F12D092489249DFF833
:10026000DA2100F051F80BF0020ABAF1000F07D0C2
:100270000FBC02600B6000BFAFF30080AFF30080E3
:10028000DFF828020FF2030E00474FF000004FF096
:100290000001DFF81CF2FEE72DE9F841884225D085
:1002A000B2EB010200D5FEE740EA010313F00303BD
:1002B00002D000F01DF819E04FF000039046121133
:1002C000F7D09A421CBFF0C8F0C103F10103F8D186
:1002D00008F00F08B8F1000F08D004780C7000F196
:1002E000010001F10101B8F10108F6D1BDE8F88182
:1002F00008B54FF0000303780B7000F1010001F125
:100300000101013AF7D108BD884237D000F0030659
:10031000002E14D04FF00405A5EB06044FF008079B
:1003200007FB06F8914669FA08F9002C07D080F817
:10033000009069FA07F900F10100013CF5E74FF080
:1003400000060F46091A88460911914614461546BB
:10035000B14206D018BFA0E8340206F10106B1424E
:10036000F8D108F00F08B8F1000F07D002704FEA7B
:10037000322200F10100B8F10108F4E77047FEE70E
:10038000FEE7FEE7FEE7FEE7FEE7FEE7FEE7FEE745
:10039000FEE7FEE7FEE7FEE7FEE7FEE7FEE7FEE735
:1003A000FEE7FEE7FEE7FEE7FEE7FEE7FEE7FEE725
:1003B000FEE7FEE7FEE7FEE7FEE7FEE7FEE7FEE715
:1003C000FEE7FEE7FEE7FEE7FEE7FEE7FEE7FEE705
:1003D000FEE7FEE7FEE7FEE7FEE7FEE7FEE7FEE7F5
:1003E000FEE7FEE7FEE7FEE7FEE7FEE7FEE7FEE7E5
:1003F000FEE7FEE7FEE7FEE7FEE7FEE7FEE7FEE7D5
:10040000FEE7FEE7FEE7FEE7FEE7FEE7FEE7FEE7C4
:10041000FEE7FEE7FEE7FEE7FEE7FEE7FEE7FEE7B4
:10042000FEE7FEE7FEE7FEE7FEE7FEE7FEE7FEE7A4
:10043000FEE7FEE7704700000000A2A2A2A2008033
:100440000340088003401080034030800340348024
:1004500003403880034018080240000000F00020EC
:1004600000000120A10F00000000000000000000BB
:10047000010000000000000000000000000000007B
:1004800090010000C0040000C0040000A02900008A
:10049000A029000000000020900000209000002013
:1004A000800300208003002000F00020A918000035
:1004B000091600000000000000000000000000001D
:1004C00010B5054C237833B9044B13B10448AFF38E
:1004D00000800123237010BD900000200000000068
:1004E0008029000008B5034B1BB103490348AFF353
:1004F000008008BD0000000094000020802900005A
:1005000000F0704303EB8101C0F3130001F10071AF
:10051000400101230B50704700F0704303EB810151
:10052000C0F3130001F10071400100230B5070472C
:1005300000F0704303EB8101C0F3130001F100717F
:1005400040010858C0B270471E4B30B598421A4659
:1005500003D01D4B984200D000BE016901B900BE16
:10056000436903B900BE904202D0174A904228D195
:1005700039B333B30268417B127DD2B21143920684
:1005800041730CD4826943699A421AD1BDE8304064
:1005900000234361006801210430FFF7BDBF826979
:1005A0009B1A102B28BF102300229A42EAD084699C
:1005B000056901682C5D01320C708169013181612E
:1005C000F3E730BD640100202401002010B504468B
:1005D0000068037A03F00F030C2B4BD8DFE803F01D
:1005E000074A090F0B4A0D4A4A4A4A4A0B00A36AB6
:1005F0003BE0636A39E0236A37E0E36935E028309D
:100600000021FFF795FF28B1E36A0BB900BE01E0B6
:1006100020469847206801212830FFF789FF28B13C
:10062000236B0BB900BE01E02046984720680221E9
:100630002830FFF77DFF28B1636B0BB900BE01E0E6
:1006400020469847206803212830FFF771FF28B122
:10065000A36B0BB900BE01E0204698472068042137
:100660002830FFF765FF30B1E36B1BB12046BDE8D2
:100670001040184700BE10BD2DE9F843714B0446E9
:10068000984298460E4617466F4B04D06F4A9042E8
:1006900013D000BE11E04FF0804202600A220271C6
:1006A0009A6C4FF4806142F080029A64684AC2F802
:1006B00080119A6C22F080020FE0664A4FF40061CC
:1006C00022600B2222719A6C42F480729A64604A12
:1006D000C2F880119A6C22F480729A642368002513
:1006E0001D71236801211D7220680830FFF708FF83
:1006F000206802210830FFF703FF206829460830F0
:10070000FFF7FEFE206804211030FFF705FF206888
:1007100005211030FFF700FF206801213430FFF77A
:10072000FBFE206829463430FFF7F6FE20680121E1
:100730003830FFF7F1FE206805213030FFF7ECFE7E
:10074000206806213030FFF7E7FE206807213030AF
:10075000FFF7E2FE206803213830FFF7DDFE236853
:10076000444583F84450236883F84850236883F84D
:100770004C5002D0354B9C4211D1A66000F094FC45
:1007800044450CBF344B354B1B68DB00B3FBF6F91B
:100790004FEAD913B3F5803F4FEA590501D300BEA4
:1007A0003CE0012B20685FFA83F823D9A5EB831581
:1007B000A5EBC3134B440C300721A3EB4505FFF712
:1007C0009FFE2268C9F3C73313712368072183F89A
:1007D000008020680C30FFF79FFE20680721303032
:1007E000FFF78EFEFF2D00D900BE2368EDB283F81F
:1007F0003C5013E00C300721FFF782FE23680022F3
:100800001A712368072183F8008020680C30FFF7F5
:1008100083FE206807213030FFF77EFE23681F73B8
:10082000002327736373A66063612361A36123625E
:100830006362E361A362E36223636363A363E363CD
:10084000BDE8F883640100200080034024010020FB
:1008500000E100E000000140100000201400002032
:100860000E4B10B59842044603D00D4B984200D071
:1008700000BE2046FFF700FF206803213030FFF75D
:100880004BFE206802213430FFF746FE206800212D
:100890003830FFF741FE034B636210BD6401002056
:1008A0002401002049050000174BF0B5984203D001
:1008B000164CA04200D000BE01B900BE02B900BE75
:1008C000984202D0114B98421DD1E1B1DAB1002417
:1008D0000368457B1B7DDBB21D4345739D06F7D541
:1008E0000F2A01EB040698BF1346354688BF102334
:1008F000076815F801EB87F800E0AF1B9F42F7D3BC
:10090000D21A1C44E4D1F0BD64010020240100206F
:10091000114B70B5984205D0104B984202D000BEE2
:10092000C1B900E009B900BE70BD0A7800238AB1E0
:100930000668347D457BE4B22543A4064573F8D5AB
:1009400003F11004056801332A70CA5C12B1A34296
:10095000F8D1ECE770BD00BF640100202401002045
:100960000346184830B5834203D0174CA34200D049
:1009700000BE01B900BE02B900BE834202D01248D7
:10098000834217D1C1B1D2B11868047D587BE4B25B
:10099000204358730020E40710D590420FD01C6804
:1009A00024780C541C685D7B247D0130E4B225431F
:1009B0005D73F0E7002202E00A4600E002461046BE
:1009C00030BD00BF6401002024010020684620F0F3
:1009D00007018D4601B50348FFF7F8FDBDE801406A
:1009E0008546704764010020684620F007018D4667
:1009F00001B50348FFF7EAFDBDE8014085467047B1
:100A00002401002010B5064C0146236833B1054A85
:100A100010689847044A00232360137010BD00BF7C
:100A2000C8000020D4000020B80000200E4B13B5F1
:100A30001A6822F004021A605B6803F00103019354
:100A40000023019A0AB919460AE08B4208D0C45C17
:100A5000054A01331461526802F001020192F0E785
:100A6000084602B010BD00BF00600140024B1A688A
:100A70000AB11B6818477047BC00002008B5084B36
:100A80001B7863B1074B188880B2FFF7BBFF064B9A
:100A90001A6842F001021A601A68D207FCD408BD35
:100AA000B8000020CC00002000600140F8B57E4B6B
:100AB0005E68F2B29E681640B20776D518697B4D23
:100AC00020F4FF442B7824F07F04A4B2C0B2052B9D
:100AD00066D8DFE803F0036161172B58002C64D05F
:100AE000F1285AD1724B0024724A1C8011681A886E
:100AF00092B288541A88013292B21A801B889BB233
:100B0000CC5411E0002C50D06B4B1B78984244D150
:100B1000674A002313806749138809689BB2C85449
:100B2000138801339BB2138004233DE0002C34D1A1
:100B30005F4F604B3A88196892B20A4412F8013C40
:100B4000F12B3B460AD13B889BB2C8543B889BB2F1
:100B50000B4413F8010CFFF789FF1BE0574C3A8850
:100B6000248892B2A24206D23A8892B288543A8835
:100B7000013292B23A801B889BB2A34215D14C4BF2
:100B8000188880B20DE044B94A4B1B6858700220A7
:100B9000FFF738FF2C7008E03CB1FFF767FF04E077
:100BA0000020FFF72FFF00232B70F3077AD53F4C6F
:100BB00023782646022B20D0052B3CD0012B67D171
:100BC0003F4D2B889BB2002B30D03E4E2988376892
:100BD00089B23846FFF72AFF2B889BB2984205D28C
:100BE0002B881B1A9BB22B80384416E000232B80E5
:100BF000354B1B68C3B1022353E0334D2B68ABB1B7
:100C0000324E29683068FFF711FF2B68984206D2F0
:100C10002B681B1A2B60336818443060F8BD224AD9
:100C2000936823F00103936003233AE000BEBDE81C
:100C3000F840FFF723BF244C236893B9244B1B686B
:100C400063B1224898472060236853B9164A9368D5
:100C500023F0010393600323337002E000BEFFF72B
:100C60000DFF2368184D3BB90F4A936823F0010329
:100C7000936003233370F8BD144C29682068FFF794
:100C8000D5FE2B681B1A2B60236818442060F8BD22
:100C9000054A0020936823F001039360FFF7B2FE3A
:100CA00000232370F8BD00BF00600140D800002081
:100CB000CC000020D4000020D9000020AC0000208F
:100CC000C0000020B4000020D0000020C40000209C
:100CD000B000002070B5234C4FF420752668224CDC
:100CE000754363511423734303F1402404F58034A6
:100CF0006060A1601D4CB2F5803F1C44656898BFE0
:100D000092B24FEA15454FEA0545656098BF6168A4
:100D1000174B9BBF0A436260A2F5803200228CBF52
:100D20001A611A614FF0140202FB06F281BF01F54D
:100D3000803100F58030D96098600C4B13445A68BC
:100D400042F4E0025A604FF42073734303F184438A
:100D500003F520130122C3F8C0210022C3F8CC21DF
:100D600070BD00BFF8000020C401284208400140C7
:100D7000DC000020684620F007018D4619B51D4BA8
:100D80001D491A68012402F5287041F820401420FA
:100D900050431A49224401444868042A20F4E000E0
:100DA0004860174908BF00221A600A690C4662B100
:100DB0001449A0680B68042B0CBF002301330B609F
:100DC000E168237DFFF786FF10E01A6814235A4379
:100DD0000D4B9B5813F4E00308D1064A0120136021
:100DE000084A087013604B6803B19847BDE8194082
:100DF00085467047F400002000002842084001406A
:100E0000DC000020F80000200C400140684620F083
:100E100007018D4619B5234B1B6813F4706F1FD063
:100E2000214A4FF42073116814464B4303F1844365
:100E300003F52013D3F808322BB11C4B0220187095
:100E40005B6803B1984722684FF420735A43184BEC
:100E50009B582BB1154B032018705B6803B1984762
:100E6000104B1B6813F4704F05D0104B0420187002
:100E70005B6803B198470F4A0F490123C2F8C83194
:100E8000C2F8803AC2F84834C1F8803AC2F8C8368D
:100E9000C1F8843AC2F84839C1F8883ABDE8194027
:100EA0008546704700400140F4000020DC0000202F
:100EB0000C02284200002842040028421F2801D9C1
:100EC00000BE7047024B53F820301960704700BFD6
:100ED0006C2400001F2801D900BE7047094B012176
:100EE00053F82020136843F008031360064B1B5C83
:100EF0005AB203F01F0301FA03F30449520941F8FF
:100F0000223070476C2400004A24000000E100E019
:100F10001F2801D900BE70470123024A8340C2F84E
:100F200080307047003001400A4B0246196809B909
:100F3000094919601868EFF308818842024402D217
:100F4000914204D2FEE705498A4200D9FEE71A60C1
:100F5000704700BFFC0000208003002000F000204C
:100F6000074B084A1860084B1860084B1860084B7C
:100F70001A60084B1860084B1860084B18607047DF
:100F800000000020603D79021000002014000020C5
:100F90001800002004000020080000200C000020A1
:100FA0004FF6020238B53A4BD3F84C1191420BD1AF
:100FB000D3F8982042F48072C3F89820D3F8982090
:100FC00022F08062C3F89820324A536943F40073D8
:100FD00053612F4B9B68002B49D12F4B2F481B6827
:100FE0000246194603F1E40430F8025B41F8045B61
:100FF000A142F9D12A4803F5077103F5487430F886
:10100000025B41F8045BA142F9D1B2F8F410C3F8D5
:101010000014B2F8F610C3F80414B2F8F810C3F8CC
:101020000814B2F8FA10C3F80C14B2F8FC10C3F8A4
:101030001014B2F8FE10C3F81414B2F80011C3F87B
:101040001814B2F80211C3F81C14B2F80411C3F852
:101050004014B2F80611B2F80821C3F84414C3F8DA
:10106000482401221A60D3F8E420002AFBD0FFF7BD
:10107000E1F9074A936C23F480339364094B1A68AF
:1010800042F003021A605A68D207FCD538BD00BF8F
:101090000080034000ED00E03C23000040230000FE
:1010A000B2230000002002401D4B82B0D3F89820EC
:1010B00051012CD4D3F89820D20412D4194B1A4AD7
:1010C0001A4913601A4A13601A4A13601A4A1160C7
:1010D0001A4A13601A4A13601A4B1B4A1A6002B06C
:1010E00070476A4619490868496803C2D3F89C20CA
:1010F00002A9C2F382120A4412F8082C3AB1012A5A
:101100000CBF4FF40040124802B0FFF729BFD3F8DC
:101110005031104813F0040F0F4B18BF1846F3E777
:101120000080034080F5E40900000020603D790262
:1011300010000020140000201800002004000020EF
:10114000080000200C00002000EBC913EC24000074
:1011500040420F0040787D0180F0FA0208B50A484D
:101160000A49FFF7D5FB0A4B01221A70094A0020F1
:10117000136801331360FFF7CBFE074B4FF4802257
:10118000C3F8842108BD00BF64010020F4240000DE
:101190000C0100201401002000E100E008B5064821
:1011A0000649FFF7B5FB0120FFF7B2FE044B4FF4F1
:1011B0000022C3F8842108BD640100200525000039
:1011C00000E100E070B5144C4FF0A043134D2360D4
:1011D00000232B80124B29881B78104E8B4213D989
:1011E00022681048136840F821300F490F4800F07A
:1011F000EDFB0F480D49FFF78BFB23680433236099
:10120000338801333380E5E7064800214FF4C87284
:10121000BDE8704000F07ABBA8010020AC010020BE
:1012200020000020B00100201D2500004403002004
:101230006401002070B5044600F58056074D54F84F
:10124000043B074807492A6800F0C0FB2B68B442FA
:1012500003F101032B60F1D170BD00BF100100202C
:1012600044030020272500004FF0405318605960C8
:10127000116899605268DA60014A024B1A6070473F
:1012800010000030A801002037B50024009401941C
:10129000124D012229461248FFF762FB1149124AFA
:1012A0000B68C0B2013310700B600028F0D000232F
:1012B00013702B780D2B06D168460021102200F008
:1012C0001FFC03B030BD0DF804300548294601224B
:1012D0000134FFF7E9FA082CDAD1EDE7A601002086
:1012E00064010020400300200D01002070B50122A0
:1012F0008A4210D2034600248D1AAC4209D21E68DD
:1013000053F8045F0134AE4284BF1E6043F8045CAE
:10131000F2E70132ECE770BD03280ED8DFE800F0F9
:101320000205070A4FF055307047054870474FF0E7
:10133000E04070476FF0004070470020704700BFEA
:10134000AAAAAA7A82B00190019B1BB1019B013B22
:101350000193F9E702B0704708B54FF4C870FFF782
:10136000F1FFBDE808404FF0A040FFF763BF000069
:1013700010B50024094B1968094BB3FBF1F39C42EB
:1013800008D861433420074AFFF76EFF0134FFF7A6
:10139000E3FFEFE7044B00221A6010BD1C000020A1
:1013A00000550500040100201001002038B50A4D49
:1013B0004FF0A0432B60094B00241C801420FFF742
:1013C000C1FF2B68064A53F8041B42F8241001346D
:1013D000082C2B60F2D138BDA8010020A401002008
:1013E000B00100202DE9F34105460F4629482A495E
:1013F000FFF78EFA2E1F05F59C45043F1C3514207F
:10140000FFF7A0FF56F8041F3220244AFFF72CFFF5
:10141000FFF7CCFF3368224C072B57F8041F94BF0B
:10142000DBB203F0070301228A4054F823100DF1C8
:1014300008084A4044F82320A2686368120442EA7C
:101440000322236831201343E268316843EA0263D0
:10145000A26901936369120442EA032223691343D8
:10146000E26943EA026348F8083D4246FFF7FCFEA2
:1014700000214FF4C87220460091C8F8041000F013
:1014800045FA2820FFF75EFFAE42B8D102B0BDE8B2
:10149000F08100BF6401002032250000040100201B
:1014A000B00100202DE9F04782B002AFADF59C4DB0
:1014B0004D4B8AB00DF10808ADF59C4D18688AB007
:1014C00002ACADF59C4D421C8AB01A60474D00F04D
:1014D00025FA47484749FFF71BFA02AE00232B8045
:1014E00041F28733B5F800A0DFF800919A453DDC62
:1014F00000F038FA032390FBF3F303EB4303C01A25
:10150000013048F82A00B9F800A000F02BFA3A4B55
:10151000B9F80090B0FBF3F202FB130044F82A0084
:1015200000F020FA354B0340002BBEBF03F1FF3320
:1015300063F00703013346F829302B889BB1B5F8D7
:10154000009004EB890354F8292053F8043C9A4294
:1015500009D100F007FA284BB0FBF3F202FB1300AD
:1015600044F82900EBE72B880133B8E7404641F205
:101570008831FFF7BBFE204641F28831FFF7B6FE07
:101580000023A9F8003041F287332A889A4223DCED
:1015900058F82230022B06D154F8221001F5AA2166
:1015A00001F5A06107E0032B07D154F8221001F5E3
:1015B0002A2101F5206144F8221054F82210104825
:1015C000009156F82210013201910E4900F0FEF907
:1015D0002B8801332B80D6E720463146FFF702FFE8
:1015E000BD46BDE8F08700BF40030020AC010020ED
:1015F000640100204B250000005505000700008015
:1016000044030020712500007FB5874B4FF48022F2
:101610005A604FF400225A6000204221FFF74EFC2E
:1016200042210120FFF74AFC0020FFF753FC012074
:10163000FFF750FC7D484FF416510322FFF710F9D5
:101640007A487B49FFF764F978487A49FFF760F9EF
:1016500076487949FFF75CF974487849FFF758F9FB
:1016600072487749FFF754F970487649FFF750F907
:101670006E487549FFF74CF96C487449FFF748F913
:101680006A487349FFF744F968487249FFF740F91F
:10169000012266480DF10701FFF762F96E4B6F4AB0
:1016A000C0B218701368013313600028F0D05F488F
:1016B0000DF10701FFF72CF99DF80730313B042BA2
:1016C00000F2A880DFE803F0031F39739F0064492C
:1016D0005648FFF71DF9FFF7D7FD62490446534806
:1016E000FFF716F9FFF7D0FD5F4902904F48FFF76B
:1016F0000FF9FFF7C9FD2146039002AA9DF80700E4
:10170000FFF7B2FD8AE056494848FFF701F9FFF7B5
:10171000BBFD002302AA01469DF807000293039334
:10172000FFF7A2FD41485149FFF7F2F83F48504901
:10173000FFF7EEF8FFF746FD62E049493B48FFF747
:10174000E7F8FFF7A1FD494904463848FFF7E0F8FC
:10175000484B1878FFF7E0FD474902460290039096
:10176000464800F033F931484449FFF7D1F82F4893
:101770003E49FFF7CDF802AA33202146FFF774FD5A
:101780003F4B00221A6049E028483E49FFF7C0F865
:1017900023683D492A68394800F018F92348374939
:1017A000FFF7B6F8236801332360FFF77BFE1F487D
:1017B0002E49FFF7ADF81D483449FFF7A9F8344E1C
:1017C000FFF7D6FD19481A49FFF7A2F81748314923
:1017D000FFF79EF833782A4C2F4D002BD4D02A687F
:1017E00023682949254800F0F1F810482349FFF7FC
:1017F0008FF8204A00232B60337013780133137065
:101800000A481A4908E01E4A136801331360FFF7BB
:1018100049FE03E005482149FFF77AF8204A0023F2
:101820001380204A13800BE700E100E064010020F0
:1018300086250000D225000089250000E62500004D
:1018400010260000372600005C26000084260000D9
:10185000A8260000D22600000D0100204003002031
:10186000E526000004270000312700005F27000064
:101870009127000018010020A72700004403002042
:101880000001002013280000EB270000B92700000A
:101890000C010020DC270000140100202528000096
:1018A000A4010020AC01002070B500260C4D0D4CA9
:1018B000641BA410A64209D101F062F800260A4D6B
:1018C0000A4C641BA410A64205D170BD55F8043B18
:1018D00098470136EEE755F8043B98470136F2E7A2
:1018E0009829000098290000982900009C290000F0
:1018F0000A44914200F1FF3300D1704710B511F84E
:10190000014B914203F8014FF9D110BD0346024447
:10191000934200D1704703F8011BF9E738B50D4B2E
:1019200004461D68AB6B7BB9182000F0F3F80A4A37
:101930000A4BA863C0E90023094B012283600B23F3
:1019400083810023C0E904230022AB6B1C615A6130
:1019500038BD00BF240000200E33CDAB34126DE63D
:10196000ECDE0500134B10B51C68A36B7BB9182087
:1019700000F0D0F8104A114BA063C0E90023104BCF
:10198000012283600B2383810023C0E90423A16B20
:101990000C480A694B6950430B4C04FB0300A2FB43
:1019A00004345A1C044444F10000C1E9042020F02E
:1019B000004010BD240000200E33CDAB34126DE684
:1019C000ECDE05002DF451582D7F954C0EB46FF0D0
:1019D000004100B59CB01DAB0290069007910491A8
:1019E0000848094953F8042B0591006802A901939E
:1019F00000F09AF90022029B1A701CB05DF804EB0B
:101A000003B07047240000200802FFFF2DE9F047D3
:101A10008C468646394E60461CF8014BA55D15F094
:101A20000805F8D12D2C33D14FF001089CF8004067
:101A300000F1020C002B5CD0102B0CD1302C0AD101
:101A40009CF8000000F0DF0058284DD110239CF8CE
:101A500001400CF1020C002608F10047013FB7FBE2
:101A6000F3F9304603FB197AA4F13005092D18D893
:101A70002C46A34224DD751C07D081451DD301D11E
:101A8000A2451ADB012600FB03401CF8014BEBE7E3
:101A90002B2C08BF9CF80040A84608BF00F1020CA0
:101AA000C8E7A4F14105192D01D8373CE1E7A4F1BD
:101AB0006105192D04D8573CDBE74FF0FF36E4E70A
:101AC000731C06D122233846CEF8003042B9BDE857
:101AD000F087B8F1000F00D04042002AF7D00EB1D5
:101AE0000CF1FF311160F2E73024002BB3D1082351
:101AF000B1E7302CA4D00A23ADE700BF4C2800008A
:101B000013460A46014602480068FFF77FBF00BF40
:101B100024000020024B0146186800F04FB800BFB7
:101B20002400002038B50546002943D051F8043C74
:101B30000C1F002BB8BFE41800F0C4FB1E4A13684A
:101B4000104633B9636014602846BDE8384000F0A1
:101B5000BFBBA3420AD921686218934201BF1A6829
:101B60005B685218226063600460EDE71A465B68A8
:101B70000BB1A342FAD911685018A0420BD12068CA
:101B80000144501883421160DED118685B6801443B
:101B900011605360D8E702D90C232B60D4E720688A
:101BA00021188B4201BF19685B68091821606360C6
:101BB0005460C9E738BD00BF1C010020F8B5CD1C3A
:101BC00025F0030508350C2D38BF0C25002D0646E1
:101BD00001DBA94203D90C2333600020F8BD00F0DB
:101BE00071FB21490A6814469CB9204F3B6823B910
:101BF0002146304600F02EFB38602946304600F082
:101C000029FB431C23D10C233046336000F060FBDA
:101C1000E3E723685B1B17D40B2B03D923601C4419
:101C2000256004E06368A2420CBF0B60536030463D
:101C300000F04EFB04F10B00231D20F00700C21A38
:101C4000CCD01B1AA350C9E722466468CCE7C41C59
:101C500024F00304A042E3D0211A304600F0FAFA3F
:101C60000130DDD1CFE700BF1C01002020010020A2
:101C70002DE9F0478E6882469E420C4690461F46EC
:101C800038D88A8912F4906F32D0256809690133F7
:101C9000A5EB010965694B4405EB450505EBD575D9
:101CA0006D109D4238BF1D46530531D52946FFF7BB
:101CB00085FF064650B90C234FF0FF30CAF80030BC
:101CC000A38943F04003A381BDE8F0874A46216918
:101CD000FFF70EFEA38923F4906343F08003A381F2
:101CE00026614E4426603E466561A5EB0905A56068
:101CF000BE4200D93E4632464146206800F0C8FA4E
:101D0000A36822689B1B32440020A3602260DBE7AB
:101D10002A4600F0E3FA06460028E1D15046216940
:101D2000FFF700FFC7E700002DE9F04F98468B89C9
:101D300007461B060D4614469DB00ED50B6963B9C8
:101D40004021FFF73BFF2860286120B90C233B604E
:101D50004FF0FF30D1E040236B6100230993202333
:101D60008DF8293030234FF00109CDF80C80DFF8D1
:101D7000A4818DF82A3023469A4613F8012B0AB124
:101D8000252AF9D1BAEB040B0BD05B462246294633
:101D90003846FFF76DFF013000F0AA80099A5A44D7
:101DA00009929AF80030002B00F0A28000234FF037
:101DB000FF32CDE905230AF1010A049307938DF858
:101DC00053301A935446052214F8011B514800F071
:101DD00051FA049AD8B9D00644BF20238DF8533065
:101DE000110744BF2B238DF853309AF800302A2B6B
:101DF00015D0544600204FF00A0C079A214611F8DE
:101E0000013B303B092B4ED9B0B1079214E0A0EB57
:101E1000080309FA03F31343A2460493D2E7039B92
:101E2000191D1B680391002BBBBF5B4242F00202ED
:101E300007930793B8BF049223782E2B0CD16378B5
:101E40002A2B35D1039B02341A1D1B680392002BE9
:101E5000B8BF4FF0FF330593DFF8C8A00322504608
:101E6000217800F007FA40B14023A0EB0A0003FA02
:101E700000F0049B01340343049314F8011B062271
:101E800025488DF8281000F0F5F9002838D0234BAC
:101E90001BBB039B073323F0070308330393099B02
:101EA0003344099367E70C4601200CFB0232A5E797
:101EB00000234FF00A0C194601340593204610F810
:101EC000012B303A092A03D9002BC5D00591C3E76D
:101ED000044601230CFB0121F0E703AB00932A46E3
:101EE00038460F4B04A9AFF30080421C0646D6D1FA
:101EF000AB895B063FF52CAF09981DB0BDE8F08FAC
:101F000003AB00932A463846054B04A900F07CF841
:101F1000EBE700BF4C29000056290000000000003C
:101F2000711C0000522900002DE9F0471646994621
:101F30008A680B6907469342B8BF1346336091F82D
:101F400043200C46DDF820800AB10133336023685A
:101F5000990642BF336802333360256815F00605E1
:101F600006D104F1190AE36832689B1AAB4228DCF7
:101F700094F84320131E226818BF012392062DD423
:101F80004946384604F14302C047013020D0236857
:101F9000E56803F00603042B18BF002532684FF0F4
:101FA0000006A36808BFAD1A226908BF25EAE575D7
:101FB0009342C4BF9B1AED181A34B5421AD10020BF
:101FC00008E00123524649463846C047013003D154
:101FD0004FF0FF30BDE8F0870135C4E73020E1184D
:101FE00081F843005A1C94F845102244023382F8C9
:101FF0004310C5E70123224649463846C047013011
:10200000E6D00136D9E700002DE9FF470C46277ED0
:102010009146782F80469A460C9904F1430207D8DE
:10202000622F0AD8002F00F0D980582F00F0A4802A
:1020300004F1420684F842703AE0A7F16303152BDD
:10204000F6D801A050F823F0A1200000B520000030
:10205000312000003120000031200000312000003C
:10206000B5200000312000003120000031200000A8
:1020700031200000C3210000E5200000A521000060
:102080003120000031200000E52100003120000057
:10209000E52000003120000031200000AD210000CB
:1020A0000B6804F142061A1D1B680A6084F842306E
:1020B0000123A4E0256808682E0600F104030AD570
:1020C00005680B60002D03DA2D236D4284F8433040
:1020D0000A235E4819E015F0400F05680B6018BF31
:1020E0002DB2EFE70B682568181D0860280601D59A
:1020F0001D6802E06906FBD51D886F2F0CBF082301
:102100000A235248002184F843106668002EA8BFB5
:102110002168A660A4BF21F0040121600DB9002E42
:102120004DD01646B5FBF3F103FB1157C75D06F81A
:10213000017D2F46BB420D46F4D9082B0BD12368F5
:10214000DF0708D5236961689942DEBF302306F8AE
:10215000013C06F1FF36921B22614B462146404668
:10216000CDF800A003AAFFF7DFFE01304CD14FF0FD
:10217000FF3004B0BDE8F087344884F845700E683D
:10218000236856F8045B1F060E6014D5D90744BFB8
:1021900043F0200323601DB9236823F0200323604C
:1021A0001023AFE7236843F02003236078232848F7
:1021B00084F84530E3E75E0648BFADB2E6E7164671
:1021C000BBE70B6826681D1D60690D6035061B683E
:1021D00001D5186002E07106FBD518800023164671
:1021E0002361BAE70B681A1D0A601E680021304699
:1021F000626800F03FF808B1801B6060636823618B
:10220000002384F84330A8E7324649464046236914
:10221000D0470130ABD023689B0713D4E068039B01
:102220009842B8BF1846A4E70123324649464046C3
:10223000D04701309BD00135E36803995B1AAB426C
:10224000F2DCEBE7002504F11906F5E75D29000053
:102250006E29000038B50023054D044608462B6062
:10226000FEF762FE431C02D12B6803B1236038BD28
:102270006C030020034610B5C9B2024493421846CD
:1022800001D1002003E0047801338C42F6D110BD67
:10229000884210B501EB020402D98442234607D8D4
:1022A000431EA14208D011F8012B03F8012FF8E7D3
:1022B000014602448A4200D110BD13F8014D02F8D4
:1022C000014DF7E7014800F02FB800BF740300206C
:1022D000014800F02AB800BF74030020F8B5074693
:1022E00014460E4621B91146BDE8F840FFF766BC1A
:1022F00022B9FFF717FC25462846F8BD00F016F86E
:10230000A0420FD221463846FFF758FC0546002868
:10231000F2D031462246FFF7EBFA31463846FFF756
:1023200001FCE9E73546E7E77047704751F8043CA0
:10233000181F002BBCBF0B58C01870470008024084
:10234000000000005E1E5702020000000201880823
:1023500000003F33FFFF7777770701003B4208001B
:102360001003440000000000C9038500350264002A
:10237000AB0278013300C5151400180000330000CB
:1023800000000604000000024000120002000040AD
:10239000F8800700F8800700000200000000040039
:1023A00003004000000000000000000009030100DD
:1023B000000000000000800000000000030000009A
:1023C00000000000000000000B0000000000000002
:1023D0000000800004200001080000000000000050
:1023E00000000000010000000000000000000000EC
:1023F00050400105145000000000000000000000E3
:1024000000000000000000000000000000000000CC
:102410005000010510500000000000000000000006
:102420000000430000000300010001000000000064
:10243000000001000000000000000000000000009B
:102440000000000000000000000032333435363751
:1024500038393A3B3C3D3E3F404142434445464784
:1024600048494A4B4C4D4E4F5051000000300140FE
:1024700004300140083001400C3001401030014070
:1024800014300140183001401C3001402030014020
:1024900024300140283001402C30014030300140D0
:1024A00034300140383001403C3001404030014080
:1024B00044300140483001404C3001405030014030
:1024C00054300140583001405C30014060300140E0
:1024D00064300140683001406C3001407030014090
:1024E00074300140783001407C300140000100012F
:1024F000020203034552524F5220494E2042595482
:1025000045212121000A20434F4D504C4554452080
:1025100057524954494E4721210A0A0D0025703A65
:10252000253858200A0D002534643A2538582009EA
:102530000900494E59454354414E444F204552529B
:102540004F5245532E2E2E200A0D000A0D204745CE
:102550004E4552414E444F2052414E444F4D20442F
:102560004952454343494F4E45532E2E2E200A0DC6
:10257000002534643A25346420092538582009257B
:102580003464200A0D000A0D202A2A2A2A2A2A2A1F
:102590002A2A2A2A2A2A2A2A2A2A2A2A2A2A2A2A9B
:1025A0002A2A2A2A2A2A2A2A2A2A2A2A2A2A2A2A8B
:1025B0002A2A2A2A2A2A2A2A2A2A2A2A2A2A2A2A7B
:1025C0002A2A2A2A2A2A2A2A2A2A2A2A2A2A2A0A8B
:1025D0000D0020202020094D41494E204D454E55EB
:1025E0002020200A0D004F5043494F4E202731270D
:1025F0002F307833313A0953696D706C652057720A
:1026000069746520746F20534452414D200A0D00B7
:102610004F5043494F4E202732272F307833323ADC
:102620000953696D706C652054505352414D2052CE
:10263000656164200A0D004F5043494F4E202733F7
:10264000272F307833333A09496E697469616C69B0
:102650007A65204D656D6F72790A0D004F504349C0
:102660004F4E202734272F307833343A0952656192
:102670006420427572737420746F20534452414D2C
:10268000200A0D004F5043494F4E202735272F3049
:102690007833353A094661756C7420496E6A656312
:1026A00074696F6E200A0D004F5043494F4E20272A
:1026B00036272F307833363A095475726E206F6E94
:1026C00020544D52204175746F6D61746963200A06
:1026D0000D000A0D20456E74657220206F707469BC
:1026E0006F6E3A20000A0D20456E746572202061DD
:1026F000646472657373206F7074696F6E200A0D65
:10270000203078000A0D20456E74657220203173E8
:10271000742064617461204D5342284D41582E3419
:1027200032393439363732393529200A0D2030789C
:10273000000A0D20456E7465722020326E6420649C
:10274000617461204C534220284D41582E34323957
:102750003439363732393529200A0D203078000ACD
:102760000D2A2A2A2A2A2A2A2A2A2A2A2A2A2A2AE6
:102770002A2A2A2A2A2A2A2A2A2A2A2A2A2A2A2AB9
:102780002A2A2A2A2A2A2A2A2A2A2A2A2A2A0A0DE6
:10279000000A0D20524541442032204F5054494FE9
:1027A0004E2020200A0D000A0D20504154524F4E59
:1027B0003A20253858200A0D000A0D205245414480
:1027C000494E4720414C4C204D454D4F52592052C7
:1027D0004547495354455253200A0D000A0D2044E1
:1027E00045434953494F4E200A0D00204E554D4553
:1027F000524F2045524F5245533A202564200A0D2E
:10280000204E554D45524F2046493A202564202000
:102810000A0D004E4F20484159204552524F524513
:1028200053200A0D000A20496E636F72726563744B
:10283000204F7074696F6E2E0A0D2053656C6563AE
:102840007420616761696E200A0D0000202020203D
:102850002020202020282828282820202020202050
:102860002020202020202020202020208810101030
:102870001010101010101010101010100404040488
:1028800004040404040410101010101010414141FD
:102890004141410101010101010101010101010168
:1028A00001010101010101101010101010424242FB
:1028B0004242420202020202020202020202020238
:1028C000020202020202021010101020000000009A
:1028D00000000000000000000000000000000000F8
:1028E00000000000000000000000000000000000E8
:1028F00000000000000000000000000000000000D8
:1029000000000000000000000000000000000000C7
:1029100000000000000000000000000000000000B7
:1029200000000000000000000000000000000000A7
:102930000000000000000000000000000000000097
:10294000000000000000000000000000232D302BDC
:102950002000686C4C0065666745464700303132A0
:1029600033343536373839414243444546003031F7
:102970003233343536373839616263646566000056
:10298000F8B500BFF8BC08BC9E467047F8B500BF5C
:10299000F8BC08BC9E467047E5040000C104000076
:1029A00080F5E40980F5E40980F5E40900EBC9133A
:1029B00080F5E40980F5E409603D79020004000037
:1029C00008000000280000200000000000000000B7
:1029D00000000000000000000000000000000000F7
:1029E00000000000000000000000000000000000E7
:1029F00000000000000000000000000000000000D7
:102A000000000000000000000000000000000000C6
:102A100000000000000000000000000000000000B6
:102A200000000000000000000000000000000000A6
:040000030000019167
:00000001FF
