:1000000000000120910100007F0300008103000037
:100010008303000085030000870300000000000048
:100020000000000000000000000000008903000044
:100030008B030000000000008D0300008F03000010
:100040009103000093030000950300009703000054
:10005000990300009B0300009D0300009F03000024
:10006000A1030000A3030000C5090000E10900008E
:10007000A9030000AB030000AD030000AF030000C4
:10008000B1030000B3030000B50300009D0A0000A7
:10009000B9030000BB030000BD030000BF03000064
:1000A000C1030000C3030000C5030000510D0000A0
:1000B000F50D0000CB030000CD030000CF030000CE
:1000C000D1030000D3030000D5030000D7030000D4
:1000D000D9030000DB030000DD030000DF030000A4
:1000E000E1030000E3030000E5030000E703000074
:1000F000E9030000EB030000ED030000EF03000044
:10010000F1030000F3030000F5030000F703000013
:10011000F9030000FB030000FD030000FF030000E3
:1001200001040000030400000504000007040000AF
:10013000090400000B0400000D0400000F0400007F
:10014000110400001304000015040000170400004F
:10015000190400001B0400001D0400001F0400001F
:1001600021040000230400002504000027040000EF
:10017000290400002B0400002D0400002F040000BF
:100180003104000033040000000000000000000003
:100190004FF0000BDFF8BE020068DFF8B612096806
:1001A00001F0030100F01C00142801D14BF0020BF8
:1001B000002901D04BF0010BBBF1000F05D0A7487F
:1001C000A749DFF8722200F09FF8A64880470BF09D
:1001D000020ABAF1000F0CD0DFF86E02DFF86E12DF
:1001E00002680B680FB44FF000024FF0FF0302608B
:1001F0000B609D484FF000024FF00103022808D128
:10020000DFF83A120A60DFF83E120A60DFF83212B5
:100210000B60012808D1DFF82A120A60DFF82612E5
:100220000A60DFF81A120B609048002809D1904844
:100230009049914A00F030F890489149914A00F075
:100240002BF891489149924A00F026F8914892493A
:10025000DFF8E22100F058F8BBF1000F10D08F4812
:100260008F49DFF8D62100F04FF80BF0020ABAF1FF
:10027000000F05D00FBC02600B6000BFAFF3008021
:10028000DFF820020FF2030E00474FF000004FF09E
:100290000001DFF814F2FEE72DE9F841884225D08D
:1002A000B2EB010200D5FEE740EA010313F00303BD
:1002B00002D000F01DF819E04FF000039046121133
:1002C000F7D09A421CBFF0C8F0C103F10103F8D186
:1002D00008F00F08B8F1000F08D004780C7000F196
:1002E000010001F10101B8F10108F6D1BDE8F88182
:1002F00008B54FF0000303780B7000F1010001F125
:100300000101013AF7D108BD884237D000F0030659
:10031000002E14D04FF00405A5EB06044FF008079B
:1003200007FB06F8914669FA08F9002C07D080F817
:10033000009069FA07F900F10100013CF5E74FF080
:1003400000060F46091A88460911914614461546BB
:10035000B14206D018BFA0E8340206F10106B1424E
:10036000F8D108F00F08B8F1000F07D002704FEA7B
:10037000322200F10100B8F10108F4E77047FEE70E
:10038000FEE7FEE7FEE7FEE7FEE7FEE7FEE7FEE745
:10039000FEE7FEE7FEE7FEE7FEE7FEE7FEE7FEE735
:1003A000FEE7FEE7FEE7FEE7FEE7FEE7FEE7FEE725
:1003B000FEE7FEE7FEE7FEE7FEE7FEE7FEE7FEE715
:1003C000FEE7FEE7FEE7FEE7FEE7FEE7FEE7FEE705
:1003D000FEE7FEE7FEE7FEE7FEE7FEE7FEE7FEE7F5
:1003E000FEE7FEE7FEE7FEE7FEE7FEE7FEE7FEE7E5
:1003F000FEE7FEE7FEE7FEE7FEE7FEE7FEE7FEE7D5
:10040000FEE7FEE7FEE7FEE7FEE7FEE7FEE7FEE7C4
:10041000FEE7FEE7FEE7FEE7FEE7FEE7FEE7FEE7B4
:10042000FEE7FEE7FEE7FEE7FEE7FEE7FEE7FEE7A4
:10043000FEE7FEE7704700000000A2A2A2A2008033
:100440000340088003401080034030800340348024
:1004500003403880034018080240000000F00020EC
:1004600000000120190F0000000000000000000043
:10047000000000000000000090010000B004000037
:10048000B0040000402100004021000000000020D6
:100490008000002080000020A0010020A00100209A
:1004A00000F000206913000075110000000000003A
:1004B00010B5054C237833B9044B13B10448AFF39E
:1004C00000800123237010BD800000200000000088
:1004D0001421000008B5034B1BB103490348AFF3D7
:1004E000008008BD000000008400002014210000EE
:1004F000054B890003EA401300F0704018430123C4
:1005000001F1007143507047E0FFFF01054B890086
:1005100003EA401300F070401843002301F100711A
:1005200043507047E0FFFF01054B890003EA401389
:1005300000F07040184301F100714058C0B270479C
:10054000E0FFFF012DE9F0416C4E0446B0420F463A
:10055000904600F0BF806A4B984200D000BE694BC5
:100560004FF4006123600B232371674B9A6C42F4B4
:1005700080729A64654AC2F880119A6C22F4807283
:10058000002520689A640121057100F8085FFFF7D3
:10059000AFFF206802210830FFF7AAFF2068294634
:1005A0000830FFF7A5FF206804211030FFF7AEFFE9
:1005B000206805211030FFF7A9FF206801213430A1
:1005C000FFF7A4FF206829463430FFF79FFF20681B
:1005D00001213830FFF79AFF206805213030FFF7FE
:1005E00095FF206806213030FFF790FF2068072133
:1005F0003030FFF78BFF206803213830FFF786FF8C
:100600002368B44283F8445083F8485083F84C5030
:1006100019D03B4B9C4216D000BE236883F80C8057
:100620000023A760C4E90433C4E90833C4E90A33EA
:10063000C4E90C33C4E90E3384F80C80A361E36190
:100640006373BDE8F081A76000F084FCB4420CBF86
:100650002F4B304B1D68ED00B5FBF7F5B5F5000FDE
:10066000DAD22068FF2D4FEAD51600F10C00C5F351
:10067000C71210D80721FFF73BFF0023206807218E
:10068000037100F80C2BFFF741FF20680721303081
:10069000FFF73CFFC1E7B60105F07F030721C6EB7A
:1006A00055069E1BFFF724FF2068C5F3C73505716B
:1006B000072100F80C2BFFF729FF206807213030B5
:1006C000FFF716FFFF2E00D900BE2368F6B283F8AD
:1006D0003C60A2E74FF0804303600A234FF480613F
:1006E0000371094B9A6C42F080029A64074AC2F87F
:1006F00080119A6C22F0800242E700BF3001002096
:10070000F0000020000001400080034000E100E014
:10071000100000201400002010B504460068037A81
:1007200003F00F030C2B5FD8DFE803F0075E112006
:10073000165E1B5E5E5E5E5E1600A36A03B900BEB7
:10074000A36A002B51D02046BDE810401847636AC9
:1007500003B900BE636AF4E7236A03B900BE236AE3
:10076000EFE7E36903B900BEE369EAE70021283057
:10077000FFF7DAFE30B1E36A03B900BEE36A0BB1FA
:1007800020469847206801212830FFF7CDFE30B180
:10079000236B03B900BE236B0BB12046984720683A
:1007A00002212830FFF7C0FE30B1636B03B900BEF1
:1007B000636B0BB120469847206803212830FFF770
:1007C000B3FE30B1A36B03B900BEA36B0BB12046DF
:1007D0009847206804212830FFF7A6FE28B1E36B74
:1007E00003B900BEE36BACE700BE10BD1C4BF0B418
:1007F000984203D01B4A904200D000BE026902B961
:1008000000BE426902B900BE984202D0154B984220
:1008100023D106690EB34169F9B10468437B227D97
:1008200013434373930609D48369994215D1002376
:1008300001214361201DF0BCFFF768BE83690025DC
:10084000CB1A102B28BF10239D428269ECD0B75CD5
:100850000132277001358261F6E7F0BC704700BFB6
:1008600030010020F00000200E4B10B598420446E5
:1008700003D00D4B984200D000BE2046FFF762FE29
:10088000206803213030FFF741FE20680221343018
:10089000FFF73CFE206800213830FFF737FE034B9E
:1008A000636210BD30010020F0000020ED07000061
:1008B000154BF0B5984203D0144CA04200D000BEB6
:1008C00001B900BE02B900BE984202D00F4B984257
:1008D00018D1B9B1B2B100250668437B347D2343FA
:1008E000A406FBD50F2A437394BF134610234C195B
:1008F000E71814F801CBBC4286F800C0F9D1D21A2F
:100900001D44EAD1F0BD00BF30010020F0000020FE
:10091000104B70B5984219D00F4B984200D000BED2
:10092000B1B1984215D100230A7892B10568447B91
:100930002E7D3443B606FBD5447303F110042A70B0
:100940000133CA5C2AB1A342F9D1EEE70029EAD10A
:1009500000BE70BD30010020F000002003461046AC
:10096000164A70B5934203D0154CA34200D000BE86
:1009700001B900BE00B900BE934202D0104A9342B2
:1009800018D1B9B150B11A685C7B127DD5B222433F
:100990005A730022EC070FD5824200D170BD1C684B
:1009A00024788C541C685E7B247D0132E5B234438C
:1009B0005C73EFE70020F1E71046EFE7300100201D
:1009C000F0000020684620F007018D4601B503487D
:1009D000FFF7A2FEBDE801408546704730010020C8
:1009E000684620F007018D4601B50348FFF794FEE5
:1009F000BDE8014085467047F000002010B5064C68
:100A00000146236833B1054A106898470023044A19
:100A10002360137010BD00BFA4000020B4000020AC
:100A2000C10000200C4B13B50246186820F00400EA
:100A30001860586800F0010001900020019C0CB182
:100A4000884201D102B010BD145C01301C615C68A9
:100A500004F001040194F1E700600140024B1A68C0
:100A60000AB11B68184770479C00002008B5084B66
:100A70001B7863B1074B188880B2FFF7BFFF064BA6
:100A80001A6842F001021A601A68D207FCD408BD45
:100A9000C1000020BC00002000600140F8B57B4B85
:100AA0005D689A68EDB21540AA076FD5784C1B694E
:100AB0002278D8B2052A00F28B80DFE802F00365C5
:100AC000651C2F5E1B0461D5F12802D0FFF7C6FF1D
:100AD0005CE000266F4B704A1E8011681A8892B243
:100AE00088541A88013292B21A801B889BB2CE5465
:100AF000042323704AE01F0448D5684B1B789842B2
:100B0000E4D10023634A64491380138809689BB2C7
:100B1000C854138801339BB21380E9E71E04D5D46F
:100B20005C4E5D4B3288196892B20A4412F8013C5F
:100B3000F12B33460BD133889BB2C85433889BB218
:100B40000B4413F8010CFFF789FF0023D1E732882B
:100B5000534E92B23688B24206D21A8892B2885464
:100B60001A88013292B21A801A8892B296420DD136
:100B7000188880B2FFF742FFE7E71904A6D4464B76
:100B80001B6858700220F5E71A049FD4EB071ED5A6
:100B90003F4C23782546022B24D0052B40D0012B37
:100BA0006AD1404D2B889BB2002B34D03E4F298810
:100BB0003E6889B23046FFF735FF2B889BB29842DA
:100BC00008D22B881B1A9BB230442B803860F8BDAA
:100BD0000020CFE700232B80344B1B68CBB10223CE
:100BE0002370F4E7314D2B68ABB1314E2968306882
:100BF000FFF718FF2B68984206D22B681B1A2B6050
:100C0000336818443060E2E7204A936823F0010318
:100C100093600323E4E700BEBDE8F840FFF726BF7A
:100C2000224C236873B9234B1B68ABB1204898470B
:100C30002060236833B9154A936823F00103936059
:100C400003232B7023685BB9104A936823F00103D8
:100C5000936003232B70BAE700BEFFF707FFF1E7AD
:100C6000134D21682868FFF7DDFE23681B1A2360F7
:100C70002B6818442860AAE7044A0020936823F0F0
:100C800001039360FFF7BAFE0023A9E7006001406B
:100C9000C0000020BC000020B4000020A000002004
:100CA000BE000020A2000020AC000020A800002010
:100CB000B0000020B800002070B5224C224E2568FC
:100CC0004FF420746C4304F1844404F52014C4F8F8
:100CD000C43114236B4303F1402404F58034606075
:100CE0003344A160DC68B2F5803F4FEA14444FEA18
:100CF0000444DC60154C1DD9A2F5803201F5803129
:100D000000F580302261E160A060142303FB0563DD
:100D1000DA6842F4E002DA604FF4207301226B4398
:100D200003F1844303F52013C3F8C0210022C3F864
:100D3000CC2170BDD96892B20A43DA6000232361E6
:100D4000E3E700BFC800002000400140CC000020C5
:100D5000684620F007018D4619B50124214A224B2F
:100D6000116801F5287043F8204014234B4303F128
:100D7000402303F58033D868032920F4E000D860CD
:100D8000134608BF002201EB0400184914BF10608D
:100D90001A600A6908467AB115490B68042B0CBF22
:100DA000002301330B60037DC1688068FFF784FF77
:100DB000BDE819408546704714221868424302F185
:100DC000402202F58032D26812F4E002F0D1012014
:100DD0001A60074B08701A604B68002BE8D09847E0
:100DE000E6E700BFC400002000002842CC0000203D
:100DF000C8000020684620F007018D4619B5244B35
:100E00001B6813F4706F22D04FF42073214C2168BB
:100E10004B4303F1844303F52013D3F808322BB17D
:100E200002201D4B18705B6803B198474FF4207384
:100E30002268534303F1844303F52013D3F80C32A3
:100E40002BB10320144B18705B6803B19847104B0B
:100E50001B6813F4704F05D004200F4B18705B68AB
:100E600003B1984701220D4BC3F8C821C3F8802A6B
:100E7000C3F84824C3F8842AC3F8C826C3F8882ACC
:100E8000C3F84829C3F88C2ABDE819408546704745
:100E900000400140C4000020CC0000200000284297
:100EA0000A4A0346116809B9094911601068EFF34D
:100EB00008818842034402D2994204D2FEE70549E0
:100EC0008B4200D9FEE71360704700BFE4000020AA
:100ED000A001002000F00020074B084A1860084BD2
:100EE0001860084B1860084B1A60084B1860084BD4
:100EF0001860084B186070470000002040787D01A2
:100F00001000002014000020180000200400002021
:100F1000080000200C0000204FF602020B4BD3F813
:100F20004C1191420BD1D3F8982042F48072C3F84F
:100F30009820D3F8982022F08062C3F89820044AC1
:100F4000536943F400735361FFF774BA00800340A0
:100F500000ED00E01D4B82B0D3F8982051012BD456
:100F6000D3F89820D20411D4194B1A4A1A491360A5
:100F70001A4A13601A4A13601A4A11601A4A136017
:100F80001A4A13601A4A136002B070476A46194938
:100F90000868496803C2D3F89C2002A9C2F38212F0
:100FA0000A4412F8082C3AB1012A0CBF4FF4004051
:100FB000114802B0FFF790BFD3F85031064813F044
:100FC000040F0E4B18BF1846F3E700BF0080034024
:100FD00000E1F5050000002040787D0110000020B0
:100FE0001400002018000020040000200800002049
:100FF0000C0000204C1D000040420F0080F0FA025F
:101000002DE9F04F85B00393DDE90E399A4206468B
:101010008846154608D024492448FFF779FC002467
:10102000204605B0BDE8F08F09FB01F0800000F01C
:10103000BFF9044668B100200146AB0002934FEAB5
:101040008903009601934145EADA002204EB800609
:1010500011E017491548FFF75BFCE1E700274FF067
:10106000000C46F8047B039FDDF800B007EB820E0E
:10107000AC4509DB01324A45F0DB009B029A0131A5
:10108000134400934844DEE7DEF800705BF8043B4D
:10109000BA4656F8047C0CF1010C0AFB037746F8BB
:1010A000047C019FBE44E3E7541D00003001002092
:1010B0009B1D00002DE9F74F002488461546274662
:1010C000DFF850B0DFF85090DFF850A000904745AF
:1010D0001ADA009B002603EB84030CE053F8042B80
:1010E00059464846019300F037FA49465046FFF703
:1010F0000FFC019B0136AE42F0DB50460449FFF77E
:1011000007FC01372C44E2E703B0BDE8F08F00BFD5
:10111000DD1F0000BE1D0000700100203001002016
:10112000F0B5002385B001AD0A242F46CDE9013387
:101130000F4EADF80C30012269463046FFF70EFC29
:1011400010F0FF0FF7D09DF800300D2B0AD00122D0
:1011500069463046013C05F8013BFFF7A9FB14F056
:10116000FF04E8D1384600F0FBF805B0F0BD00BF41
:101170003001002000232DE9F04F0322ADF54F7D13
:101180004FF4165168488DF81730FFF76DFBDFF804
:10119000988140466549FFF7BBFB012240460DF1AF
:1011A0001701FFF7DBFB10F0FF0FF6D040460DF103
:1011B0001701FFF7ADFB9DF81730313B032B00F211
:1011C000AB8001A252F823F0D91100009311000066
:1011D000BD120000EB12000055495348FFF798FB81
:1011E000FFF79EFF534906464F48FFF791FBFFF775
:1011F00097FF514905464C48FFF78AFBFFF790FFE0
:101200004E4907464848FFF783FBFFF789FF4C49E3
:1012100004464548FFF77CFB4FF00009DFF83CA18E
:10122000DFF804B15FFA89F2B2421CDA05FB02F87A
:1012300006AB03EB8808002310E042495046CDE995
:10124000022300F089F951465846FFF761FBFFF78A
:1012500067FF039B029A48F8040B0133AB42ECD1C1
:1012600009F10109DEE736492F48FFF751FB4FF03E
:101270000009DFF8E8A0DFF8B0B05FFA89F2BA42FF
:1012800085DA02FB04F86AAB03EB8808002310E060
:101290002D495046CDE9022300F05EF951465846EB
:1012A000FFF736FBFFF73CFF039B029A48F8040B5D
:1012B00001339C42ECD109F10109DEE723491A48C8
:1012C000FFF726FB2A46314606A8FFF7F3FE204922
:1012D0001548FFF71DFB394622466AA8FFF7EAFECC
:1012E00017491148FFF714FB51E72A463146CDE96B
:1012F00000746AAB06A8FFF783FE804670B11549FB
:101300000948FFF705FB404622463146FFF7D2FE6B
:10131000404600F055F83AE70F49E2E701200DF5A5
:101320004F7DBDE8F08F00BF30010020C31D0000DD
:101330008C1E0000AB1E0000CD1E0000EC1E000045
:101340000E1F0000401F00005E1F00007C1F0000F9
:101350008B1F00009A1F0000B21F000070010020C8
:101360000A22002100F092B970B500260C4D0D4CF8
:10137000641BA410A64209D100F0CCFE00260A4D41
:101380000A4C641BA410A64205D170BD55F8043B5D
:1013900098470136EEE755F8043B98470136F2E7E7
:1013A0002C2100002C2100002C2100003021000005
:1013B000024B0146186800F065B800BF1C00002011
:1013C000024B0146186800F011B800BF1C00002055
:1013D0000A44914200F1FF3300D1704710B511F873
:1013E000014B914203F8014FF9D110BD38B50546C4
:1013F000002943D051F8043C0C1F002BB8BFE4185F
:1014000000F04EF91E4A1368104633B96360146049
:101410002846BDE8384000F049B9A3420AD92168FE
:101420006218934201BF1A685B68521822606360B9
:101430000460EDE71A465B680BB1A342FAD9116864
:101440005018A0420BD1206801445018834211600B
:10145000DED118685B68014411605360D8E702D997
:101460000C232B60D4E7206821188B4201BF196838
:101470005B680918216063605460C9E738BD00BF2C
:10148000E8000020F8B5CD1C25F0030508350C2D2B
:1014900038BF0C25002D064601DBA94203D90C23D9
:1014A00033600020F8BD00F0FBF821490A681446BB
:1014B0009CB9204F3B6823B92146304600F03CF8E8
:1014C00038602946304600F037F8431C23D10C23FE
:1014D0003046336000F0EAF8E3E723685B1B17D47B
:1014E0000B2B03D923601C44256004E06368A242EF
:1014F0000CBF0B605360304600F0D8F804F10B00CD
:10150000231D20F00700C21ACCD01B1AA350C9E734
:1015100022466468CCE7C41C24F00304A042E3D054
:10152000211A304600F008F80130DDD1CFE700BFC6
:10153000E8000020EC00002038B50023054D0446EB
:1015400008462B60FFF7ACFC431C02D12B6803B1AB
:10155000236038BD900100200EB46FF0004100B54B
:101560009CB01DAB02900690079104910848094970
:1015700053F8042B0591006802A9019300F0F8F8D4
:101580000022029B1A701CB05DF804EB03B0704798
:101590001C0000200802FFFF2DE9F0478C4686461C
:1015A000394E60461CF8014BA55D15F00805F8D1D1
:1015B0002D2C33D14FF001089CF8004000F1020CB3
:1015C000002B5CD0102B0CD1302C0AD19CF80000E1
:1015D00000F0DF0058284DD110239CF801400CF199
:1015E000020C002608F10047013FB7FBF3F9304633
:1015F00003FB197AA4F13005092D18D82C46A34213
:1016000024DD751C07D081451DD301D1A2451ADB0D
:10161000012600FB03401CF8014BEBE72B2C08BF15
:101620009CF80040A84608BF00F1020CC8E7A4F1EE
:101630004105192D01D8373CE1E7A4F16105192DC9
:1016400004D8573CDBE74FF0FF36E4E7731C06D1C4
:1016500022233846CEF8003042B9BDE8F087B8F111
:10166000000F00D04042002AF7D00EB10CF1FF313C
:101670001160F2E73024002BB3D10823B1E7302CFE
:10168000A4D00A23ADE700BFE11F000013460A46BD
:10169000014602480068FFF77FBF00BF1C00002022
:1016A000014800F0FBBA00BF98010020014800F09B
:1016B000F6BA00BF980100202DE9F0478E688246F7
:1016C0009E420C4690461F4638D88A8912F4906F85
:1016D00032D0256809690133A5EB010965694B44DE
:1016E00005EB450505EBD5756D109D4238BF1D46D0
:1016F000530531D52946FFF7C5FE064650B90C23E0
:101700004FF0FF30CAF80030A38943F04003A381B3
:10171000BDE8F0874A462169FFF75AFEA38923F402
:10172000906343F08003A38126614E4426603E46C9
:101730006561A5EB0905A560BE4200D93E4632466B
:101740004146206800F0BAFAA36822689B1B324425
:101750000020A3602260DBE72A4600F0C9FA0646B3
:101760000028E1D150462169FFF740FEC7E700009D
:101770002DE9F04F98468B8907461B060D46144607
:101780009DB00ED50B6963B94021FFF77BFE286041
:10179000286120B90C233B604FF0FF30D1E040239B
:1017A0006B610023099320238DF8293030234FF0FB
:1017B0000109CDF80C80DFF8A4818DF82A3023468A
:1017C0009A4613F8012B0AB1252AF9D1BAEB040B7A
:1017D0000BD05B46224629463846FFF76DFF0130A5
:1017E00000F0AA80099A5A4409929AF80030002B16
:1017F00000F0A28000234FF0FF32CDE905230AF16B
:10180000010A049307938DF853301A935446052226
:1018100014F8011B514800F043FA049AD8B9D006D5
:1018200044BF20238DF85330110744BF2B238DF87C
:1018300053309AF800302A2B15D0544600204FF030
:101840000A0C079A214611F8013B303B092B4ED96F
:10185000B0B1079214E0A0EB080309FA03F31343B5
:10186000A2460493D2E7039B191D1B680391002B2A
:10187000BBBF5B4242F0020207930793B8BF0492DA
:1018800023782E2B0CD163782A2B35D1039B02347D
:101890001A1D1B680392002BB8BF4FF0FF3305934E
:1018A000DFF8C8A003225046217800F0F9F940B1D2
:1018B0004023A0EB0A0003FA00F0049B0134034329
:1018C000049314F8011B062225488DF8281000F017
:1018D000E7F9002838D0234B1BBB039B073323F0C9
:1018E000070308330393099B3344099367E70C46C6
:1018F00001200CFB0232A5E700234FF00A0C194629
:1019000001340593204610F8012B303A092A03D9F7
:10191000002BC5D00591C3E7044601230CFB012130
:10192000F0E703AB00932A4638460F4B04A9AFF308
:101930000080421C0646D6D1AB895B063FF52CAF32
:1019400009981DB0BDE8F08F03AB00932A463846D6
:10195000054B04A900F07CF8EBE700BFE120000094
:10196000EB20000000000000B9160000E720000096
:101970002DE9F047164699468A680B690746934257
:10198000B8BF1346336091F843200C46DDF8208041
:101990000AB1013333602368990642BF33680233CA
:1019A0003360256815F0060506D104F1190AE368CD
:1019B00032689B1AAB4228DC94F84320131E22683D
:1019C00018BF012392062DD44946384604F143023C
:1019D000C047013020D02368E56803F00603042BDC
:1019E00018BF002532684FF00006A36808BFAD1A83
:1019F000226908BF25EAE5759342C4BF9B1AED181A
:101A00001A34B5421AD1002008E001235246494653
:101A10003846C047013003D14FF0FF30BDE8F087B2
:101A20000135C4E73020E11881F843005A1C94F8CE
:101A300045102244023382F84310C5E701232246B1
:101A400049463846C0470130E6D00136D9E70000A4
:101A50002DE9FF470C46277E9146782F80469A460F
:101A60000C9904F1430207D8622F0AD8002F00F026
:101A7000D980582F00F0A48004F1420684F8427007
:101A80003AE0A7F16303152BF6D801A050F823F034
:101A9000E91A0000FD1A0000791A0000791A000006
:101AA000791A0000791A0000FD1A0000791A000066
:101AB000791A0000791A0000791A00000B1C000046
:101AC0002D1B0000ED1B0000791A0000791A0000A0
:101AD0002D1C0000791A00002D1B0000791A00004F
:101AE000791A0000F51B00000B6804F142061A1D6C
:101AF0001B680A6084F842300123A4E02568086866
:101B00002E0600F104030AD505680B60002D03DAE8
:101B10002D236D4284F843300A235E4819E015F006
:101B2000400F05680B6018BF2DB2EFE70B68256802
:101B3000181D0860280601D51D6802E06906FBD55E
:101B40001D886F2F0CBF08230A235248002184F8F8
:101B500043106668002EA8BF2168A660A4BF21F0CC
:101B6000040121600DB9002E4DD01646B5FBF3F1EE
:101B700003FB1157C75D06F8017D2F46BB420D469A
:101B8000F4D9082B0BD12368DF0708D523696168D6
:101B90009942DEBF302306F8013C06F1FF36921B66
:101BA00022614B4621464046CDF800A003AAFFF72C
:101BB000DFFE01304CD14FF0FF3004B0BDE8F087BC
:101BC000344884F845700E68236856F8045B1F0695
:101BD0000E6014D5D90744BF43F0200323601DB91C
:101BE000236823F0200323601023AFE7236843F02A
:101BF000200323607823284884F84530E3E75E0615
:101C000048BFADB2E6E71646BBE70B6826681D1D68
:101C100060690D6035061B6801D5186002E0710629
:101C2000FBD51880002316462361BAE70B681A1DFE
:101C30000A601E6800213046626800F031F808B181
:101C4000801B606063682361002384F84330A8E749
:101C50003246494640462369D0470130ABD023681D
:101C60009B0713D4E068039B9842B8BF1846A4E7CB
:101C70000123324649464046D04701309BD00135CA
:101C8000E36803995B1AAB42F2DCEBE7002504F151
:101C90001906F5E7F22000000321000070477047A5
:101CA000034610B5C9B202449342184601D1002040
:101CB00003E0047801338C42F6D110BD884210B5A0
:101CC00001EB020402D98442234607D8431EA142F5
:101CD00008D011F8012B03F8012FF8E70146024460
:101CE0008A4200D110BD13F8014D02F8014DF7E70B
:101CF000F8B5074614460E4621B91146BDE8F8402E
:101D0000FFF7C0BB22B9FFF771FB25462846F8BD97
:101D100000F014F8A0420FD221463846FFF7B2FB7C
:101D200005460028F2D031462246FFF751FB3146E6
:101D30003846FFF75BFBE9E73546E7E751F8043C37
:101D4000181F002BBCBF0B58C018704700010001C2
:101D5000020203034E6F2073652070756564656E23
:101D6000206D756C7469706C69636172206C61734D
:101D7000206D617472696365732E204C61732064F9
:101D8000696D656E73696F6E6573206E6F20636F2A
:101D9000696E636964656E2E0A0D00204572726F6C
:101DA0007220646520617369676E616369F36E20F8
:101DB0006465206D656D6F726961200A0D002534C0
:101DC0006420000A0D20092A2A2A2A2A2A2A2A2AD5
:101DD0002A2A2A2A2A2A2A2A2A2A2A2A2A2A2A2A63
:101DE0002A2A2A2A2A2A2A2A2A2A2A2A2A2A2A2A53
:101DF0002A2A200A0D20090909204D41545249433D
:101E000045530A0D2009312E2044696D656E7369B2
:101E10006F6E6573206465204D61747269636573CC
:101E200020200A0D2009322E204564697461722039
:101E30004D61747269636573200A0D2009332E2089
:101E40004D6174726963657320416C6D6163656E89
:101E500061646173200A0D2009342E204D756C7465
:101E600069706C69636163696F6E204D617472693A
:101E7000636573200A0D20094573636F6A612075DD
:101E80006E61206F7063696F6E3A20000A0D204EFC
:101E9000756D65726F2064652046696C61732028DA
:101EA0004D617472697A2041293A000A0D204E75FD
:101EB0006D65726F20646520436F6C756D6E617324
:101EC00020284D617472697A2041293A000A0D2058
:101ED0004E756D65726F2064652046696C61732074
:101EE000284D617472697A2042293A000A0D204E09
:101EF000756D65726F20646520436F6C756D6E61E2
:101F00007320284D617472697A2042293A000A0DC3
:101F1000202A2A2A2A2A2A2A2A2A2A2A2A2A2A2A2B
:101F20002A2A2A2A2A2A2A2A2A2A2A2A2A2A2A2A11
:101F30002A2A2A2A2A2A2A2A2A2A2A2A200A0D0072
:101F40000A0D20456C656D656E746F204D6174726D
:101F5000697A2041202825642C2564293A000A0D3D
:101F600020456C656D656E746F204D617472697A81
:101F70002042202825642C2564293A000A0D204D92
:101F8000617472697A2041200A0D000A0D204D61AA
:101F90007472697A2042200A0D000A0A0D204D61F0
:101FA0007472697A20726573756C7461646F3A0A31
:101FB0000D000A0D204F7063696F6E20496E636FCC
:101FC0007272656374612C205675656C61206120A6
:101FD00053656C656363696F6E617221200A0D0041
:101FE00000202020202020202020282828282820E9
:101FF00020202020202020202020202020202020E1
:102000002088101010101010101010101010101048
:102010001004040404040404040404101010101038
:102020001010414141414141010101010101010102
:102030000101010101010101010101011010101054
:1020400010104242424242420202020202020202D4
:102050000202020202020202020202021010101028
:102060002000000000000000000000000000000050
:102070000000000000000000000000000000000060
:102080000000000000000000000000000000000050
:102090000000000000000000000000000000000040
:1020A0000000000000000000000000000000000030
:1020B0000000000000000000000000000000000020
:1020C0000000000000000000000000000000000010
:1020D0000000000000000000000000000000000000
:1020E00000232D302B2000686C4C00656667454648
:1020F0004700303132333435363738394142434482
:102100004546003031323334353637383961626311
:1021100064656600F8B500BFF8BC08BC9E46704711
:10212000F8B500BFF8BC08BC9E467047D504000057
:10213000B1040000000000000000000000000000EA
:1021400000E1F50500E1F50500E1F50500E1F50523
:1021500000E1F50500E1F50540787D012000002053
:10216000000000000000000000000000000000006F
:10217000000000000000000000000000000000005F
:10218000000000000000000000000000000000004F
:10219000000000000000000000000000000000003F
:1021A000000000000000000000000000000000002F
:1021B000000000000000000000000000000000001F
:040000030000019167
:00000001FF
