:1000000000000120910100007F0300008103000037
:100010008303000085030000870300000000000048
:100020000000000000000000000000008903000044
:100030008B030000000000008D0300008F03000010
:100040009103000093030000950300009703000054
:10005000990300009B0300009D0300009F03000024
:10006000A1030000A3030000790A0000950A000024
:10007000A9030000AB030000AD030000AF030000C4
:10008000B1030000B3030000B5030000590B0000EA
:10009000B9030000BB030000BD030000BF03000064
:1000A000C1030000C3030000C5030000210E0000CF
:1000B000B90E0000CB030000CD030000CF03000009
:1000C000D1030000D3030000D5030000D7030000D4
:1000D000D9030000DB030000DD030000DF030000A4
:1000E000E1030000E3030000E5030000E703000074
:1000F000E9030000EB030000ED030000EF03000044
:10010000F1030000F3030000F5030000F703000013
:10011000F9030000FB030000FD030000FF030000E3
:1001200001040000030400000504000007040000AF
:10013000090400000B0400000D0400000F0400007F
:10014000110400001304000015040000170400004F
:10015000190400001B0400001D0400001F0400001F
:1001600021040000230400002504000027040000EF
:10017000290400002B0400002D0400002F040000BF
:100180003104000033040000000000000000000003
:100190004FF0000BDFF8BE020068DFF8B612096806
:1001A00001F0030100F01C00142801D14BF0020BF8
:1001B000002901D04BF0010BBBF1000F05D0A7487F
:1001C000A749DFF8722200F09FF8A64880470BF09D
:1001D000020ABAF1000F0CD0DFF86E02DFF86E12DF
:1001E00002680B680FB44FF000024FF0FF0302608B
:1001F0000B609D489D4A9E4B022808D1DFF83E12B5
:100200000A60DFF842120A60DFF836120B6001283C
:1002100008D1DFF82E120A60DFF82A120A60DFF830
:100220001E120B609348002809D193489349944AC1
:1002300000F032F893489449944A00F02DF894481D
:100240009449954A00F028F894489549DFF8E6214A
:1002500000F05AF8BBF1000F12D092489249DFF833
:10026000DA2100F051F80BF0020ABAF1000F07D0C2
:100270000FBC02600B6000BFAFF30080AFF30080E3
:10028000DFF828020FF2030E00474FF000004FF096
:100290000001DFF81CF2FEE72DE9F841884225D085
:1002A000B2EB010200D5FEE740EA010313F00303BD
:1002B00002D000F01DF819E04FF000039046121133
:1002C000F7D09A421CBFF0C8F0C103F10103F8D186
:1002D00008F00F08B8F1000F08D004780C7000F196
:1002E000010001F10101B8F10108F6D1BDE8F88182
:1002F00008B54FF0000303780B7000F1010001F125
:100300000101013AF7D108BD884237D000F0030659
:10031000002E14D04FF00405A5EB06044FF008079B
:1003200007FB06F8914669FA08F9002C07D080F817
:10033000009069FA07F900F10100013CF5E74FF080
:1003400000060F46091A88460911914614461546BB
:10035000B14206D018BFA0E8340206F10106B1424E
:10036000F8D108F00F08B8F1000F07D002704FEA7B
:10037000322200F10100B8F10108F4E77047FEE70E
:10038000FEE7FEE7FEE7FEE7FEE7FEE7FEE7FEE745
:10039000FEE7FEE7FEE7FEE7FEE7FEE7FEE7FEE735
:1003A000FEE7FEE7FEE7FEE7FEE7FEE7FEE7FEE725
:1003B000FEE7FEE7FEE7FEE7FEE7FEE7FEE7FEE715
:1003C000FEE7FEE7FEE7FEE7FEE7FEE7FEE7FEE705
:1003D000FEE7FEE7FEE7FEE7FEE7FEE7FEE7FEE7F5
:1003E000FEE7FEE7FEE7FEE7FEE7FEE7FEE7FEE7E5
:1003F000FEE7FEE7FEE7FEE7FEE7FEE7FEE7FEE7D5
:10040000FEE7FEE7FEE7FEE7FEE7FEE7FEE7FEE7C4
:10041000FEE7FEE7FEE7FEE7FEE7FEE7FEE7FEE7B4
:10042000FEE7FEE7FEE7FEE7FEE7FEE7FEE7FEE7A4
:10043000FEE7FEE7704700000000A2A2A2A2008033
:100440000340088003401080034030800340348024
:1004500003403880034018080240000000F00020EC
:1004600000000120E10F000000000000000000007B
:10047000010000000000000000000000000000007B
:1004800090010000C0040000C004000060220000D1
:10049000602200000000002090000020900000205A
:1004A000900100209001002000F00020DD130000EA
:1004B000F512000000000000000000000000000035
:1004C00010B5054C237833B9044B13B10448AFF38E
:1004D00000800123237010BD900000200000000068
:1004E00040220000084B10B51BB108480849AFF383
:1004F00000800848036803B910BD074B002BFBD0F0
:10050000BDE81040184700BF000000004022000076
:1005100094000020000000200000000030B50024FE
:1005200085B0134D0DF103012868012200F06EFA29
:1005300010F0FF0FF5D0286801220DF1030100F043
:1005400009FA9DF8032001A822540D2A04F10104A0
:10055000E3B202D0092CE4D1234604AAD418002126
:100560000A2204F80C1C01F0A3F805B030BD00BF4E
:10057000B01E00000FB407B504AA52F8041B684669
:10058000019201F0BFF8431C024607D0064B0099C8
:10059000186800F0DFF9009800F046FF03B05DF83E
:1005A00004EB04B0704700BFB01E000000F07043C1
:1005B00003EB8101C0F3130001F10071400101233D
:1005C0000B50704700F0704303EB8101C0F3130040
:1005D00001F10071400100230B50704700F070439F
:1005E00003EB8101C0F3130001F1007140010858D1
:1005F000C0B270471E4B30B598421A4603D01D4B0F
:10060000984200D000BE016901B900BE436903B938
:1006100000BE904202D0174A904228D139B333B37A
:100620000268417B127DD2B21143920641730CD411
:10063000826943699A421AD1BDE830400023436180
:10064000006801210430FFF7BDBF82699B1A102B9F
:1006500028BF102300229A42EAD084690569016804
:100660002C5D01320C70816901318161F3E730BD8D
:10067000480100200801002010B504460068037AF4
:1006800003F00F030C2B4BD8DFE803F0074A090FE8
:100690000B4A0D4A4A4A4A4A0B00A36A3BE0636A86
:1006A00039E0236A37E0E36935E028300021FFF7BD
:1006B00095FF28B1E36A0BB900BE01E020469847D8
:1006C000206801212830FFF789FF28B1236B0BB97F
:1006D00000BE01E020469847206802212830FFF73D
:1006E0007DFF28B1636B0BB900BE01E0204698473F
:1006F000206803212830FFF771FF28B1A36B0BB9E5
:1007000000BE01E020469847206804212830FFF70A
:1007100065FF30B1E36B1BB12046BDE810401847C0
:1007200000BE10BD2DE9F843714B0446984298462F
:100730000E4617466F4B04D06F4A904213D000BE4E
:1007400011E04FF0804202600A2202719A6C4FF46D
:10075000806142F080029A64684AC2F880119A6C03
:1007600022F080020FE0664A4FF4006122600B2203
:1007700022719A6C42F480729A64604AC2F88011C5
:100780009A6C22F480729A64236800251D71236894
:1007900001211D7220680830FFF708FF2068022140
:1007A0000830FFF703FF206829460830FFF7FEFEF8
:1007B000206804211030FFF705FF20680521103064
:1007C000FFF700FF206801213430FFF7FBFE2068AF
:1007D00029463430FFF7F6FE206801213830FFF754
:1007E000F1FE206805213030FFF7ECFE206806217D
:1007F0003030FFF7E7FE206807213030FFF7E2FED8
:10080000206803213830FFF7DDFE2368444583F874
:100810004450236883F84850236883F84C5002D032
:10082000354B9C4211D1A66000F05CFC44450CBFE6
:10083000344B354B1B68DB00B3FBF6F94FEAD91399
:10084000B3F5803F4FEA590501D300BE3CE0012BD0
:1008500020685FFA83F823D9A5EB8315A5EBC313B2
:100860004B440C300721A3EB4505FFF79FFE2268A0
:10087000C9F3C73313712368072183F80080206808
:100880000C30FFF79FFE206807213030FFF78EFE07
:10089000FF2D00D900BE2368EDB283F83C5013E071
:1008A0000C300721FFF782FE236800221A712368AB
:1008B000072183F8008020680C30FFF783FE206852
:1008C00007213030FFF77EFE23681F730023277354
:1008D0006373A66063612361A36123626362E36162
:1008E000A362E36223636363A363E363BDE8F88306
:1008F00048010020008003400801002000E100E0E2
:100900000000014014000020180000200E4B10B51C
:100910009842044603D00D4B984200D000BE2046BA
:10092000FFF700FF206803213030FFF74BFE2068FF
:1009300002213430FFF746FE206800213830FFF7EF
:1009400041FE034B636210BD4801002008010020F6
:10095000F5050000174BF0B5984203D0164CA042A5
:1009600000D000BE01B900BE02B900BE984202D05C
:10097000114B98421DD1E1B1DAB100240368457BE7
:100980001B7DDBB21D4345739D06F7D50F2A01EB96
:10099000040698BF1346354688BF1023076815F82C
:1009A00001EB87F800E0AF1B9F42F7D3D21A1C443B
:1009B000E4D1F0BD4801002008010020114B70B5C2
:1009C000984205D0104B984202D000BEC1B900E059
:1009D00009B900BE70BD0A7800238AB10668347D6B
:1009E000457BE4B22543A4064573F8D503F1100412
:1009F000056801332A70CA5C12B1A342F8D1ECE752
:100A000070BD00BF480100200801002003461848BF
:100A100030B5834203D0174CA34200D000BE01B9C9
:100A200000BE02B900BE834202D01248834217D1F1
:100A3000C1B1D2B11868047D587BE4B22043587329
:100A40000020E40710D590420FD01C6824780C5485
:100A50001C685D7B247D0130E4B225435D73F0E7C3
:100A6000002202E00A4600E00246104630BD00BF08
:100A70004801002008010020684620F007018D464B
:100A800001B50348FFF7F8FDBDE801408546704712
:100A900048010020684620F007018D4601B5034853
:100AA000FFF7EAFDBDE801408546704708010020D8
:100AB00010B5064C0146236833B1054A10689847C3
:100AC000044A00232360137010BD00BFC80000203B
:100AD000D4000020B80000200E4B13B51A6822F095
:100AE00004021A605B6803F0010301930023019A7A
:100AF0000AB919460AE08B4208D0C45C054A0133A2
:100B00001461526802F001020192F0E7084602B057
:100B100010BD00BF00600140024B1A680AB11B689B
:100B200018477047BC00002008B5084B1B7863B11C
:100B3000074B188880B2FFF7BBFF064B1A6842F0DC
:100B400001021A601A68D207FCD408BDB800002060
:100B5000CC00002000600140F8B57E4B5E68F2B228
:100B60009E681640B20776D518697B4D20F4FF4485
:100B70002B7824F07F04A4B2C0B2052B66D8DFE83E
:100B800003F0036161172B58002C64D0F1285AD16F
:100B9000724B0024724A1C8011681A8892B28854E1
:100BA0001A88013292B21A801B889BB2CC5411E091
:100BB000002C50D06B4B1B78984244D1674A0023DD
:100BC00013806749138809689BB2C854138801339E
:100BD0009BB2138004233DE0002C34D15F4F604B67
:100BE0003A88196892B20A4412F8013CF12B3B464C
:100BF0000AD13B889BB2C8543B889BB20B4413F884
:100C0000010CFFF789FF1BE0574C3A88248892B209
:100C1000A24206D23A8892B288543A88013292B2FD
:100C20003A801B889BB2A34215D14C4B188880B2E6
:100C30000DE044B94A4B1B6858700220FFF738FF9B
:100C40002C7008E03CB1FFF767FF04E00020FFF7DD
:100C50002FFF00232B70F3077AD53F4C23782646CD
:100C6000022B20D0052B3CD0012B67D13F4D2B8888
:100C70009BB2002B30D03E4E2988376889B2384667
:100C8000FFF72AFF2B889BB2984205D22B881B1AAC
:100C90009BB22B80384416E000232B80354B1B6819
:100CA000C3B1022353E0334D2B68ABB1324E2968F8
:100CB0003068FFF711FF2B68984206D22B681B1A89
:100CC0002B60336818443060F8BD224A936823F0E3
:100CD0000103936003233AE000BEBDE8F840FFF74C
:100CE00023BF244C236893B9244B1B6863B122486B
:100CF00098472060236853B9164A936823F001038C
:100D000093600323337002E000BEFFF70DFF2368FA
:100D1000184D3BB90F4A936823F0010393600323F6
:100D20003370F8BD144C29682068FFF7D5FE2B6896
:100D30001B1A2B60236818442060F8BD054A002068
:100D4000936823F001039360FFF7B2FE0023237042
:100D5000F8BD00BF00600140D8000020CC0000209A
:100D6000D4000020D9000020AC000020C0000020EA
:100D7000B4000020D0000020C4000020B0000020FB
:100D800070B5234C4FF420752668224C754363518F
:100D90001423734303F1402404F580346060A160A0
:100DA0001D4CB2F5803F1C44656898BF92B24FEA73
:100DB00015454FEA0545656098BF6168174B9BBFB5
:100DC0000A436260A2F5803200228CBF1A611A6168
:100DD0004FF0140202FB06F281BF01F5803100F5ED
:100DE0008030D96098600C4B13445A6842F4E0029A
:100DF0005A604FF42073734303F1844303F52013C7
:100E00000122C3F8C0210022C3F8CC2170BD00BF6D
:100E1000F8000020C401284208400140DC00002006
:100E2000684620F007018D4619B51D4B1D491A680B
:100E3000012402F5287041F82040142050431A493B
:100E4000224401444868042A20F4E000486017491D
:100E500008BF00221A600A690C4662B11449A068F2
:100E60000B68042B0CBF002301330B60E168237D6A
:100E7000FFF786FF10E01A6814235A430D4B9B5866
:100E800013F4E00308D1064A01201360084A0870F1
:100E900013604B6803B19847BDE819408546704719
:100EA000F40000200000284208400140DC0000203F
:100EB000F80000200C400140684620F007018D46F4
:100EC00019B5234B1B6813F4706F1FD0214A4FF4E0
:100ED0002073116814464B4303F1844303F5201338
:100EE000D3F808322BB11C4B022018705B6803B199
:100EF000984722684FF420735A43184B9B582BB1E4
:100F0000154B032018705B6803B19847104B1B68A2
:100F100013F4704F05D0104B042018705B6803B1B8
:100F200098470F4A0F490123C2F8C831C2F8803AE6
:100F3000C2F84834C1F8803AC2F8C836C1F8843AD9
:100F4000C2F84839C1F8883ABDE81940854670476B
:100F500000400140F4000020DC0000200C02284288
:100F600000002842040028420A4B0246196809B9C9
:100F7000094919601868EFF308818842024402D2D7
:100F8000914204D2FEE705498A4200D9FEE71A6081
:100F9000704700BFFC0000209001002000F00020FE
:100FA000074B084A1860084B1860084B1860084B3C
:100FB0001A60084B1860084B1860084B186070479F
:100FC0001C000020603D7902140000201800002061
:100FD000080000200C000020100000200400002069
:100FE0004FF6020238B53A4BD3F84C11914262D019
:100FF000384A536943F400735361354B9A6862B1C0
:10100000FFF718FA324A936C23F480339364324B1F
:101010001A6842F003021A6049E0304B1B683049FD
:1010200031F8120043F822000132392A0846F6D17D
:1010300003F5077400214518B5F87250284A44F8A2
:10104000115002318229F6D1B2F8F410C3F800141D
:10105000B2F8F610C3F80414B2F8F810C3F8081484
:10106000B2F8FA10C3F80C14B2F8FC10C3F810145C
:10107000B2F8FE10C3F81414B2F80011C3F8181433
:10108000B2F80211C3F81C14B2F80411C3F84014EA
:10109000B2F80611B2F80821C3F84414C3F8482482
:1010A00001221A60D3F8E420002AFBD0A8E75A688E
:1010B000D207FCD538BDD3F8982042F48072C3F82B
:1010C0009820D3F8982022F08062C3F898208FE708
:1010D0000080034000ED00E000200240A41E00005C
:1010E000981D00001D4B82B0D3F8982051012AD4DE
:1010F000D3F89820D20411D4194B1A4A1A49136014
:101100001A4A13601A4A13601A4A11601A4A136085
:101110001A4A13601A4A136002B070476A461949A6
:101120000868496803C2D3F89C2002A9C2F382125E
:101130000A4412F8082C012A02D004D312480AE00B
:101140004FF4004007E0D3F85031104813F0040F7B
:101150000F4B18BF184602B0FFF722BF00800340B4
:1011600080F5E4091C000020603D79021400002095
:1011700018000020080000200C00002010000020B3
:1011800004000020A81E000040420F0040787D01AE
:1011900080F0FA022DE9F04F914285B0834639D1B3
:1011A0008A0002926FF003089A00019208FB03F292
:1011B000039223EAE3724FEA82094FF0204C4FF08A
:1011C000000E4FF02446DE452ADA351F00249C42EB
:1011D0001ADAE246002204F1225045F8042F80007A
:1011E0000092009A019F8A4238440BDA039F5AF812
:1011F000042BC759B8462F6808FB0277009A2F6066
:101200000132EDE70134E2E7029A4E440EF1010E9D
:101210009444D8E7044805B0BDE8F04FFFF7AAB9F9
:1012200005B0BDE8F08F00BFB41E0000012808B56E
:101230000ED007D3022811D10948FFF79BF94FF0D0
:10124000244008BD0748FFF795F94FF0204008BD3E
:101250000548FFF78FF94FF0224008BD08BD00BFD9
:10126000191F0000FB1E00000A1F00002DE9F843B3
:1012700017468946FFF7DAFF05464FEA870800263A
:101280004E450FD00024BC4206D055F82410064825
:10129000FFF770F90134F6E704484544FFF76AF9AF
:1012A0000136EDE7BDE8F883281F000004210000A7
:1012B0002DE9F84317468846FFF7B8FF06464FEA80
:1012C00087090025454510D00024BC420AD022469B
:1012D00007482946FFF74EF9FFF720F946F82400A2
:1012E0000134F2E74E440135ECE7BDE8F88300BF76
:1012F0002C1F0000F8B52E484FF416510322FFF7BB
:1013000005FB2B482B49FFF759FBFFF707F9C0B244
:101310000138032847D8DFE800F0021A25372648AD
:10132000FFF728F9FFF7FAF804462448FFF722F9F7
:10133000FFF7F4F806462248FFF71CF9FFF7EEF82E
:1013400007462048FFF716F9FFF7E8F8054621465B
:1013500032460020FFF7ACFF012039462A46FFF74E
:10136000A7FF0FE01848FFF705F921463246002095
:10137000FFF77CFF1548FFF7FDF8012039462A46A4
:10138000FFF774FF12480FE031463A4620462B46DD
:10139000FFF700FF0F48FFF7EDF8022021462A462D
:1013A000FFF764FFADE70C48FFF7E4F8A9E700BFDB
:1013B000480100204A1F00000E2000002D200000E0
:1013C0004F2000006E200000FB1E00000A1F0000DE
:1013D00090200000C2200000D92000000E4B70B504
:1013E0001E460E4C0025E41AA410A54204D056F85F
:1013F000253098470135F8E700F022FF084B094CEB
:101400001E46E41AA4100025A54204D056F8253043
:1014100098470135F8E770BD5822000058220000B7
:10142000582200005C220000024B0146186800F0C0
:101430000FB800BF8000002010B5431E0A4491423F
:1014400004D011F8014B03F8014FF8E710BD00007C
:1014500030B500293CD051F8042C0B1F1D49002A3F
:10146000B8BF9B180A680C4612B95A600B6030BDB1
:1014700093420DD219685818904201BF5A58521819
:101480001A60426823605A6030BD994203D80A4608
:1014900051680029F9D1146815199D420AD11B68B9
:1014A0002344D0188842136012D1086803441360A3
:1014B0004B680CE002D90C23036030BD1C6818197E
:1014C000884201BF08684968001918605960536074
:1014D00030BD00BF0401002070B5CC1C24F0030413
:1014E00008340C2C38BF0C24002C064603DA0C23DD
:1014F0003360002070BD8C42F9D3204A1368104637
:101500001946A1B10A68121B0ED40B2A03D90A602E
:101510008B188C501FE08B420BBF5A684A680260E0
:101520005A6018BF0B4616E00B464968E9E7144DB0
:101530002B681BB9304600F025F82860304621465C
:1015400000F020F8421C0346D1D0C51C25F003054D
:1015500085420AD11C6003F10B001A1D20F0070020
:10156000821A0AD05142995070BD3046E91A00F0F3
:1015700009F80130BBD02B46ECE770BD0401002018
:101580000001002038B5064C0023054608462360BC
:10159000FFF7EAFC431C02D1236803B12B6038BD7E
:1015A000880100202DE9F0470F46404CD4F8009008
:1015B0003D4615F801EB09EB0E04667806F00804C9
:1015C00004F0FF060CB12F46F2E774462D2C03D130
:1015D000BD1C7C78012603E02B2C04BF7C78BD1C4D
:1015E00013B1102B0AD15AE0302C56D12C7804F0CC
:1015F000DF04582C4CD16C7810230235002E14BF18
:101600004FF000486FF00048B8FBF3FA0027BE46E1
:1016100003FB1A8809EB040C9CF801C01CF0040FB2
:1016200001D0303C0BE01CF0030C1BD0BCF1010FCF
:101630000CBF4FF0370C4FF0570CCCEB04049C421E
:1016400010DAB7F1FF3F0AD0D64506D801D144459C
:1016500003DC03FB0E4E012701E04FF0FF3715F8C6
:10166000014BD7E77C1C73460AD1002E4FF02201B4
:1016700014BF4FF000436FF0004301602AB911E03E
:101680000EB1CEF100036AB107B1691E116009E025
:101690003024002BB2D10823B0E70A23AEE7302C68
:1016A000ACD1A3E71846BDE8F08700BF8400002056
:1016B00030B505460C461346034A294610682246B3
:1016C000BDE83040FFF76EBF8000002030B50D460A
:1016D0009BB04FF42271ADF80C104FF6FF7100244F
:1016E000ADF80E106946009404940294059400F03D
:1016F00071F80028A1BF009B1C70049B2B601BB0DD
:1017000030BD000030B505460C461346034A294655
:1017100010682246BDE83040FFF7D8BF80000020A7
:101720002DE9F0478E688246B3420C4690469946B2
:1017300040D38A8912F4906F3AD025680969022350
:101740006F1A656905EB450595FBF3F57B1C4B446A
:101750009D4238BF1D4653050FD52946FFF7BCFEF5
:10176000064698B121693A46FFF766FEA38923F43D
:10177000906343F08003A38113E02A4600F0DBFA74
:10178000064670B950462169FFF762FE0C23CAF87D
:101790000030A3894FF0FF3043F04003A381BDE840
:1017A000F08726613E4426604E466561ED1BA560CC
:1017B000B14500D24E4632462068414600F0A0FABC
:1017C000A36800209B1BA36023681E442660BDE81D
:1017D000F08700002DE9F0439DB003938B89064606
:1017E0001C060D4690460CD50B6953B94021FFF7F6
:1017F00073FE2860286110B90C233360CCE04023CD
:101800006B610023099320238DF8293030238DF854
:101810002A3043461C4613F8012B1AB9B4EB0809C9
:101820000FD002E0252AF5D1F8E730462946424696
:101830004B46FFF775FF013000F0A980099B4B4430
:1018400009932378002B00F0A28000234FF0FF3291
:1018500004930793059206938DF853301A9304F17D
:1018600001084446DFF8489121784846052200F0F7
:1018700039FA08F10108049B30B1C9EB00000122DC
:10188000824013430493ECE7D80644BF20228DF82E
:101890005320190744BF2B228DF8532022782A2A7F
:1018A00002D0079923460EE0039A0134111D1268F5
:1018B0000391002ABBBF524243F0020307920792F2
:1018C000B8BF04930AE01C4622780133303A092A53
:1018D00003D80A2000FB0121F5E7079123782E2B7E
:1018E0001AD163782A2B0AD1039B02341A1D1B6874
:1018F0000392002BB8BF4FF0FF3305930CE0611C3F
:1019000000220C4623780131303B092B03D80A20F2
:1019100000FB0232F5E70592DFF898802178404617
:10192000032200F0DFF938B1049AC8EB000040232D
:10193000834013430493013421781A48062204F1AA
:1019400001088DF8281000F0CDF988B1164B33B995
:10195000039B073323F007030833039313E003AB20
:101960000093304604A92A46104BAFF3008007E0ED
:1019700003AB0093304604A92A460C4B00F092F8C2
:10198000421C074603D0099B3B44099341E7AB89BE
:101990005B0601D4099801E04FF0FF301DB0BDE8AF
:1019A000F08300BF14220000000000002117000097
:1019B0000A220000102200002DE9F84391461F463C
:1019C0008A680B6906469342B8BF1346C9F80030CF
:1019D00091F843200C46DDF8208012B10133C9F89C
:1019E00000302368990642BFD9F800300233C9F8A5
:1019F0000030256815F006051CD094F843302268A5
:101A0000003318BF012392061FD5E118302081F85A
:101A100043005A1C94F845102244023382F84310C4
:101A200013E03046394604F119020123C047013062
:101A300007D00135E368D9F800209B1A9D42F0DBFE
:101A4000DBE74FF0FF30BDE8F8833046394604F15C
:101A50004302C0470130F4D02268D9F80050E3684F
:101A600002F00602042A08BF5D1B2269A3680CBFAE
:101A700025EAE57500259342C4BF9B1AED184FF087
:101A80000009A9450ADA3046394604F11A02012351
:101A9000C0470130D5D009F10109F2E70020BDE8C7
:101AA000F88300002DE9FF410C461746227E984638
:101AB0006E2A06460A9B01F1430100F0B08012D85D
:101AC000632A23D00AD8002A00F0BD80582A40F0AB
:101AD000CC8084F84520DFF804E257E0642A1ED069
:101AE000692A1CD0C1E0732A00F0B18009D86F2A9E
:101AF0002ED0702A40F0B980226842F02002226085
:101B00003FE0752A24D0782A3BD0AEE01A6804F171
:101B10004205111D1960136884F84230A9E020685D
:101B20001A6810F0800F02D0101D186008E010F045
:101B3000400F02F10400186002D0B2F9003000E05A
:101B40001368002B3EDA2D225B4284F8432039E0F3
:101B500020681A6810F0800F02D0101D186007E08E
:101B600010F0400F02F10400186001D0138800E06B
:101B70001368227EDFF864E16F2A0CBF08220A2274
:101B80001CE07822DFF858E184F8452022681868C4
:101B900012F0800F00F104051D6003D1550601D538
:101BA000038800E00368D00744BF42F020022260AF
:101BB0001BB9226822F0200222601022002084F843
:101BC000430002E0DFF814E10A226568002DA8BF97
:101BD0002068A560A4BF20F00400206003B965B1AF
:101BE0000D46B3FBF2F002FB10331EF8033005F88C
:101BF000013D03460028F4D100E00D46082A0BD130
:101C00002368DA0708D5236962689A42DEBF302369
:101C100005F8013C05F1FF35491B21612EE02568DF
:101C20001A6815F0800F606903D0151D1D601368D8
:101C300008E015F0400F02F104051D60136801D0A3
:101C4000188000E01860002323610D4616E01A6832
:101C5000111D1960156800212846626800F042F8DD
:101C600008B1401B6060636804E004F1420584F839
:101C7000422001232361002384F84330CDF8008003
:101C80003046214603AA3B46FFF796FE013002D1BB
:101C90004FF0FF301FE0304639462A462369C047DF
:101CA0000130F5D023689B0705D4E068039B984278
:101CB000B8BF18460FE00025E368039A9B1A9D42BF
:101CC000F3DA3046394604F119020123C0470130E6
:101CD000DED00135F0E704B0BDE8F0811B22000042
:101CE0002C22000010B5C9B202449042034605D030
:101CF0001C7801308C42F8D1184610BD002010BD70
:101D0000814210B501EB020301D3421E0BE0984261
:101D1000FBD28118D21AD34204D013F8014D01F836
:101D2000014DF8E710BD994204D011F8014B02F8BB
:101D3000014FF8E710BDF8B5074615460E4621B924
:101D40001146BDE8F840FFF7C7BB1AB9FFF780FBA3
:101D50002846F8BD00F015F8A8420ED238462946AC
:101D6000FFF7BAFB044650B131462A46FFF764FB41
:101D700038463146FFF76CFB01E03046F8BD20469F
:101D8000F8BD51F8040C0028BEBF091851F8043CF6
:101D9000C018043870470000000000005E1E5702A3
:101DA000020000000201880800003F33FFFF777740
:101DB000770701003B4208001003440000000000C8
:101DC000C903850035026400AB0278013300C515F4
:101DD0001400180000330000000006040000000298
:101DE0004000120002000040F8800700F880070061
:101DF000000200000000040003004000000000009A
:101E00000000000009030100000000000000800045
:101E100000000000030000000000000000000000BF
:101E20000B00000000000000000080000420000102
:101E30000800000000000000000000000100000099
:101E40000000000000000000504001051450000098
:101E50000000000000000000000000000000000082
:101E600000000000000000005000010510500000BC
:101E7000000000000000000000004300000003001C
:101E8000010001000000000000000100000000004F
:101E90000000000000000000000000000000000042
:101EA00000000000000802400001000102020303DC
:101EB000480100204E6F2073652070756564656E63
:101EC000206D756C7469706C69636172206C6173EC
:101ED000206D617472696365732E204C6173206498
:101EE000696D656E73696F6E6573206E6F20636FC9
:101EF000696E636964656E2E0A0D000A0D204D61DE
:101F00007472697A2041200A0D000A0D204D617417
:101F100072697A2042200A0D000A0D204D61747208
:101F2000697A2043200A0D00256420000A0D20450F
:101F30006C656D656E746F204D617472697A2041B5
:101F4000202825642C2564293A000A0D20092A2A14
:101F50002A2A2A2A2A2A2A2A2A2A2A2A2A2A2A2AE1
:101F60002A2A2A2A2A2A2A2A2A2A2A2A2A2A2A2AD1
:101F70002A2A2A2A2A2A2A2A2A200A0D2009090975
:101F8000204D415452494345530A0D20312E2044DF
:101F9000696D656E73696F6E6573206465204D6150
:101FA00074726963657320200A0D20322E20456407
:101FB00069746172204D61747269636573200A0DE2
:101FC00020332E204D6174726963657320416C6DFE
:101FD0006163656E61646173200A0D20342E204DAB
:101FE000756C7469706C69636163696F6E204D61B3
:101FF000747269636573200A0D204573636F6A61AB
:1020000020756E61206F7063696F6E3A20000A0D53
:10201000204E756D65726F2064652046696C617332
:1020200020284D617472697A2041293A000A0D20F6
:102030004E756D65726F20646520436F6C756D6EB3
:10204000617320284D617472697A2041293A000A2F
:102050000D204E756D65726F2064652046696C6158
:102060007320284D617472697A2042293A000A0D62
:10207000204E756D65726F20646520436F6C756DC1
:102080006E617320284D617472697A2042293A008A
:102090000A0D202A2A2A2A2A2A2A2A2A2A2A2A2AE7
:1020A0002A2A2A2A2A2A2A2A2A2A2A2A2A2A2A2A90
:1020B0002A2A2A2A2A2A2A2A2A2A2A2A2A2A200AAA
:1020C0000D000A0D204D617472697A207265737576
:1020D0006C7461646F3A0A0D000A0D204F706369D9
:1020E0006F6E20496E636F7272656374612C205647
:1020F00075656C6120612053656C656363696F6E03
:10210000617221200A0D00430000202020202020A1
:102110002020202828282828202020202020202097
:102120002020202020202020202088101010101097
:1021300010101010101010101010040404040404E7
:1021400004040404101010101010104141414141CA
:10215000410101010101010101010101010101012F
:1021600001010101011010101010104242424242C0
:1021700042020202020202020202020202020202FF
:1021800002020202021010101020000000000000E5
:10219000000000000000000000000000000000003F
:1021A000000000000000000000000000000000002F
:1021B000000000000000000000000000000000001F
:1021C000000000000000000000000000000000000F
:1021D00000000000000000000000000000000000FF
:1021E00000000000000000000000000000000000EF
:1021F00000000000000000000000000000000000DF
:1022000000000000000000000000232D302B200003
:10221000686C4C00656667454647003031323334A0
:102220003536373839414243444546003031323340
:102230003435363738396162636465660000000002
:10224000F8B500BFF8BC08BC9E467047F8B500BFA3
:10225000F8BC08BC9E467047E5040000C1040000BD
:102260000000000080F5E409603D790280F5E40992
:1022700080F5E40980F5E40980F5E40980F5E409D6
:10228000000000000000000000000000000000004E
:10229000000000000000000000000000000000003E
:1022A0000721000000000000000000000000000006
:1022B000000000000000000000000000000000001E
:1022C000000000000000000000000000000000000E
:1022D00000000000000000000000000000000000FE
:1022E0002000002009210000000000000000000084
:040000030000019167
:00000001FF
