:1000000000000120910100007F0300008103000037
:100010008303000085030000870300000000000048
:100020000000000000000000000000008903000044
:100030008B030000000000008D0300008F03000010
:100040009103000093030000950300009703000054
:10005000990300009B0300009D0300009F03000024
:10006000A1030000A3030000CD090000E90900007E
:10007000A9030000AB030000C1130000AF030000A0
:10008000B1030000B3030000B5030000AD0A000097
:10009000B9030000BB030000BD030000BF03000064
:1000A000C1030000C3030000C5030000750D00007C
:1000B0000D0E0000CB030000CD030000CF030000B5
:1000C000D1030000D3030000D5030000D7030000D4
:1000D000D9030000DB030000DD030000DF030000A4
:1000E000E1030000E3030000E5030000E703000074
:1000F000E9030000EB030000ED030000EF03000044
:10010000F1030000F3030000F5030000F703000013
:10011000F9030000FB030000FD030000FF030000E3
:1001200001040000030400000504000007040000AF
:10013000090400000B0400000D0400000F0400007F
:10014000110400001304000015040000170400004F
:10015000190400001B0400001D0400001F0400001F
:1001600021040000230400002504000027040000EF
:10017000290400002B0400002D0400002F040000BF
:100180003104000033040000000000000000000003
:100190004FF0000BDFF8BE020068DFF8B612096806
:1001A00001F0030100F01C00142801D14BF0020BF8
:1001B000002901D04BF0010BBBF1000F05D0A7487F
:1001C000A749DFF8722200F09FF8A64880470BF09D
:1001D000020ABAF1000F0CD0DFF86E02DFF86E12DF
:1001E00002680B680FB44FF000024FF0FF0302608B
:1001F0000B609D489D4A9E4B022808D1DFF83E12B5
:100200000A60DFF842120A60DFF836120B6001283C
:1002100008D1DFF82E120A60DFF82A120A60DFF830
:100220001E120B609348002809D193489349944AC1
:1002300000F032F893489449944A00F02DF894481D
:100240009449954A00F028F894489549DFF8E6214A
:1002500000F05AF8BBF1000F12D092489249DFF833
:10026000DA2100F051F80BF0020ABAF1000F07D0C2
:100270000FBC02600B6000BFAFF30080AFF30080E3
:10028000DFF828020FF2030E00474FF000004FF096
:100290000001DFF81CF2FEE72DE9F841884225D085
:1002A000B2EB010200D5FEE740EA010313F00303BD
:1002B00002D000F01DF819E04FF000039046121133
:1002C000F7D09A421CBFF0C8F0C103F10103F8D186
:1002D00008F00F08B8F1000F08D004780C7000F196
:1002E000010001F10101B8F10108F6D1BDE8F88182
:1002F00008B54FF0000303780B7000F1010001F125
:100300000101013AF7D108BD884237D000F0030659
:10031000002E14D04FF00405A5EB06044FF008079B
:1003200007FB06F8914669FA08F9002C07D080F817
:10033000009069FA07F900F10100013CF5E74FF080
:1003400000060F46091A88460911914614461546BB
:10035000B14206D018BFA0E8340206F10106B1424E
:10036000F8D108F00F08B8F1000F07D002704FEA7B
:10037000322200F10100B8F10108F4E77047FEE70E
:10038000FEE7FEE7FEE7FEE7FEE7FEE7FEE7FEE745
:10039000FEE7FEE7FEE7FEE7FEE7FEE7FEE7FEE735
:1003A000FEE7FEE7FEE7FEE7FEE7FEE7FEE7FEE725
:1003B000FEE7FEE7FEE7FEE7FEE7FEE7FEE7FEE715
:1003C000FEE7FEE7FEE7FEE7FEE7FEE7FEE7FEE705
:1003D000FEE7FEE7FEE7FEE7FEE7FEE7FEE7FEE7F5
:1003E000FEE7FEE7FEE7FEE7FEE7FEE7FEE7FEE7E5
:1003F000FEE7FEE7FEE7FEE7FEE7FEE7FEE7FEE7D5
:10040000FEE7FEE7FEE7FEE7FEE7FEE7FEE7FEE7C4
:10041000FEE7FEE7FEE7FEE7FEE7FEE7FEE7FEE7B4
:10042000FEE7FEE7FEE7FEE7FEE7FEE7FEE7FEE7A4
:10043000FEE7FEE7704700000000A2A2A2A2008033
:100440000340088003401080034030800340348024
:1004500003403880034018080240000000F00020EC
:1004600000000120350F0000000000000000000027
:10047000010000000000000000000000000000007B
:1004800090010000C0040000C0040000E01F000054
:10049000E01F0000000000208000002080000020FD
:1004A000B0010020B001002000F00020E1130000A6
:1004B00065120000000000000000000000000000C5
:1004C00010B5054C237833B9044B13B10448AFF38E
:1004D00000800123237010BD800000200000000078
:1004E000C01F000008B5034B1BB103490348AFF31D
:1004F000008008BD0000000084000020C01F000034
:1005000000F0704303EB8101C0F3130001F10071AF
:10051000400101230B50704700F0704303EB810151
:10052000C0F3130001F10071400100230B5070472C
:1005300000F0704303EB8101C0F3130001F100717F
:1005400040010858C0B270471E4B30B598421A4659
:1005500003D01D4B984200D000BE016901B900BE16
:10056000436903B900BE904202D0174A904228D195
:1005700039B333B30268417B127DD2B21143920684
:1005800041730CD4826943699A421AD1BDE8304064
:1005900000234361006801210430FFF7BDBF826979
:1005A0009B1A102B28BF102300229A42EAD084699C
:1005B000056901682C5D01320C708169013181612E
:1005C000F3E730BD38010020F800002010B50446E4
:1005D0000068037A03F00F030C2B4BD8DFE803F01D
:1005E000074A090F0B4A0D4A4A4A4A4A0B00A36AB6
:1005F0003BE0636A39E0236A37E0E36935E028309D
:100600000021FFF795FF28B1E36A0BB900BE01E0B6
:1006100020469847206801212830FFF789FF28B13C
:10062000236B0BB900BE01E02046984720680221E9
:100630002830FFF77DFF28B1636B0BB900BE01E0E6
:1006400020469847206803212830FFF771FF28B122
:10065000A36B0BB900BE01E0204698472068042137
:100660002830FFF765FF30B1E36B1BB12046BDE8D2
:100670001040184700BE10BD2DE9F843714B0446E9
:10068000984298460E4617466F4B04D06F4A9042E8
:1006900013D000BE11E04FF0804202600A220271C6
:1006A0009A6C4FF4806142F080029A64684AC2F802
:1006B00080119A6C22F080020FE0664A4FF40061CC
:1006C00022600B2222719A6C42F480729A64604A12
:1006D000C2F880119A6C22F480729A642368002513
:1006E0001D71236801211D7220680830FFF708FF83
:1006F000206802210830FFF703FF206829460830F0
:10070000FFF7FEFE206804211030FFF705FF206888
:1007100005211030FFF700FF206801213430FFF77A
:10072000FBFE206829463430FFF7F6FE20680121E1
:100730003830FFF7F1FE206805213030FFF7ECFE7E
:10074000206806213030FFF7E7FE206807213030AF
:10075000FFF7E2FE206803213830FFF7DDFE236853
:10076000444583F84450236883F84850236883F84D
:100770004C5002D0354B9C4211D1A66000F05CFC7D
:1007800044450CBF344B354B1B68DB00B3FBF6F91B
:100790004FEAD913B3F5803F4FEA590501D300BEA4
:1007A0003CE0012B20685FFA83F823D9A5EB831581
:1007B000A5EBC3134B440C300721A3EB4505FFF712
:1007C0009FFE2268C9F3C73313712368072183F89A
:1007D000008020680C30FFF79FFE20680721303032
:1007E000FFF78EFEFF2D00D900BE2368EDB283F81F
:1007F0003C5013E00C300721FFF782FE23680022F3
:100800001A712368072183F8008020680C30FFF7F5
:1008100083FE206807213030FFF77EFE23681F73B8
:10082000002327736373A66063612361A36123625E
:100830006362E361A362E36223636363A363E363CD
:10084000BDE8F8833801002000800340F800002054
:1008500000E100E000000140100000201400002032
:100860000E4B10B59842044603D00D4B984200D071
:1008700000BE2046FFF700FF206803213030FFF75D
:100880004BFE206802213430FFF746FE206800212D
:100890003830FFF741FE034B636210BD3801002082
:1008A000F800002049050000174BF0B5984203D02E
:1008B000164CA04200D000BE01B900BE02B900BE75
:1008C000984202D0114B98421DD1E1B1DAB1002417
:1008D0000368457B1B7DDBB21D4345739D06F7D541
:1008E0000F2A01EB040698BF1346354688BF102334
:1008F000076815F801EB87F800E0AF1B9F42F7D3BC
:10090000D21A1C44E4D1F0BD38010020F8000020C8
:10091000114B70B5984205D0104B984202D000BEE2
:10092000C1B900E009B900BE70BD0A7800238AB1E0
:100930000668347D457BE4B22543A4064573F8D5AB
:1009400003F11004056801332A70CA5C12B1A34296
:10095000F8D1ECE770BD00BF38010020F80000209E
:100960000346184830B5834203D0174CA34200D049
:1009700000BE01B900BE02B900BE834202D01248D7
:10098000834217D1C1B1D2B11868047D587BE4B25B
:10099000204358730020E40710D590420FD01C6804
:1009A00024780C541C685D7B247D0130E4B225431F
:1009B0005D73F0E7002202E00A4600E002461046BE
:1009C00030BD00BF38010020F8000020684620F04C
:1009D00007018D4601B50348FFF7F8FDBDE801406A
:1009E0008546704738010020684620F007018D4693
:1009F00001B50348FFF7EAFDBDE8014085467047B1
:100A0000F800002010B5064C0146236833B1054AB2
:100A100010689847044A00232360137010BD00BF7C
:100A2000B8000020C4000020A80000200E4B13B521
:100A30001A6822F004021A605B6803F00103019354
:100A40000023019A0AB919460AE08B4208D0C45C17
:100A5000054A01331461526802F001020192F0E785
:100A6000084602B010BD00BF00600140024B1A688A
:100A70000AB11B6818477047AC00002008B5084B46
:100A80001B7863B1074B188880B2FFF7BBFF064B9A
:100A90001A6842F001021A601A68D207FCD408BD35
:100AA000A8000020BC00002000600140F8B57E4B8B
:100AB0005E68F2B29E681640B20776D518697B4D23
:100AC00020F4FF442B7824F07F04A4B2C0B2052B9D
:100AD00066D8DFE803F0036161172B58002C64D05F
:100AE000F1285AD1724B0024724A1C8011681A886E
:100AF00092B288541A88013292B21A801B889BB233
:100B0000CC5411E0002C50D06B4B1B78984244D150
:100B1000674A002313806749138809689BB2C85449
:100B2000138801339BB2138004233DE0002C34D1A1
:100B30005F4F604B3A88196892B20A4412F8013C40
:100B4000F12B3B460AD13B889BB2C8543B889BB2F1
:100B50000B4413F8010CFFF789FF1BE0574C3A8850
:100B6000248892B2A24206D23A8892B288543A8835
:100B7000013292B23A801B889BB2A34215D14C4BF2
:100B8000188880B20DE044B94A4B1B6858700220A7
:100B9000FFF738FF2C7008E03CB1FFF767FF04E077
:100BA0000020FFF72FFF00232B70F3077AD53F4C6F
:100BB00023782646022B20D0052B3CD0012B67D171
:100BC0003F4D2B889BB2002B30D03E4E2988376892
:100BD00089B23846FFF72AFF2B889BB2984205D28C
:100BE0002B881B1A9BB22B80384416E000232B80E5
:100BF000354B1B68C3B1022353E0334D2B68ABB1B7
:100C0000324E29683068FFF711FF2B68984206D2F0
:100C10002B681B1A2B60336818443060F8BD224AD9
:100C2000936823F00103936003233AE000BEBDE81C
:100C3000F840FFF723BF244C236893B9244B1B686B
:100C400063B1224898472060236853B9164A9368D5
:100C500023F0010393600323337002E000BEFFF72B
:100C60000DFF2368184D3BB90F4A936823F0010329
:100C7000936003233370F8BD144C29682068FFF794
:100C8000D5FE2B681B1A2B60236818442060F8BD22
:100C9000054A0020936823F001039360FFF7B2FE3A
:100CA00000232370F8BD00BF00600140C800002091
:100CB000BC000020C4000020C90000209C000020CF
:100CC000B0000020A4000020C0000020B4000020DC
:100CD000A000002070B5234C4FF420752668224CEC
:100CE000754363511423734303F1402404F58034A6
:100CF0006060A1601D4CB2F5803F1C44656898BFE0
:100D000092B24FEA15454FEA0545656098BF6168A4
:100D1000174B9BBF0A436260A2F5803200228CBF52
:100D20001A611A614FF0140202FB06F281BF01F54D
:100D3000803100F58030D96098600C4B13445A68BC
:100D400042F4E0025A604FF42073734303F184438A
:100D500003F520130122C3F8C0210022C3F8CC21DF
:100D600070BD00BFE8000020C401284208400140D7
:100D7000CC000020684620F007018D4619B51D4BB8
:100D80001D491A68012402F5287041F820401420FA
:100D900050431A49224401444868042A20F4E000E0
:100DA0004860174908BF00221A600A690C4662B100
:100DB0001449A0680B68042B0CBF002301330B609F
:100DC000E168237DFFF786FF10E01A6814235A4379
:100DD0000D4B9B5813F4E00308D1064A0120136021
:100DE000084A087013604B6803B19847BDE8194082
:100DF00085467047E400002000002842084001407A
:100E0000CC000020E80000200C400140684620F0A3
:100E100007018D4619B5234B1B6813F4706F1FD063
:100E2000214A4FF42073116814464B4303F1844365
:100E300003F52013D3F808322BB11C4B0220187095
:100E40005B6803B1984722684FF420735A43184BEC
:100E50009B582BB1154B032018705B6803B1984762
:100E6000104B1B6813F4704F05D0104B0420187002
:100E70005B6803B198470F4A0F490123C2F8C83194
:100E8000C2F8803AC2F84834C1F8803AC2F8C8368D
:100E9000C1F8843AC2F84839C1F8883ABDE8194027
:100EA0008546704700400140E4000020CC0000204F
:100EB0000C02284200002842040028420A4B024645
:100EC000196809B9094919601868EFF3088188425F
:100ED000024402D2914204D2FEE705498A4200D977
:100EE000FEE71A60704700BFEC000020B001002050
:100EF00000F00020074B084A1860084B1860084BA8
:100F00001860084B1A60084B1860084B1860084BB3
:100F10001860704718000020603D79021000002022
:100F20001400002004000020080000200C00002015
:100F3000000000204FF6020238B53A4BD3F84C11AE
:100F4000914262D0384A536943F400735361354B80
:100F50009A6862B1FFF76EFA324A936C23F48033D9
:100F60009364324B1A6842F003021A6049E0304B36
:100F70001B68304931F8120043F822000132392A47
:100F80000846F6D103F5077400214518B5F87250EC
:100F9000284A44F8115002318229F6D1B2F8F410EF
:100FA000C3F80014B2F8F610C3F80414B2F8F8103D
:100FB000C3F80814B2F8FA10C3F80C14B2F8FC1015
:100FC000C3F81014B2F8FE10C3F81414B2F80011EC
:100FD000C3F81814B2F80211C3F81C14B2F80411C3
:100FE000C3F84014B2F80611B2F80821C3F844144B
:100FF000C3F8482401221A60D3F8E420002AFBD069
:10100000A8E75A68D207FCD538BDD3F8982042F437
:101010008072C3F89820D3F8982022F08062C3F839
:1010200098208FE70080034000ED00E000200240A0
:10103000A81D00009C1C00001D4B82B0D3F8982016
:1010400051012AD4D3F89820D20411D4194B1A4A4A
:101050001A4913601A4A13601A4A13601A4A116037
:101060001A4A13601A4A13601A4A136002B0704792
:101070006A4619490868496803C2D3F89C2002A946
:10108000C2F382120A4412F8082C012A02D004D3B7
:1010900012480AE04FF4004007E0D3F850311048FE
:1010A00013F0040F0F4B18BF184602B0FFF722BF12
:1010B0000080034080F5E40918000020603D7902BB
:1010C0001000002014000020040000200800002070
:1010D0000C00002000000020AC1D000040420F006A
:1010E00040787D0180F0FA022DE9F04F914285B001
:1010F000039013D14FF0204E00254FF0244C23EAEB
:10110000E37292004FEA810B02924FEA8309039A3D
:1011100095422DDA0020ACF1040413E0164917487B
:1011200005B0BDE8F04FFFF7F3BB0022F2464FF0E9
:10113000000844F8042F820002F1224201928845FF
:1011400007DB01309842F0DB029A01359444DE441B
:10115000DDE7019E5AF8042B366808F1010837468E
:10116000266807FB0266019A26604A440192E6E778
:1011700005B0BDE8F08F00BFB41D000038010020AD
:101180002DE9F74FA0F13103022B1646019110D83B
:10119000400600F178540027DFF860B0DFF8608087
:1011A000DFF850904FEA860A019BBB421CD0002515
:1011B00011E00F490F48FFF7ABFB4FF02044EAE77F
:1011C00054F825205946404600F03CF9414648462F
:1011D000FFF79EFB0135B542F2D148460649FFF7BD
:1011E00097FB54440137DFE703B0BDE8F08F00BF41
:1011F000FB1D0000380100206D1F0000001E0000D4
:1012000078010020F8B54FF0010C15461C4600226D
:101210004FF020468F00824213D110491048FFF74B
:1012200077FB022600224FF02241A000AA4212D1F1
:10123000F8BD46F823C001338B42FAD13E44013257
:10124000E9E70023F8E741F823600133A342FAD12C
:1012500001440132EAE70023F8E700BF051E000061
:10126000380100202DE9F74300244FF480464FF465
:1012700000458DF80740FFF7DFFE03224FF41651BB
:101280004348FFF7EDFA434B4349C3F88060C3F886
:1012900080508A6C414822F040028A6401224FF05B
:1012A0004021DFF814814A65DFF81091C0F8004949
:1012B000C0F80849364CC0F804290A618A62C3F8AC
:1012C0008061C3F8805141462046FFF721FB01228F
:1012D0002F480DF10701FFF743FB10F0FF0FF6D089
:1012E000012220460DF10701FFF7DEFA9DF80730D5
:1012F000313B032B49D8DFE803F0020914277F2391
:101300001A4619461846FFF77DFFDCE77F231A4689
:1013100019461846FFF776FF21492046FFF7F8FAED
:10132000D1E720461F49FFF7F3FA7F22312011460B
:10133000FFF726FF20461C49FFF7EAFA7F223220FA
:101340001146FFF71DFFE7E74FF040250023012777
:10135000AB637F23114E1A4619461846C5F83C90D8
:10136000C6F80079FFF7C0FE6B6B10492A6B104876
:1013700000F068F820460E49FFF7CAFA4FF48042A1
:10138000044BC6F808791A609DE70A49C5E700BF13
:101390003801002000E100E0008003400000084226
:1013A000051E0000001F00000F1F00001E1F000090
:1013B00078010020421F0000371E00000008AF2FF8
:1013C00008B505490548FFF7A3FA4FF0402301226D
:1013D000DA64BFF34F8F08BD701F00003801002092
:1013E00070B500260C4D0D4C641BA410A64209D10B
:1013F00000F0E6FD00260A4D0A4C641BA410A6422C
:1014000005D170BD55F8043B98470136EEE755F815
:10141000043B98470136F2E7D81F0000D81F0000B0
:10142000D81F0000DC1F00000A44914200F1FF3386
:1014300000D1704710B511F8014B914203F8014FEC
:10144000F9D110BD0EB46FF0004100B59CB01DABDA
:1014500002900690079104910848094953F8042B1B
:101460000591006802A9019300F068F80022029B30
:101470001A701CB05DF804EB03B070471C0000202C
:101480000802FFFF2DE9F0478E6882469E420C4617
:1014900090461F4638D88A8912F4906F32D025685A
:1014A00009690133A5EB010965694B4405EB450565
:1014B00005EBD5756D109D4238BF1D46530531D5DE
:1014C000294600F045FB064650B90C234FF0FF308B
:1014D000CAF80030A38943F04003A381BDE8F08738
:1014E0004A462169FFF7A0FFA38923F4906343F0E4
:1014F0008003A38126614E4426603E466561A5EBCC
:101500000905A560BE4200D93E46324641462068E4
:1015100000F0B8FAA36822689B1B32440020A36045
:101520002260DBE72A4600F06DFB06460028E1D189
:101530005046216900F0C0FAC7E700002DE9F04FDE
:1015400098468B8907461B060D4614469DB00ED55E
:101550000B6963B9402100F0FBFA2860286120B9CB
:101560000C233B604FF0FF30D1E040236B61002340
:10157000099320238DF8293030234FF00109CDF84D
:101580000C80DFF8A4818DF82A3023469A4613F8A0
:10159000012B0AB1252AF9D1BAEB040B0BD05B461B
:1015A000224629463846FFF76DFF013000F0AA8039
:1015B000099A5A4409929AF80030002B00F0A28050
:1015C00000234FF0FF32CDE905230AF1010A04930D
:1015D00007938DF853301A935446052214F8011BD3
:1015E000514800F041FA049AD8B9D00644BF2023EC
:1015F0008DF85330110744BF2B238DF853309AF8E0
:1016000000302A2B15D0544600204FF00A0C079AC0
:10161000214611F8013B303B092B4ED9B0B107925E
:1016200014E0A0EB080309FA03F31343A246049362
:10163000D2E7039B191D1B680391002BBBBF5B42C4
:1016400042F0020207930793B8BF049223782E2B2F
:101650000CD163782A2B35D1039B02341A1D1B68E9
:101660000392002BB8BF4FF0FF330593DFF8C8A0FB
:1016700003225046217800F0F7F940B14023A0EB57
:101680000A0003FA00F0049B01340343049314F8A6
:10169000011B062225488DF8281000F0E5F90028E6
:1016A00038D0234B1BBB039B073323F007030833BE
:1016B0000393099B3344099367E70C4601200CFB15
:1016C0000232A5E700234FF00A0C194601340593B6
:1016D000204610F8012B303A092A03D9002BC5D037
:1016E0000591C3E7044601230CFB0121F0E703AB9E
:1016F00000932A4638460F4B04A9AFF30080421CE2
:101700000646D6D1AB895B063FF52CAF09981DB0D4
:10171000BDE8F08F03AB00932A463846054B04A979
:1017200000F07CF8EBE700BF8A1F0000941F000068
:101730000000000085140000901F00002DE9F04714
:10174000164699468A680B6907469342B8BF134606
:10175000336091F843200C46DDF820800AB1013354
:1017600033602368990642BF3368023333602568CB
:1017700015F0060506D104F1190AE36832689B1AD0
:10178000AB4228DC94F84320131E226818BF0123C3
:1017900092062DD44946384604F14302C047013031
:1017A00020D02368E56803F00603042B18BF00254A
:1017B00032684FF00006A36808BFAD1A226908BF5F
:1017C00025EAE5759342C4BF9B1AED181A34B54259
:1017D0001AD1002008E00123524649463846C04746
:1017E000013003D14FF0FF30BDE8F0870135C4E789
:1017F0003020E11881F843005A1C94F84510224427
:10180000023382F84310C5E7012322464946384691
:10181000C0470130E6D00136D9E700002DE9FF4787
:101820000C46277E9146782F80469A460C9904F103
:10183000430207D8622F0AD8002F00F0D980582F12
:1018400000F0A48004F1420684F842703AE0A7F167
:101850006303152BF6D801A050F823F0B51800004B
:10186000C918000045180000451800004518000080
:1018700045180000C9180000451800004518000070
:101880004518000045180000D7190000F91800009D
:10189000B91900004518000045180000F9190000AA
:1018A00045180000F9180000451800004518000010
:1018B000C11900000B6804F142061A1D1B680A607A
:1018C00084F842300123A4E0256808682E0600F160
:1018D00004030AD505680B60002D03DA2D236D4241
:1018E00084F843300A235E4819E015F0400F05687C
:1018F0000B6018BF2DB2EFE70B682568181D086054
:10190000280601D51D6802E06906FBD51D886F2FEA
:101910000CBF08230A235248002184F8431066684C
:10192000002EA8BF2168A660A4BF21F00401216099
:101930000DB9002E4DD01646B5FBF3F103FB115740
:10194000C75D06F8017D2F46BB420D46F4D9082B32
:101950000BD12368DF0708D5236961689942DEBF90
:10196000302306F8013C06F1FF36921B22614B46FC
:1019700021464046CDF800A003AAFFF7DFFE013064
:101980004CD14FF0FF3004B0BDE8F087344884F804
:1019900045700E68236856F8045B1F060E6014D568
:1019A000D90744BF43F0200323601DB9236823F007
:1019B000200323601023AFE7236843F02003236054
:1019C0007823284884F84530E3E75E0648BFADB287
:1019D000E6E71646BBE70B6826681D1D60690D60CB
:1019E00035061B6801D5186002E07106FBD518802A
:1019F000002316462361BAE70B681A1D0A601E68A9
:101A000000213046626800F02FF808B1801B60604A
:101A100063682361002384F84330A8E732464946CF
:101A200040462369D0470130ABD023689B0713D4CD
:101A3000E068039B9842B8BF1846A4E701233246EA
:101A400049464046D04701309BD00135E3680399B1
:101A50005B1AAB42F2DCEBE7002504F11906F5E76F
:101A60009B1F0000AC1F0000034610B5C9B2024422
:101A70009342184601D1002003E0047801338C42E0
:101A8000F6D110BD884210B501EB020402D98442A0
:101A9000234607D8431EA14208D011F8012B03F8B2
:101AA000012FF8E7014602448A4200D110BD13F825
:101AB000014D02F8014DF7E738B50546002943D03E
:101AC00051F8043C0C1F002BB8BFE41800F0D0F80C
:101AD0001E4A1368104633B9636014602846BDE897
:101AE000384000F0CBB8A3420AD92168621893426B
:101AF00001BF1A685B685218226063600460EDE7FA
:101B00001A465B680BB1A342FAD911685018A0427B
:101B10000BD120680144501883421160DED118684F
:101B20005B68014411605360D8E702D90C232B6035
:101B3000D4E7206821188B4201BF19685B68091837
:101B4000216063605460C9E738BD00BFF000002029
:101B5000F8B5CD1C25F0030508350C2D38BF0C2534
:101B6000002D064601DBA94203D90C233360002077
:101B7000F8BD00F07DF821490A6814469CB9204F51
:101B80003B6823B92146304600F062F838602946A8
:101B9000304600F05DF8431C23D10C2330463360FF
:101BA00000F06CF8E3E723685B1B17D40B2B03D919
:101BB00023601C44256004E06368A2420CBF0B60F4
:101BC0005360304600F05AF804F10B00231D20F05A
:101BD0000700C21ACCD01B1AA350C9E7224664687A
:101BE000CCE7C41C24F00304A042E3D0211A304601
:101BF00000F02EF80130DDD1CFE700BFF00000206B
:101C0000F4000020F8B5074614460E4621B91146E7
:101C1000BDE8F840FFF79CBF22B9FFF74DFF25460E
:101C20002846F8BD00F030F8A0420FD221463846D1
:101C3000FFF78EFF05460028F2D031462246FFF717
:101C4000F3FB31463846FFF737FFE9E73546E7E76C
:101C500038B50023054D044608462B60FFF72EF9E2
:101C6000431C02D12B6803B1236038BD98010020CA
:101C7000014800F011B800BFA0010020014800F0A9
:101C80000CB800BFA001002051F8043C181F002B25
:101C9000BCBF0B58C0187047704770470000000069
:101CA0005E1E5702020000000201880800003F3358
:101CB000FFFF7777770701003B42080010034400DD
:101CC00000000000C903850035026400AB02780102
:101CD0003300C5151400180000330000000006048E
:101CE000000000024000120002000040F8800700DF
:101CF000F88007000002000000000400030040001C
:101D000000000000000000000903010000000000C6
:101D10000000800000000000030000000000000040
:101D2000000000000B000000000000000000800028
:101D30000420000108000000000000000000000076
:101D400001000000000000000000000050400105FC
:101D5000145000000000000000000000000000001F
:101D6000000000000000000000000000500001051D
:101D700010500000000000000000000000004300C0
:101D8000000003000100010000000000000001004D
:101D90000000000000000000000000000000000043
:101DA00000000000000000000008024000010001E7
:101DB000020203034E6F2073652070756564656EC3
:101DC000206D756C7469706C69636172206C6173ED
:101DD000206D617472696365732E204C6173206499
:101DE000696D656E73696F6E6573206E6F20636FCA
:101DF000696E636964656E2E0A0D004E554C4C0089
:101E000025346420000A0D202A2A2A2A2A2A2A2A6E
:101E10002A2A2A2A2A2A2A2A2A2A2A2A2A2A2A2A22
:101E20002A2A2A2A2A2A2A2A2A2A2A2A2A2A2A2A12
:101E30002A2A2A200A0D000A0D20092A2A2A2A2ADB
:101E40002A2A2A2A2A2A2A2A2A2A2A2A2A2A2A2AF2
:101E50002A2A2A2A2A2A2A2A2A2A2A2A2A2A2A2AE2
:101E60002A2A2A2A2A2A200A0D20090909204D4156
:101E70005452494345530A0D2009312E2044696DBF
:101E8000656E73696F6E6573206465204D61747251
:101E90006963657320200A0D2009322E204564698C
:101EA000746172204D61747269636573200A0D203C
:101EB00009332E204D6174726963657320416C6D26
:101EC0006163656E61646173200A0D2009342E2000
:101ED0004D756C7469706C69636163696F6E204DD8
:101EE00061747269636573200A0D20094573636F1D
:101EF0006A6120756E61206F7063696F6E3A2000B1
:101F00000A0D204D617472697A2041200A0D000A81
:101F10000D204D617472697A2042200A0D000A0D6D
:101F2000205469656D706F20646520457363726924
:101F3000747572613A20253130642C0920253130C6
:101F400064000A0D204F7063696F6E20496E636FE5
:101F50007272656374612C205675656C6120612016
:101F600053656C656363696F6E617221200A0D00B1
:101F70000A0D20434F4E54454F205445524D494E73
:101F800041444F2E2E2E200A0D00232D302B2000F1
:101F9000686C4C0065666745464700303132333423
:101FA00035363738394142434445460030313233C3
:101FB0003435363738396162636465660000000085
:101FC000F8B500BFF8BC08BC9E467047F8B500BF26
:101FD000F8BC08BC9E467047E5040000C104000040
:101FE00080F5E409603D790280F5E40980F5E409B3
:101FF00080F5E40980F5E40980F5E409200000207B
:1020000000000000000000000000000000000000D0
:1020100000000000000000000000000000000000C0
:1020200000000000000000000000000000000000B0
:1020300000000000000000000000000000000000A0
:102040000000000000000000000000000000000090
:102050000000000000000000000000000000000080
:040000030000019167
:00000001FF
