:020000042000DA
:1000000000000120910100207F03002081030020D7
:1000100083030020850300208703002000000000E8
:100020000000000000000000000000008903002024
:100030008B030020000000008D0300208F030020B0
:1000400091030020930300209503002097030020D4
:10005000990300209B0300209D0300209F030020A4
:10006000A1030020A30300207909002099090020A2
:10007000A9030020AB030020AD030020AF03002044
:10008000B1030020B3030020B5030020B10F00200E
:10009000B9030020BB030020BD030020BF030020E4
:1000A000C1030020C3030020C50300201116002057
:1000B00005170020CB030020CD030020CF03002034
:1000C000D1030020D3030020D5030020D703002054
:1000D000D9030020DB030020DD030020DF03002024
:1000E000E1030020E3030020E5030020E7030020F4
:1000F000E9030020EB030020ED030020EF030020C4
:10010000F1030020F3030020F5030020F703002093
:10011000F9030020FB030020FD030020FF03002063
:10012000010400200304002005040020070400202F
:10013000090400200B0400200D0400200F040020FF
:1001400011040020130400201504002017040020CF
:10015000190400201B0400201D0400201F0400209F
:10016000210400202304002025040020270400206F
:10017000290400202B0400202D0400202F0400203F
:1001800031040020330400200000000000000000C3
:100190004FF0000BDFF8BE020068DFF8B612096806
:1001A00001F0030100F01C00142801D14BF0020BF8
:1001B000002901D04BF0010BBBF1000F05D0A7487F
:1001C000A749DFF8722200F09FF8A64880470BF09D
:1001D000020ABAF1000F0CD0DFF86E02DFF86E12DF
:1001E00002680B680FB44FF000024FF0FF0302608B
:1001F0000B609D489D4A9E4B022808D1DFF83E12B5
:100200000A60DFF842120A60DFF836120B6001283C
:1002100008D1DFF82E120A60DFF82A120A60DFF830
:100220001E120B609348002809D193489349944AC1
:1002300000F032F893489449944A00F02DF894481D
:100240009449954A00F028F894489549DFF8E6214A
:1002500000F05AF8BBF1000F12D092489249DFF833
:10026000DA2100F051F80BF0020ABAF1000F07D0C2
:100270000FBC02600B6000BFAFF30080AFF30080E3
:10028000DFF828020FF2030E00474FF000004FF096
:100290000001DFF81CF2FEE72DE9F841884225D085
:1002A000B2EB010200D5FEE740EA010313F00303BD
:1002B00002D000F01DF819E04FF000039046121133
:1002C000F7D09A421CBFF0C8F0C103F10103F8D186
:1002D00008F00F08B8F1000F08D004780C7000F196
:1002E000010001F10101B8F10108F6D1BDE8F88182
:1002F00008B54FF0000303780B7000F1010001F125
:100300000101013AF7D108BD884237D000F0030659
:10031000002E14D04FF00405A5EB06044FF008079B
:1003200007FB06F8914669FA08F9002C07D080F817
:10033000009069FA07F900F10100013CF5E74FF080
:1003400000060F46091A88460911914614461546BB
:10035000B14206D018BFA0E8340206F10106B1424E
:10036000F8D108F00F08B8F1000F07D002704FEA7B
:10037000322200F10100B8F10108F4E77047FEE70E
:10038000FEE7FEE7FEE7FEE7FEE7FEE7FEE7FEE745
:10039000FEE7FEE7FEE7FEE7FEE7FEE7FEE7FEE735
:1003A000FEE7FEE7FEE7FEE7FEE7FEE7FEE7FEE725
:1003B000FEE7FEE7FEE7FEE7FEE7FEE7FEE7FEE715
:1003C000FEE7FEE7FEE7FEE7FEE7FEE7FEE7FEE705
:1003D000FEE7FEE7FEE7FEE7FEE7FEE7FEE7FEE7F5
:1003E000FEE7FEE7FEE7FEE7FEE7FEE7FEE7FEE7E5
:1003F000FEE7FEE7FEE7FEE7FEE7FEE7FEE7FEE7D5
:10040000FEE7FEE7FEE7FEE7FEE7FEE7FEE7FEE7C4
:10041000FEE7FEE7FEE7FEE7FEE7FEE7FEE7FEE7B4
:10042000FEE7FEE7FEE7FEE7FEE7FEE7FEE7FEE7A4
:10043000FEE7FEE7704700000000A2A2A2A2008033
:100440000340088003401080034030800340348024
:1004500003403880034018080240000000F00020EC
:1004600000000120C918002000000000000000006A
:10047000010000000000000000000020000000203B
:1004800090010020C0040020C0040020A02E002005
:10049000A02E0020A02E0020202F0020202F0020A2
:1004A000303000203030002000F00020B51F002048
:1004B000851C00200000000000000000000000007B
:1004C00010B5054C237833B9044B13B10448AFF38E
:1004D00000800123237010BD202F002000000000A9
:1004E000742E002008B5034B1BB103490348AFF33A
:1004F000008008BD00000000242F0020742E002082
:1005000080B582B000AF0023FB710D4B1A68BB1D94
:1005100010461946012200F0CFF90346FB71FB7922
:10052000002BF2D0064B1A68BB1D1046194601225B
:1005300000F006F9BB7918460837BD4680BD00BFFC
:10054000D42A002090B587B000AF0023FB75FC7D56
:10055000FFF7D6FF03461A4607F11803234403F8B2
:10056000142CFB7D5A1CFA7507F11802134413F87A
:10057000143C0D2B02D0FB7D082BE8D9FB7D07F145
:1005800018021344002203F8142C3B1D18460021C6
:100590000A2201F079FE38613B6918461C37BD46D6
:1005A00090BD00BF0FB480B584B000AF07F11C034D
:1005B0007B6007F108031846B9697A6801F086FE86
:1005C000F860FB68B3F1FF3F0CD0094B1968BA68BB
:1005D000FB68084611461A4600F0B2F8BB68184698
:1005E00001F00CFD1037BD46BDE8804004B07047F7
:1005F000D42A002080B483B000AF0346FB710949C0
:1006000097F907305B09FA7902F01F02012000FA1E
:1006100002F2603341F823200C37BD465DF8047BBD
:10062000704700BF00E100E080B483B000AF7860A5
:100630000B46FB707B6803F070427B68C3F31303C7
:100640005B011344FA789200134403F100731A46D5
:10065000012313600C37BD465DF8047B704700BF73
:1006600080B483B000AF78600B46FB707B6803F00A
:1006700070427B68C3F313035B011344FA78920062
:10068000134403F100731A46002313600C37BD4670
:100690005DF8047B704700BF80B483B000AF786022
:1006A0000B46FB707B6803F070427B68C3F3130357
:1006B0005B011344FA789200134403F100731B6842
:1006C000DBB218460C37BD465DF8047B704700BFAF
:1006D00080B584B000AFF860B9601346FB71FB6869
:1006E000144A934204D0FB68134A934200D000BEE0
:1006F000FB79F868B9681A4600F002FAFB681B68D3
:10070000303318460321FFF7ABFFFB681B68343317
:1007100018460221FFF7A4FFFB681B683833184610
:100720000021FFF79DFFFB68044A5A621037BD465F
:1007300080BD00BFD42F0020942F0020C90E0020C0
:1007400080B489B000AFF860B9607A600023FB61C3
:10075000FB682A4A934204D0FB68294A934200D09E
:1007600000BEBB68002B00D100BE7B68002B00D10F
:1007700000BEFB68214A934203D0FB68204A9342A3
:1007800037D1BB68002B34D07B68002B31D0FB689D
:100790001B681B7DFB74FB685A7BFB7C1343DAB23E
:1007A000FB685A73FB7C03F02003002B1ED0102340
:1007B0007B617B680F2B01D87B687B610023BB6169
:1007C0000CE0FB681B68B968FA690A4412781A7071
:1007D000FB690133FB61BB690133BB61BA697B69AA
:1007E0009A42EED37A68BB69D31A7B607B68002B90
:1007F000CDD12437BD465DF8047B7047D42F00204F
:10080000942F002080B487B000AF78603960002357
:100810007B617B68264A934204D07B68254A9342D9
:1008200000D000BE3B68002B00D100BE7B68204A90
:10083000934203D07B681F4A934233D13B68002B1D
:1008400030D03A687B6913441B78FB7327E07B68E0
:100850001B681B7DBB737B685A7BBB7B1343DAB27F
:100860007B685A73BB7B03F02003002BEFD000237F
:100870003B610EE07B681B68FA7B1A703B690133B1
:100880003B617B6901337B613A687B6913441B7868
:10089000FB73FB7B002B02D03B690F2BEAD9FB7B60
:1008A000002BD4D11C37BD465DF8047B704700BFD8
:1008B000D42F0020942F002080B487B000AFF860C0
:1008C000B9607A6000237B610023FB74FB68284ACF
:1008D000934204D0FB68274A934200D000BEBB6815
:1008E000002B00D100BE7B68002B00D100BEFB684E
:1008F0001F4A934203D0FB681E4A934230D1BB6823
:10090000002B2DD07B68002B2AD0FB681B681B7D39
:10091000FB74FB685A7BFB7C1343DAB2FB685A73A7
:1009200015E0BA687B691344FA6812681278D2B28B
:100930001A707B6901337B61FB681B681B7DFB744C
:10094000FB685A7BFB7C1343DAB2FB685A73FB7C6F
:1009500003F00103002B03D07A697B689A42E0D34D
:100960007B6918461C37BD465DF8047B704700BFA5
:10097000D42F0020942F0020684620F007018D46D8
:1009800089B500AF034800F0A7F9BD46BDE889402E
:1009900085467047D42F0020684620F007018D4619
:1009A00089B500AF034800F097F9BD46BDE889401E
:1009B00085467047942F002080B588B000AF7860DE
:1009C00039607B684A4A934204D07B68494A934223
:1009D00000D000BE7B68464A934204D07B68454AFB
:1009E000934240F082807B683A689A6000F0A4FFEE
:1009F0007B683F4A934203D13F4B1B68FB6102E097
:100A00003E4B1B68FB61FB69DA003B68B2FBF3F30A
:100A1000BB61BB695B087B617B699B093B613B698F
:100A20009B017A69D31AFB603B69DB01BA69D21A70
:100A3000FB685B00D31AFA681344FB603B69B3F5AB
:100A4000803F00D300BE3B69B3F5803F4DD23B6988
:100A5000012B2AD97B681B680C3318460721FFF746
:100A6000E3FD7B681B683A69120AD2B21A717B688F
:100A70001B683A69D2B21A707B681B680C3318463F
:100A80000721FFF7EDFD7B681B683033184607210F
:100A9000FFF7CAFDFB68FF2B00D900BE7B681B680F
:100AA000FA68D2B283F83C201FE07B681B680C33E5
:100AB00018460721FFF7B8FD7B681B683A69120AE0
:100AC000D2B21A717B681B683A69D2B21A707B681D
:100AD0001B680C3318460721FFF7C2FD7B681B68B3
:100AE000303318460721FFF7BBFD2037BD4680BDD8
:100AF000D42F0020942F0020A42E0020A82E002008
:100B000080B584B000AFF860B9601346FB71FB6834
:100B10006D4A934204D0FB686C4A934200D000BEF9
:100B2000FB68694A934216D1FB684FF080421A6015
:100B3000FB680A221A71664A654B9B6C43F080037E
:100B400093640A20FFF756FD614A614B9B6C23F0CA
:100B50008003936414E0FB685E4A1A60FB680B2212
:100B60001A715B4A5A4B9B6C43F4807393640B205D
:100B7000FFF740FD564A564B9B6C23F480739364F9
:100B8000FB681B6800221A71FB681B6800221A723E
:100B9000FB681B68083318460121FFF745FDFB6819
:100BA0001B68083318460221FFF73EFDFB681B68EF
:100BB000083318460021FFF737FDFB681B68103328
:100BC00018460421FFF74CFDFB681B6810331846DC
:100BD0000521FFF745FDFB681B68343318460121EA
:100BE000FFF73EFDFB681B68343318460021FFF712
:100BF00037FDFB681B68383318460121FFF730FDCD
:100C0000FB681B68303318460521FFF729FDFB6898
:100C10001B68303318460621FFF722FDFB681B686E
:100C2000303318460721FFF71BFDFB681B6838337C
:100C300018460321FFF714FDFB681B68002283F8A8
:100C40004420FB681B68002283F84820FB681B686F
:100C5000002283F84C20F868B968FFF7ADFEFB6806
:100C60001B68FA791A73FB68BA689A60FB68FA79AC
:100C70001A73FB6800225A61FB6800221A61FB6844
:100C800000229A61FB6800221A62FB6800225A6205
:100C9000FB680022DA61FB6800229A62FB6800228E
:100CA000DA62FB6800221A63FB6800225A63FB6861
:100CB00000229A63FB680022DA63FB6800225A7301
:100CC0001037BD4680BD00BFD42F0020942F0020D8
:100CD000008003400000014080B584B000AF786020
:100CE0007B68774A934204D07B68764A934200D06F
:100CF00000BE7B68724A934204D07B68714A93427B
:100D000040F0DB807B681B681B7ADBB203F00F03CB
:100D1000FB73FB7B0C2B00F2CE8001A252F823F078
:100D2000550D0020B70E0020730D0020CD0D0020C2
:100D3000910D0020B70E0020AF0D0020B70E00204F
:100D4000B70E0020B70E0020B70E0020B70E00200F
:100D5000910D00207B689B6A002B00D100BE7B6850
:100D60009B6A002B04D07B689B6A78689847A4E054
:100D7000A3E07B685B6A002B00D100BE7B685B6AE6
:100D8000002B04D07B685B6A7868984795E094E014
:100D90007B681B6A002B00D100BE7B681B6A002B9E
:100DA00004D07B681B6A7868984786E085E07B689A
:100DB000DB69002B00D100BE7B68DB69002B04D00F
:100DC0007B68DB697868984777E076E07B681B682A
:100DD000283318460021FFF75FFC0346002B0CD098
:100DE0007B68DB6A002B00D100BE7B68DB6A002BCE
:100DF00003D07B68DB6A786898477B681B68283378
:100E000018460121FFF748FC0346002B0CD07B68F5
:100E10001B6B002B00D100BE7B681B6B002B03D02B
:100E20007B681B6B786898477B681B68283318467B
:100E30000221FFF731FC0346002B0CD07B685B6B73
:100E4000002B00D100BE7B685B6B002B03D07B685E
:100E50005B6B786898477B681B68283318460321CA
:100E6000FFF71AFC0346002B0CD07B689B6B002B12
:100E700000D100BE7B689B6B002B03D07B689B6B13
:100E8000786898477B681B68283318460421FFF769
:100E900003FC0346002B0DD07B68DB6B002B00D1DD
:100EA00000BE7B68DB6B002B04D07B68DB6B786853
:100EB000984702E001E000BE00BF1037BD4680BD8C
:100EC000D42F0020942F002080B586B000AF78602A
:100ED0007B68354A934204D07B68344A934200D001
:100EE00000BE7B681B69002B00D100BE7B685B697C
:100EF000002B00D100BE7B682B4A934203D07B6855
:100F00002A4A93424CD17B681B69002B48D07B68EE
:100F10005B69002B44D07B681B681B7DFB737B687F
:100F20005A7BFB7B1343DAB27B685A73FB7B03F07B
:100F30002003002B24D010233B617B685A697B6817
:100F40009B69D31ABB60BB680F2B01D8BB683B61A0
:100F500000237B6110E07B681B687A6811697A68FE
:100F600092690A4412781A707B689B695A1C7B68E4
:100F70009A617B6901337B617A693B699A42EAD362
:100F80007B689A697B685B699A4209D17B68002219
:100F90005A617B681B68043318460121FFF760FB28
:100FA0001837BD4680BD00BFD42F0020942F0020ED
:100FB00080B582B000AF0F4B5B68FB710D4B9B6837
:100FC000DAB2FB791340FB71FB7903F00203BB71CA
:100FD000BB79002B01D000F0E7F8FB7903F00103A7
:100FE0007B717B79002B01D000F006F80837BD46F5
:100FF00080BD00BF0060014080B584B000AF634B8E
:101000001B78022B3FD0052B6BD0012B40F0AD801D
:101010005F4B1B889BB2002B30D05E4B1A685C4B39
:101020001B889BB21046194600F006FAF860584B30
:101030001B889BB21A46FB689A420FD9544B1B88F7
:101040009AB2FB689BB2D31A9AB2514B1A80514B99
:101050001A68FB6813444F4A13600EE04C4B0022A1
:101060001A804D4B1B68002B03D0484B02221A708C
:1010700003E0464B03221A7004E003E000BE00F0D8
:10108000B5F97FE07EE0444B1B68002B24D0434B36
:101090001A68414B1B681046194600F0CDF9B8603C
:1010A0003D4B1B68BA689A420CD23B4B1A68BB682E
:1010B000D31A394A1360394B1A68BB681344374A4C
:1010C00013600DE0364A364B9B6823F001039360B2
:1010D0002E4B03221A7003E000BE00F087F951E0A6
:1010E00050E02D4B1B68002B1BD12E4B1B68002B97
:1010F00014D02C4B1B68294898470246264B1A608F
:10110000254B1B68002B0CD1254A254B9B6823F0EF
:10111000010393601D4B03221A7002E000BE00F031
:1011200065F91D4B1B68002B09D11D4A1C4B9B68A0
:1011300023F001039360154B03221A7022E0174B32
:101140001A68154B1B681046194600F075F978604F
:10115000114B1A687B68D31A0F4A13600F4B1A6839
:101160007B6813440D4A13600CE00D4A0C4B9B68DE
:1011700023F001039360002000F018F9034B0022D4
:101180001A7000BF1037BD4680BD00BF612F002020
:10119000442F0020402F00204C2F0020482F0020FB
:1011A000006001405C2F002080B584B000AF794B17
:1011B0001B69FB81FB8923F4FF4323F07F03BB8181
:1011C000FB89FB72744B1B78052B00F2D88001A2BF
:1011D00052F823F0ED11002069130020691300205C
:1011E00045120020931200203D130020BB89002BE4
:1011F00027D0FB7AF12B06D0FB7ABB72BB7A18465C
:1012000000F04CF91DE0654B00221A80644B1B680E
:10121000624A128892B21344FA7A1A705F4B1B88A2
:101220009BB201339AB25D4B1A805D4B1B685B4ADF
:10123000128892B2134400221A70574B04221A707B
:10124000A4E0A3E0BB89002B22D0FB7A7B72554B34
:101250001B78DBB27A7A9A4215D1504B00221A8061
:101260004F4B1B684D4A128892B213447A7A1A7017
:101270004A4B1B889BB201339AB2484B1A80464BAB
:1012800004221A7004E07B7A184600F007F97DE02A
:101290007CE0BB89002B06D0FB7A3B723B7A184678
:1012A00000F0FCF849E03E4B1A683C4B1B889BB2AF
:1012B000013B13441B78F12B16D1394B1B68374A7D
:1012C000128892B21344FA7A1A70354B1A68334B6B
:1012D0001B889BB2013B13441B78184600F0DEF8D4
:1012E0002D4B00221A7028E02C4B1B889AB22E4BF3
:1012F0001B889A4210D2FB7AFB71294B1B68274A44
:10130000128892B21344FA791A70244B1B889BB24C
:1013100001339AB2214B1A80204B1B889AB2224B80
:101320001B889A4209D11D4B1B889BB2184600F0BE
:101330003DF8194B00221A7028E027E0BB89002BEA
:101340000BD1174B1B680133FA7A1A70022000F098
:101350002DF8114B00221A7018E0FB7ABB71BB7993
:10136000184600F09BF811E0BB89002B06D0FB7AF1
:101370007B717B79184600F091F807E006E00020C9
:1013800000F014F8044B00221A7000BF1037BD465D
:1013900080BD00BF00600140612F0020562F00205B
:1013A000502F00203C2F0020542F002080B582B009
:1013B00000AF0346FB800A4B1B68002B0DD0084B87
:1013C0001B68084A1168FA88084611469847044B7A
:1013D00000221A60044B00221A700837BD4680BDF7
:1013E000582F0020502F0020602F002080B582B0A1
:1013F00000AF0E4B1B78DBB2002B13D00C4B1B88BD
:101400009BB21846FFF7D2FF0A4A0A4B1B6843F00B
:1014100001031360074B1B6803F001037B607B68CB
:10142000002BF7D10837BD4680BD00BF602F0020DC
:10143000562F00200060014080B485B000AF786076
:101440003960154A144B1B6823F004031360002312
:10145000FB60114B5B6803F00103BB600DE00E49BC
:101460007A68FB6813441B780B61FB680133FB60EF
:10147000094B5B6803F00103BB60BB68002B03D022
:10148000FA683B689A42EAD3FB6818461437BD46AF
:101490005DF8047B704700BF0060014080B582B0FA
:1014A00000AF0346FB71064B1B68002B04D0044BB6
:1014B0001B68FA79104698470837BD4680BD00BFC3
:1014C000642F002090B484B000AFF860B9607A60F7
:1014D000FB704B484B4B1A68F97813469B0013443A
:1014E000DB01034403F5E07359604749454B1A6833
:1014F00013469B0013449B000B44FA685A60424910
:10150000404B1A6813469B0013449B000B44BA6877
:101510009A603D483B4B19683B4C3A4B1A6813465E
:101520009B0013449B00234408335B681A0C12048D
:101530000B469B000B449B00034408335A607B68B6
:10154000B3F5803F0FD97B68A3F580332F4A136131
:10155000BB6803F580332D4AD360FB6803F5803305
:101560002A4A936019E02848264B1A68264C254BD6
:1015700019680B469B000B449B00234408335B68AF
:10158000796889B2194313469B0013449B000344B6
:10159000083359601D4B00221A611B48194B1A6809
:1015A000194C184B19680B469B000B449B002344B5
:1015B00008335B6843F4E00113469B0013449B002F
:1015C0000344083359600E490E4B1A6813469B00BA
:1015D0001344DB010B4403F5E07301221A60084950
:1015E000084B1A6813469B001344DB010B4403F5B8
:1015F000E47300225A601037BD4690BC704700BFAC
:1016000000002842802F002000400140682F002069
:10161000684620F007018D4691B500AF344A354B3E
:101620001B6803F52873012142F823103248314B1F
:101630001A68314C2F4B19680B469B000B449B00DA
:10164000234408335B6823F4E00113469B001344F2
:101650009B00034408335960264B1B680133254A1D
:101660001360244B1B68042B02D1224B00221A600A
:10167000224B1B69002B17D0214B1B68042B03D175
:101680001F4B00221A6004E01D4B1B6801331C4AEB
:1016900013601A4B9868194BD968184B1A69174B85
:1016A0001B7DFFF70FFF1EE01349124B1A6813460C
:1016B0009B0013449B000B4408335B6803F4E00376
:1016C000002B10D10B4B00221A600D4B00221A6028
:1016D0000A4B01221A70094B5B68002B03D0074BA1
:1016E0005B6801209847BD46BDE89140854670473C
:1016F00000002842842F002000400140682F002075
:10170000802F0020684620F007018D4681B583B008
:1017100000AF384B1B683B603B6803F470633B6071
:101720003B68002B2FD03449344B1A6813469B007A
:101730001344DB010B4403F502731B68002B0AD032
:101740002F4B02221A702E4B5B68002B03D02C4BC0
:101750005B68022098472849284B1A6813469B006B
:101760001344DB010B4403F502735B68002B0AD0C2
:10177000234B03221A70224B5B68002B03D0204BB3
:101780005B68032098471B4B1B683B603B6803F476
:1017900070433B603B68002B0AD0194B04221A703F
:1017A000174B5B68002B03D0154B5B6804209847F0
:1017B00000237B6014E010497A6813469B001344B1
:1017C000DB010B4403F5E47301221A600A4A7B68CB
:1017D00003F52873012142F823107B6801337B60F5
:1017E0007B68032BE7D90C37BD46BDE881408546B1
:1017F000704700BF0040014000002842842F0020B5
:10180000682F002080B483B000AF7860FEE700BF8F
:1018100080B485B000AFF860B9607A603B600023A7
:1018200018461437BD465DF8047B704780B586B016
:1018300000AF78601F4B1B68002B02D11D4B1E4A66
:101840001A601C4B1B687B61EFF308833B61194BEB
:101850001A683B699A420FD2164B1A687B681A4481
:101860003B699A421AD900200121144A1923FFF733
:10187000CFFF0120FFF7C6FF114BFB600D4B1A682D
:101880007B681A44FB689A4208D9002001210D4A5E
:101890001923FFF7BDFF0120FFF7B4FF054B1A68BE
:1018A0007B681344034A13607B6918461837BD46AA
:1018B00080BD00BF882F0020303000209C2A0020EF
:1018C00000F00020B82A002080B582B000AF00F000
:1018D000B1F9144A134B5B6943F400735361124B23
:1018E0009B68002B05D1114B1B681148194600F06D
:1018F00009F9FEF79FFD0C4A0B4B9B6C23F48033D8
:1019000093640C4A0B4B1B6843F003031360094BB1
:101910005B6803F001037B607B68002BF7D008371E
:10192000BD4680BD00ED00E0008003408C29002012
:10193000902900200020024080B588B000AF2F4BD6
:10194000D3F8983003F08063FB61FB69002B4BD127
:101950002A4BD3F8983003F48053BB61BB69002B4A
:1019600015D1274B274A1A60274B264A1A60274B66
:10197000244A1A60264B274A1A60274B214A1A60CC
:10198000264B204A1A60264B1E4A1A602BE0254A35
:101990003B1D1068516803C3184BD3F89C309B095A
:1019A00003F007037B613A1D7B6913441B78FB74CA
:1019B000FB7C012B0AD0022B0DD0002B0FD100F0A5
:1019C00035F8F860F86800F04FF80CE04FF400408C
:1019D00000F04AF807E0144800F046F803E0124827
:1019E00000F042F800BF05E000F020F8F860F86869
:1019F00000F03AF82037BD4680BD00BF00800340AC
:101A0000A02E002080F5E409A42E0020A82E00209E
:101A1000AC2E0020603D7902B02E0020B42E0020B4
:101A2000B82E0020CC2A002040420F0080B483B0A2
:101A300000AF0A4BD3F8503103F004033B603B681E
:101A4000002B02D1064B7B6001E0064B7B607B687C
:101A500018460C37BD465DF8047B70470080034094
:101A600040787D0180F0FA0280B483B000AF7860E6
:101A70000C4A7B6813600C4A7B6813600B4A7B68D6
:101A800013600B4B0B4A1A600B4A7B6813600B4ABE
:101A90007B6813600A4A7B6813600C37BD465DF8AB
:101AA000047B7047A02E0020A42E0020A82E00202A
:101AB000AC2E0020603D7902B02E0020B42E002014
:101AC000B82E002080B487B000AFF860B9607A60AB
:101AD00000237B610CE07B699B00FA6813447A6900
:101AE0005200B9680A4412881A607B6901337B612D
:101AF0007A697B689A42EED31C37BD465DF8047B59
:101B0000704700BF80B584B000AF786039607B68F3
:101B1000FB603B68BB60B868F9683922FFF7D2FF09
:101B20007B687233FB603B6803F50773BB60B86882
:101B3000F9684122FFF7C6FF7B68B3F8F4301A4614
:101B40003B68C3F800247B68B3F8F6301A463B685C
:101B5000C3F804247B68B3F8F8301A463B68C3F82E
:101B600008247B68B3F8FA301A463B68C3F80C24A3
:101B70007B68B3F8FC301A463B68C3F810247B68D6
:101B8000B3F8FE301A463B68C3F814247B68B3F8F8
:101B900000311A463B68C3F818247B68B3F8023159
:101BA0001A463B68C3F81C247B68B3F804311A4614
:101BB0003B68C3F840247B68B3F806311A463B689B
:101BC000C3F844247B68B3F808311A463B68C3F86D
:101BD00048243B6801221A6000BF3B68D3F8E43018
:101BE000002BFAD01037BD4680BD00BF80B483B053
:101BF00000AF0E4BD3F84C313B603B684FF602020E
:101C0000934203D00A4A934203D005E001237B604C
:101C100005E002237B6002E000237B6000BF7B685D
:101C200018460C37BD465DF8047B704700800340C2
:101C300002F8010080B582B000AFFFF7D7FF7860EF
:101C40007B68012B00D002E000F004F800BF0837E9
:101C5000BD4680BD80B400AF094A094BD3F8983027
:101C600043F48073C2F89830054A054BD3F8983096
:101C700023F08063C2F89830BD465DF8047B70475E
:101C80000080034080B586B000AF0023FB710023C5
:101C9000BB713F4B03224FF416511846FEF718FD57
:101CA0003B4B3C491846FEF7ADFDFEF74BFC0346A7
:101CB000BB71BB79013B032B65D801A252F823F01D
:101CC000D11C0020251D0020411D0020691D002081
:101CD0003148FEF767FCFEF735FC03467B612F4871
:101CE000FEF760FCFEF72EFC03463B612C48FEF736
:101CF00059FCFEF727FC0346FB602A48FEF752FC1E
:101D0000FEF720FC0346BB603A697969002000F0C9
:101D1000EFF8BA68F968012000F0EAF82248FEF707
:101D200041FC34E03A697969002000F0E1F8BA68D2
:101D3000F968012000F0DCF81B48FEF733FC26E0D0
:101D40001A48FEF72FFC3A697969002000F09AF8EA
:101D50001748FEF727FCBA68F968012000F092F8EE
:101D60001148FEF71FFC12E078693969FA68BB6810
:101D700000F024F80F48FEF715FCBA6879690220D4
:101D800000F080F803E00C48FEF70CFC00BF87E78A
:101D9000D42F0020D82A00209C2B0020BC2B002010
:101DA000E02B0020002C0020242C0020582C0020A8
:101DB000682C0020782C0020902C002080B58AB060
:101DC00000AFF860B9607A603B604FF020437B6100
:101DD0004FF022433B614FF024437B62BA687B683B
:101DE0009A4203D02648FEF7DDFB44E000233B6225
:101DF0003DE00023FB6133E07B6A00221A60002390
:101E0000BB6123E03B6ABA6802FB03F31A46BB6975
:101E100013449B0003F120437B61BB693A6802FBDA
:101E200003F31A46FB6913449B0003F122433B6111
:101E30007B6A1A687B691B683969096801FB03F3CF
:101E40001A447B6A1A60BB690133BB61BA69BB681B
:101E50009A42D7DB7B6A04337B62FB690133FB6107
:101E6000FA693B689A42C7DB3B6A01333B623A6AD4
:101E7000FB689A42BDDB00BF2837BD4680BD00BF6E
:101E8000C02C002080B588B000AF0346B9607A60EE
:101E9000FB73FB7B184600F061F80346FB610023EF
:101EA000BB6118E000237B610BE0FB691B681946EE
:101EB0000D48FEF777FBFB690433FB617B69013357
:101EC0007B617B697A689A42EFD80848FEF76AFB23
:101ED000BB690133BB61BB69BA689A42E2D800BFF3
:101EE00000BF2037BD4680BD082D00200C2D0020EE
:101EF00080B588B000AF0346B9607A60FB73FB7BA6
:101F0000184600F02BF80346FB610023BB6119E083
:101F100000237B610FE07A69B9690F48FEF742FB45
:101F2000FEF710FB0246FB691A60FB690433FB6194
:101F30007B6901337B617A697B689A42EBD3BB6929
:101F40000133BB61BA69BB689A42E1D300BF00BFED
:101F50002037BD4680BD00BF102D002080B582B067
:101F600000AF0346FB71FB79022B12D0022B16DC6B
:101F7000002B02D0012B06D011E00B48FEF712FB1C
:101F80004FF020430CE00948FEF70CFB4FF02243D2
:101F900006E00748FEF706FB4FF0244300E000236D
:101FA00018460837BD4680BD582C0020682C0020FC
:101FB000302D002070B500260C4D0D4C641BA41074
:101FC000A64209D100F056FF00260A4D0A4C641BB8
:101FD000A410A64205D170BD55F8043B98470136C0
:101FE000EEE755F8043B98470136F2E78C2E0020C7
:101FF0008C2E00208C2E0020902E0020024B0146BB
:10200000186800F011B800BFBC2E00200A449142AD
:1020100000F1FF3300D1704710B511F8014B914228
:1020200003F8014FF9D110BD38B50546002943D05A
:1020300051F8043C0C1F002BB8BFE41800F050F915
:102040001E4A1368104633B9636014602846BDE821
:10205000384000F04BB9A3420AD921686218934274
:1020600001BF1A685B685218226063600460EDE784
:102070001A465B680BB1A342FAD911685018A04206
:102080000BD120680144501883421160DED11868DA
:102090005B68014411605360D8E702D90C232B60C0
:1020A000D4E7206821188B4201BF19685B680918C2
:1020B000216063605460C9E738BD00BF8C2F0020E9
:1020C000F8B5CD1C25F0030508350C2D38BF0C25BF
:1020D000002D064601DBA94203D90C233360002002
:1020E000F8BD00F0FDF821490A6814469CB9204F5C
:1020F0003B6823B92146304600F03CF83860294659
:10210000304600F037F8431C23D10C2330463360AF
:1021100000F0ECF8E3E723685B1B17D40B2B03D923
:1021200023601C44256004E06368A2420CBF0B607E
:102130005360304600F0DAF804F10B00231D20F064
:102140000700C21ACCD01B1AA350C9E72246646804
:10215000CCE7C41C24F00304A042E3D0211A30468B
:1021600000F008F80130DDD1CFE700BF8C2F002050
:10217000902F002038B50023054D044608462B60FB
:10218000FFF754FB431C02D12B6803B1236038BD19
:10219000143000202DE9F0478C468646394E6046C3
:1021A0001CF8014BA55D15F00805F8D12D2C33D195
:1021B0004FF001089CF8004000F1020C002B5CD0AD
:1021C000102B0CD1302C0AD19CF8000000F0DF005D
:1021D00058284DD110239CF801400CF1020C002628
:1021E00008F10047013FB7FBF3F9304603FB197ACA
:1021F000A4F13005092D18D82C46A34224DD751C06
:1022000007D081451DD301D1A2451ADB012600FB71
:1022100003401CF8014BEBE72B2C08BF9CF8004057
:10222000A84608BF00F1020CC8E7A4F14105192D2A
:1022300001D8373CE1E7A4F16105192D04D8573CDA
:10224000DBE74FF0FF36E4E7731C06D12223384664
:10225000CEF8003042B9BDE8F087B8F1000F00D0E9
:102260004042002AF7D00EB10CF1FF311160F2E7C5
:102270003024002BB3D10823B1E7302CA4D00A239B
:10228000ADE700BF402D002013460A460146024834
:102290000068FFF77FBF00BFBC2E002030B50024D0
:1022A0000D4609499BB0CDE9031469460094029498
:1022B000059400F07DF80028A1BF009B1C70049BD2
:1022C0002B601BB030BD00BF8802FFFF13460A46DB
:1022D000014602480068FFF7E1BF00BFBC2E0020A6
:1022E000014800F0FBBA00BF1C300020014800F09C
:1022F000F6BA00BF1C3000202DE9F0478E688246F8
:102300009E420C4690461F4638D88A8912F4906F38
:1023100032D0256809690133A5EB010965694B4491
:1023200005EB450505EBD5756D109D4238BF1D4683
:10233000530531D52946FFF7C3FE064650B90C2395
:102340004FF0FF30CAF80030A38943F04003A38167
:10235000BDE8F0874A462169FFF758FEA38923F4B8
:10236000906343F08003A38126614E4426603E467D
:102370006561A5EB0905A560BE4200D93E4632461F
:102380004146206800F0BAFAA36822689B1B3244D9
:102390000020A3602260DBE72A4600F0C9FA064667
:1023A0000028E1D150462169FFF73EFEC7E7000053
:1023B0002DE9F04F98468B8907461B060D461446BB
:1023C0009DB00ED50B6963B94021FFF779FE2860F7
:1023D000286120B90C233B604FF0FF30D1E040234F
:1023E0006B610023099320238DF8293030234FF0AF
:1023F0000109CDF80C80DFF8A4818DF82A3023463E
:102400009A4613F8012B0AB1252AF9D1BAEB040B2D
:102410000BD05B46224629463846FFF76DFF013058
:1024200000F0AA80099A5A4409929AF80030002BC9
:1024300000F0A28000234FF0FF32CDE905230AF11E
:10244000010A049307938DF853301A9354460522DA
:1024500014F8011B514800F043FA049AD8B9D00689
:1024600044BF20238DF85330110744BF2B238DF830
:1024700053309AF800302A2B15D0544600204FF0E4
:102480000A0C079A214611F8013B303B092B4ED923
:10249000B0B1079214E0A0EB080309FA03F3134369
:1024A000A2460493D2E7039B191D1B680391002BDE
:1024B000BBBF5B4242F0020207930793B8BF04928E
:1024C00023782E2B0CD163782A2B35D1039B023431
:1024D0001A1D1B680392002BB8BF4FF0FF33059302
:1024E000DFF8C8A003225046217800F0F9F940B186
:1024F0004023A0EB0A0003FA00F0049B01340343DD
:10250000049314F8011B062225488DF8281000F0CA
:10251000E7F9002838D0234B1BBB039B073323F07C
:10252000070308330393099B3344099367E70C4679
:1025300001200CFB0232A5E700234FF00A0C1946DC
:1025400001340593204610F8012B303A092A03D9AB
:10255000002BC5D00591C3E7044601230CFB0121E4
:10256000F0E703AB00932A4638460F4B04A9AFF3BC
:102570000080421C0646D6D1AB895B063FF52CAFE6
:1025800009981DB0BDE8F08F03AB00932A4638468A
:10259000054B04A900F07CF8EBE700BF402E0020BB
:1025A0004A2E002000000000F9220020462E0020C4
:1025B0002DE9F047164699468A680B69074693420B
:1025C000B8BF1346336091F843200C46DDF82080F5
:1025D0000AB1013333602368990642BF336802337E
:1025E0003360256815F0060506D104F1190AE36881
:1025F00032689B1AAB4228DC94F84320131E2268F1
:1026000018BF012392062DD44946384604F14302EF
:10261000C047013020D02368E56803F00603042B8F
:1026200018BF002532684FF00006A36808BFAD1A36
:10263000226908BF25EAE5759342C4BF9B1AED18CD
:102640001A34B5421AD1002008E001235246494607
:102650003846C047013003D14FF0FF30BDE8F08766
:102660000135C4E73020E11881F843005A1C94F882
:1026700045102244023382F84310C5E70123224665
:1026800049463846C0470130E6D00136D9E7000058
:102690002DE9FF470C46277E9146782F80469A46C3
:1026A0000C9904F1430207D8622F0AD8002F00F0DA
:1026B000D980582F00F0A48004F1420684F84270BB
:1026C0003AE0A7F16303152BF6D801A050F823F0E8
:1026D000292700203D270020B9260020B926002008
:1026E000B9260020B92600203D270020B926002069
:1026F000B9260020B9260020B92600204B2800204A
:102700006D2700202D280020B9260020B9260020A2
:102710006D280020B92600206D270020B926002052
:10272000B9260020352800200B6804F142061A1D46
:102730001B680A6084F842300123A4E02568086819
:102740002E0600F104030AD505680B60002D03DA9C
:102750002D236D4284F843300A235E4819E015F0BA
:10276000400F05680B6018BF2DB2EFE70B682568B6
:10277000181D0860280601D51D6802E06906FBD512
:102780001D886F2F0CBF08230A235248002184F8AC
:1027900043106668002EA8BF2168A660A4BF21F080
:1027A000040121600DB9002E4DD01646B5FBF3F1A2
:1027B00003FB1157C75D06F8017D2F46BB420D464E
:1027C000F4D9082B0BD12368DF0708D5236961688A
:1027D0009942DEBF302306F8013C06F1FF36921B1A
:1027E00022614B4621464046CDF800A003AAFFF7E0
:1027F000DFFE01304CD14FF0FF3004B0BDE8F08770
:10280000344884F845700E68236856F8045B1F0648
:102810000E6014D5D90744BF43F0200323601DB9CF
:10282000236823F0200323601023AFE7236843F0DD
:10283000200323607823284884F84530E3E75E06C8
:1028400048BFADB2E6E71646BBE70B6826681D1D1C
:1028500060690D6035061B6801D5186002E07106DD
:10286000FBD51880002316462361BAE70B681A1DB2
:102870000A601E6800213046626800F031F808B135
:10288000801B606063682361002384F84330A8E7FD
:102890003246494640462369D0470130ABD02368D1
:1028A0009B0713D4E068039B9842B8BF1846A4E77F
:1028B0000123324649464046D04701309BD001357E
:1028C000E36803995B1AAB42F2DCEBE7002504F105
:1028D0001906F5E7512E0020622E00207047704740
:1028E000034610B5C9B202449342184601D10020F4
:1028F00003E0047801338C42F6D110BD884210B554
:1029000001EB020402D98442234607D8431EA142A8
:1029100008D011F8012B03F8012FF8E70146024413
:102920008A4200D110BD13F8014D02F8014DF7E7BE
:10293000F8B5074614460E4621B91146BDE8F840E1
:10294000FFF7BEBB22B9FFF76FFB25462846F8BD4F
:1029500000F014F8A0420FD221463846FFF7B0FB32
:1029600005460028F2D031462246FFF74FFB31469C
:102970003846FFF759FBE9E73546E7E751F8043CED
:10298000181F002BBCBF0B58C0187047000802402E
:10299000000000005E1E57020200000002018808CD
:1029A00000003F33FFFF7777770701003B420800C5
:1029B0001003440000000000C903850035026400D4
:1029C000AB0278013300C515140018000033000075
:1029D0000000060400000002400012000200004057
:1029E000F8800700F88007000002000000000400E3
:1029F0000300400000000000000000000903010087
:102A00000000000000008000000000000300000043
:102A100000000000000000000B00000000000000AB
:102A200000008000042000010800000000000000F9
:102A30000000000001000000000000000000000095
:102A4000504001051450000000000000000000008C
:102A50000000000000000000000000000000000076
:102A600050000105105000000000000000000000B0
:102A7000000043000000030001000100000000000E
:102A80000000010000000000000000000000000045
:102A900000000000000000000000000048656170B8
:102AA00020616E6420737461636B20636F6C6C696A
:102AB00073696F6E0A0000004F7574206F6620689E
:102AC000656170206D656D6F72790A00000100010B
:102AD00002020303D42F00200A0D20092A2A2A2AE1
:102AE0002A2A2A2A2A2A2A2A2A2A2A2A2A2A2A2A46
:102AF0002A2A2A2A2A2A2A2A2A2A2A2A2A2A2A2A36
:102B00002A2A2A2A2A2A2A200A0D20090909204DC0
:102B1000415452494345530A0D20312E2044696DDA
:102B2000656E73696F6E6573206465204D617472A4
:102B30006963657320200A0D20322E204564697474
:102B40006172204D61747269636573200A0D2033D0
:102B50002E204D6174726963657320416C6D6163F1
:102B6000656E61646173200A0D20342E204D756CF2
:102B70007469706C69636163696F6E204D61747212
:102B800069636573200A0D204573636F6A61207560
:102B90006E61206F7063696F6E3A20000A0D204EDF
:102BA000756D65726F2064652046696C61732028BD
:102BB0004D617472697A2041293A00000A0D204E55
:102BC000756D65726F20646520436F6C756D6E6105
:102BD0007320284D617472697A2041293A000000FF
:102BE0000A0D204E756D65726F2064652046696C14
:102BF000617320284D617472697A2042293A00007D
:102C00000A0D204E756D65726F20646520436F6CF0
:102C1000756D6E617320284D617472697A20422946
:102C20003A0000000A0D202A2A2A2A2A2A2A2A2AB9
:102C30002A2A2A2A2A2A2A2A2A2A2A2A2A2A2A2AF4
:102C40002A2A2A2A2A2A2A2A2A2A2A2A2A2A2A2AE4
:102C50002A2A200A0D0000000A0D204D61747269B5
:102C60007A2041200A0D00000A0D204D617472691E
:102C70007A2042200A0D00000A0D204D617472690D
:102C80007A20726573756C7461646F3A0A0D000086
:102C90000A0D204F7063696F6E20496E636F727208
:102CA000656374612C205675656C612061205365E5
:102CB0006C656363696F6E617221200A0D0000000C
:102CC0004E6F2073652070756564656E206D756C40
:102CD0007469706C69636172206C6173206D6174DA
:102CE00072696365732E204C61732064696D656E33
:102CF00073696F6E6573206E6F20636F696E6369B1
:102D000064656E2E0A0D0000256420000A0D000087
:102D10000A0D20456C656D656E746F204D6174728F
:102D2000697A2041202825642C2564293A00000076
:102D30000A0D204D617472697A2043200A0D00004B
:102D4000202020202020202020282828282820205B
:102D50002020202020202020202020202020202073
:102D600088101010101010101010101010101010EB
:102D700004040404040404040404101010101010CB
:102D800010414141414141010101010101010101A4
:102D900001010101010101010101011010101010D8
:102DA0001042424242424202020202020202020275
:102DB000020202020202020202020210101010209D
:102DC0000000000000000000000000000000000003
:102DD00000000000000000000000000000000000F3
:102DE00000000000000000000000000000000000E3
:102DF00000000000000000000000000000000000D3
:102E000000000000000000000000000000000000C2
:102E100000000000000000000000000000000000B2
:102E200000000000000000000000000000000000A2
:102E30000000000000000000000000000000000092
:102E4000232D302B2000686C4C0065666745464793
:102E50000030313233343536373839414243444516
:102E60004600303132333435363738396162636485
:102E700065660000F8B500BFF8BC08BC9E46704708
:102E8000F8B500BFF8BC08BC9E467047E5040020BA
:102E9000C10400200000000000000000000000004D
:102EA00080F5E40980F5E40980F5E409603D7902E4
:102EB00080F5E40980F5E40980F5E409C02E0020DE
:102EC0000000000000000000000000000000000002
:102ED00000000000000000000000000000000000F2
:102EE00000000000000000000000000000000000E2
:102EF00000000000000000000000000000000000D2
:102F000000000000000000000000000000000000C1
:102F100000000000000000000000000000000000B1
:040000052000019145
:00000001FF
