:1000000000000120910100007F0300008103000037
:100010008303000085030000870300000000000048
:100020000000000000000000000000008903000044
:100030008B030000000000008D0300008F03000010
:100040009103000093030000950300009703000054
:10005000990300009B0300009D0300009F03000024
:10006000A1030000A3030000A5030000A7030000F4
:10007000A9030000AB030000AD030000AF030000C4
:10008000B1030000B3030000B50300004106000007
:10009000B9030000BB030000BD030000BF03000064
:1000A000C1030000C3030000C5030000C509000030
:1000B000650A0000CB030000CD030000CF03000061
:1000C000D1030000D3030000D5030000D7030000D4
:1000D000D9030000DB030000DD030000DF030000A4
:1000E000E1030000E3030000E5030000E703000074
:1000F000E9030000EB030000ED030000EF03000044
:10010000F1030000F3030000F5030000F703000013
:10011000F9030000FB030000FD030000FF030000E3
:1001200001040000030400000504000007040000AF
:10013000090400000B0400000D0400000F0400007F
:10014000110400001304000015040000170400004F
:10015000190400001B0400001D0400001F0400001F
:1001600021040000230400002504000027040000EF
:10017000290400002B0400002D0400002F040000BF
:100180003104000033040000000000000000000003
:100190004FF0000BDFF8BE020068DFF8B612096806
:1001A00001F0030100F01C00142801D14BF0020BF8
:1001B000002901D04BF0010BBBF1000F05D0A7487F
:1001C000A749DFF8722200F09FF8A64880470BF09D
:1001D000020ABAF1000F0CD0DFF86E02DFF86E12DF
:1001E00002680B680FB44FF000024FF0FF0302608B
:1001F0000B609D489D4A9E4B022808D1DFF83E12B5
:100200000A60DFF842120A60DFF836120B6001283C
:1002100008D1DFF82E120A60DFF82A120A60DFF830
:100220001E120B609348002809D193489349944AC1
:1002300000F032F893489449944A00F02DF894481D
:100240009449954A00F028F894489549DFF8E6214A
:1002500000F05AF8BBF1000F12D092489249DFF833
:10026000DA2100F051F80BF0020ABAF1000F07D0C2
:100270000FBC02600B6000BFAFF30080AFF30080E3
:10028000DFF828020FF2030E00474FF000004FF096
:100290000001DFF81CF2FEE72DE9F841884225D085
:1002A000B2EB010200D5FEE740EA010313F00303BD
:1002B00002D000F01DF819E04FF000039046121133
:1002C000F7D09A421CBFF0C8F0C103F10103F8D186
:1002D00008F00F08B8F1000F08D004780C7000F196
:1002E000010001F10101B8F10108F6D1BDE8F88182
:1002F00008B54FF0000303780B7000F1010001F125
:100300000101013AF7D108BD884237D000F0030659
:10031000002E14D04FF00405A5EB06044FF008079B
:1003200007FB06F8914669FA08F9002C07D080F817
:10033000009069FA07F900F10100013CF5E74FF080
:1003400000060F46091A88460911914614461546BB
:10035000B14206D018BFA0E8340206F10106B1424E
:10036000F8D108F00F08B8F1000F07D002704FEA7B
:10037000322200F10100B8F10108F4E77047FEE70E
:10038000FEE7FEE7FEE7FEE7FEE7FEE7FEE7FEE745
:10039000FEE7FEE7FEE7FEE7FEE7FEE7FEE7FEE735
:1003A000FEE7FEE7FEE7FEE7FEE7FEE7FEE7FEE725
:1003B000FEE7FEE7FEE7FEE7FEE7FEE7FEE7FEE715
:1003C000FEE7FEE7FEE7FEE7FEE7FEE7FEE7FEE705
:1003D000FEE7FEE7FEE7FEE7FEE7FEE7FEE7FEE7F5
:1003E000FEE7FEE7FEE7FEE7FEE7FEE7FEE7FEE7E5
:1003F000FEE7FEE7FEE7FEE7FEE7FEE7FEE7FEE7D5
:10040000FEE7FEE7FEE7FEE7FEE7FEE7FEE7FEE7C4
:10041000FEE7FEE7FEE7FEE7FEE7FEE7FEE7FEE7B4
:10042000FEE7FEE7FEE7FEE7FEE7FEE7FEE7FEE7A4
:10043000FEE7FEE7704700000000A2A2A2A2008033
:100440000340088003401080034030800340348024
:1004500003403880034018080240000000F00020EC
:10046000000001200D0C0000000000000000000052
:10047000010000000000000000000000000000007B
:1004800090010000C0040000C0040000100E000035
:10049000100E000000000020A0040020A004002096
:1004A000200500202005002000F00020990C00000D
:1004B0004D0C0000000000000000000000000000E3
:1004C00010B5054C237833B9044B13B10448AFF38E
:1004D00000800123237010BDA00400200000000054
:1004E000E00D0000084B10B51BB108480849AFF3F8
:1004F00000800848036803B910BD074B002BFBD0F0
:10050000BDE81040184700BF00000000E00D0000EB
:10051000A4040020000000200000000001607047DB
:10052000006870470EB503FA01F303EA020301689D
:100530006FEA020201EA020141EA030101600EBD15
:10054000006800EA020020FA01F07047018070475D
:10055000008870470EB503FA01F303EA020301882D
:100560006FEA020201EA020141EA030101800EBDC5
:10057000008800EA020020FA01F07047017070471D
:10058000007870470EB503FA01F303EA020301781D
:100590006FEA020201EA020141EA030101700EBDA5
:1005A000007800EA020020FA01F0704730B4124CE3
:1005B00082B0236823F004032360636803F001031F
:1005C0000193019BABB181B1451E002201E08A423B
:1005D0000BD015F8013F01322361636803F001037A
:1005E0000193019B002BF2D11146084602B030BCAA
:1005F00070471946F9E700BF006001400B4B10B58A
:100600000B4C1988236889B233B10A4A106898479D
:10061000094A002313702360084B1A46196841F0F9
:10062000010119601368DB07FCD410BDDC04002055
:10063000D8040020E4040020C80400200060014029
:10064000944AF8B553689468DBB21C40A0071DD4E7
:10065000E10700D4F8BD904E3378022B60D0052B13
:100660002FD0012B4ED08B4A8C4C936823F0010382
:10067000936023683BB18A4A002110689847894AF1
:1006800000231370236000233370F8BD1069824E7D
:1006900020F4FF43327823F07F039DB2C0B2052AD5
:1006A00000F2BB80DFE812F090009C009C00A400E8
:1006B00063004F007C4B1A68002A40F08E80E307ED
:1006C000C8D57A4C236883B9794B1B68002B00F09E
:1006D000D180784898472060236833B96D4A032158
:1006E000936823F001039360317023686F4C002BF3
:1006F00040F0B480674A0321936823F001039360BC
:100700003170F8BD6C4C23889BB2002B40F0928076
:10071000644B1B78002B9DD0BDE8F840FFF76EBFFF
:10072000624C2368002BF3D0624D21682868FFF7E4
:100730003DFF23689842DDD223682A681B1A1044C3
:1007400023602860F8BD002DB4D1554B534F1A6873
:100750003B6850702BB1104602219847514B3D60C9
:100760001D7000233370E2077FF574AF7BE7002D27
:100770002FD1524A4A4913880D689BB22B4413F873
:10078000013CF12B00F0A5804D49138809889BB2EC
:100790008B4206D217881388BFB201339BB2E8554B
:1007A00013801388454A9BB299427FF451AF3B4F67
:1007B00013883A6899B2002AD3D028469047394A1C
:1007C000002313703B60CCE7002DCCD0F12800F063
:1007D0009080354B1A68002AC5D01B68984737E7C8
:1007E000002D3FF435AF304B1A68002AF5D12FE7C2
:1007F000002DB8D0334B1B789842EAD12F4A002302
:1008000013801188264D13882F68013389B29BB25B
:100810000425138078543570A5E7204D2B68002BF4
:100820009FD01F4A0021106898471E4A002313706A
:100830002B6096E7244F21883D6889B22846FFF750
:10084000B5FE23889BB298421CD30022174B22800E
:100850001B68002B3AD002233370F8BD154D216878
:100860002868FFF7A3FE2A6823680244181A2A6042
:100870002060F8BD0B4B1B78002B3FF436AFFFF721
:10088000BDFE32E7238805441B1A9BB23D602380DE
:10089000F8BD00BF00600140E8040020D80400203B
:1008A000E4040020C8040020CC040020E004002060
:1008B000C0040020D4040020D0040020DC04002068
:1008C000BC040020E9040020C4040020032333708A
:1008D000F8BD1188104F13888AB29BB23968A854AA
:1008E0001D4415F8010C00293FF43BAF3B689847C5
:1008F00037E70A4B00271F8019881A88084D0132F4
:1009000092B21A801B882D688AB29BB20421A85427
:100910003170EF5427E700BFCC040020DC04002036
:10092000E40400202DE9F041224CDFF894E0246833
:10093000214D4FEA840C0CEB04064FEA8608F701C0
:1009400008F1402606F58036BE44CEF80430454412
:100950007060B1606E68B2F5803F4FEA16464FEAAC
:1009600006466E601BD86B6892B214491A43002386
:100970006A600B616444104AA3001A445168E401A0
:1009800004F1844303F5201341F4E0010125002420
:100990005160C3F8C051C3F8CC41BDE8F081074BAA
:1009A000A2F5803201F5803100F580301A61D960FE
:1009B0009860DFE70805002008400140EC040020B3
:1009C000C0012842684620F007018D4679B52048CD
:1009D000204A0368204C03EB8301890003F5287546
:1009E000012644F825600A4451683344042B08BFAB
:1009F000002321F4E00151600360184B1A697AB1B9
:100A00001748016804290CBF002101310160986872
:100A1000D9681B7DFFF786FFBDE8794085467047A2
:100A200002680C4902EB8202920011444A68084CA9
:100A300012F4E002F0D10A4D5968012022602A60C8
:100A400018700029E8D08847BDE87940854670478E
:100A5000040500200840014000002842EC0400206A
:100A600008050020684620F007018D46244B31B56B
:100A70001B6813F4706F19D0224C23689900CA18B0
:100A8000D20102F1844202F52012D2F808223AB1D2
:100A90001D4A02205568107015B1A84723689900B7
:100AA0000B441A4ADB011A4453680BBB144B1B68F6
:100AB00013F4704F05D0144B04205A68187002B11B
:100AC0009047BDE83140124A12490123C2F8C831AB
:100AD0008546C2F8803AC2F84834C1F8803AC2F874
:100AE000C836C1F8843AC2F84839C1F8883A704724
:100AF000054B03205A681870002AD7D09047D5E7D5
:100B00000040014004050020EC04002008022842B7
:100B10000000284204002842F8B5044630B1072BF3
:100B20001E4603D8B2F5005F154600D3F8BD0F4648
:100B300001F10800D1B2FFF721FD05F47F4146EA3B
:100B4000511107F10C00FFF719FD276007F11000A4
:100B5000FFF716FD820709D520680430FFF710FD66
:100B600020681030FFF70CFD8307F5D400232371B4
:100B7000F8BD00BF98B191B18AB170B504460D4679
:100B80008E1820681030FFF7FBFCC307F9D515F865
:100B9000011B2068FFF7F2FCB542F2D170BD70472F
:100BA000F8B508B101B112B900252846F8BD0446D0
:100BB0000068174610300E46FFF7E2FC23798207E3
:100BC00043EA00032371EFD5013E002501E0BD4259
:100BD000EBD0206801350430FFF7D2FC06F8010F96
:100BE00020681030FFF7CCFC23790343237183077F
:100BF000EDD42846F8BD00BF034628B10079002295
:100C0000C0F382001A717047FF2070474FF602024E
:100C10000C4BD3F84C11914206D00B4A536943F464
:100C200000735361FFF706BCD3F8982042F480723A
:100C3000C3F89820D3F8982022F08062C3F8982057
:100C4000EBE700BF0080034000ED00E000B5104876
:100C50004FF050214FF4A272C1B00123FFF75CFFA7
:100C60000B480C496922FFF785FF0948FFF7C4FFCD
:100C70000028FAD1064869464FF48072FFF790FFCA
:100C80000028F2D0024669460148FFF773FFECE7FF
:100C90000C0500200400002070B50F4E0F4D761B90
:100CA000B61018BF002405D0013455F8043B98470E
:100CB000A642F9D10A4E0B4D00F092F8761BB61001
:100CC00018BF002406D0013455F8043B9847A642CB
:100CD000F9D170BD70BD00BFF80D0000F80D000027
:100CE000000E0000F80D0000024B13B1024800F0A6
:100CF00005B8704700000000090D00000146002003
:100D00000246034600F016B838B5084B084DED1AF8
:100D1000AC1018BFED1805D0013C55F8043D9847BC
:100D2000002CF9D1BDE8384000F060B8000E00009A
:100D3000040E00002DE9F047254C0646256888463C
:100D4000D5F8484192469946C4B360681F2817DC1D
:100D5000411C76B104EB8003C3F888A0D4F8885115
:100D6000012282401543022EC4F88851C3F808912D
:100D70001ED0831C6160002044F82380BDE8F0870A
:100D8000144B03B34FF4C870AFF300800446D0B1E6
:100D9000D5F84831002784E888003846C5F848412E
:100DA0000121C4F88871C4F88C71002EE1D0D1E71C
:100DB000D4F88C311A43C4F88C21DAE705F5A6740F
:100DC000C5F84841C1E74FF0FF30BDE8F08700BFEC
:100DD000DC0D000000000000430000007000002057
:100DE000F8B500BFF8BC08BC9E467047F8B500BF18
:100DF000F8BC08BC9E467047E90C0000E504000002
:100E0000C10400000000000000000000000000001D
:100E1000000000000A0D0A0D0A0D436F726555416E
:100E2000525461706220706F6C6C656420747261E2
:100E30006E736D697474657220616E64207265638F
:100E40006569766572206578616D706C652E200A23
:100E50000D416C6C2063686172616374657273200C
:100E600074797065642077696C6C206265206563B5
:100E7000686F6564206261636B2E0A0D00000000DC
:100E8000000000005C030020C40300202C040020AC
:100E90000000000000000000000000000000000052
:100EA0000000000000000000000000000000000042
:100EB00000000000D80D000000000000000000004D
:100EC0000000000000000000000000000000000022
:100ED0000000000000000000000000000000000012
:100EE0000000000000000000000000000000000002
:100EF00000000000000000000000000000000000F2
:100F000000000000000000000000000000000000E1
:100F100000000000000000000000000000000000D1
:100F200000000000000000000100000000000000C0
:100F30000E33CDAB34126DE6ECDE05000B00000085
:100F400000000000000000000000000000000000A1
:100F50000000000000000000000000000000000091
:100F60000000000000000000000000000000000081
:100F70000000000000000000000000000000000071
:040000030000019167
:00000001FF
