:1000000000000120910100007F0300008103000037
:100010008303000085030000870300000000000048
:100020000000000000000000000000008903000044
:100030008B030000000000008D0300008F03000010
:100040009103000093030000950300009703000054
:10005000990300009B0300009D0300009F03000024
:10006000A1030000A30300001D0700003D070000DE
:10007000A9030000AB030000AD030000AF030000C4
:10008000B1030000B3030000B5030000550D0000EC
:10009000B9030000BB030000BD030000BF03000064
:1000A000C1030000C3030000C5030000B513000036
:1000B000A9140000CB030000CD030000CF03000013
:1000C000D1030000D3030000D5030000D7030000D4
:1000D000D9030000DB030000DD030000DF030000A4
:1000E000E1030000E3030000E5030000E703000074
:1000F000E9030000EB030000ED030000EF03000044
:10010000F1030000F3030000F5030000F703000013
:10011000F9030000FB030000FD030000FF030000E3
:1001200001040000030400000504000007040000AF
:10013000090400000B0400000D0400000F0400007F
:10014000110400001304000015040000170400004F
:10015000190400001B0400001D0400001F0400001F
:1001600021040000230400002504000027040000EF
:10017000290400002B0400002D0400002F040000BF
:100180003104000033040000000000000000000003
:100190004FF0000BDFF8BE020068DFF8B612096806
:1001A00001F0030100F01C00142801D14BF0020BF8
:1001B000002901D04BF0010BBBF1000F05D0A7487F
:1001C000A749DFF8722200F09FF8A64880470BF09D
:1001D000020ABAF1000F0CD0DFF86E02DFF86E12DF
:1001E00002680B680FB44FF000024FF0FF0302608B
:1001F0000B609D489D4A9E4B022808D1DFF83E12B5
:100200000A60DFF842120A60DFF836120B6001283C
:1002100008D1DFF82E120A60DFF82A120A60DFF830
:100220001E120B609348002809D193489349944AC1
:1002300000F032F893489449944A00F02DF894481D
:100240009449954A00F028F894489549DFF8E6214A
:1002500000F05AF8BBF1000F12D092489249DFF833
:10026000DA2100F051F80BF0020ABAF1000F07D0C2
:100270000FBC02600B6000BFAFF30080AFF30080E3
:10028000DFF828020FF2030E00474FF000004FF096
:100290000001DFF81CF2FEE72DE9F841884225D085
:1002A000B2EB010200D5FEE740EA010313F00303BD
:1002B00002D000F01DF819E04FF000039046121133
:1002C000F7D09A421CBFF0C8F0C103F10103F8D186
:1002D00008F00F08B8F1000F08D004780C7000F196
:1002E000010001F10101B8F10108F6D1BDE8F88182
:1002F00008B54FF0000303780B7000F1010001F125
:100300000101013AF7D108BD884237D000F0030659
:10031000002E14D04FF00405A5EB06044FF008079B
:1003200007FB06F8914669FA08F9002C07D080F817
:10033000009069FA07F900F10100013CF5E74FF080
:1003400000060F46091A88460911914614461546BB
:10035000B14206D018BFA0E8340206F10106B1424E
:10036000F8D108F00F08B8F1000F07D002704FEA7B
:10037000322200F10100B8F10108F4E77047FEE70E
:10038000FEE7FEE7FEE7FEE7FEE7FEE7FEE7FEE745
:10039000FEE7FEE7FEE7FEE7FEE7FEE7FEE7FEE735
:1003A000FEE7FEE7FEE7FEE7FEE7FEE7FEE7FEE725
:1003B000FEE7FEE7FEE7FEE7FEE7FEE7FEE7FEE715
:1003C000FEE7FEE7FEE7FEE7FEE7FEE7FEE7FEE705
:1003D000FEE7FEE7FEE7FEE7FEE7FEE7FEE7FEE7F5
:1003E000FEE7FEE7FEE7FEE7FEE7FEE7FEE7FEE7E5
:1003F000FEE7FEE7FEE7FEE7FEE7FEE7FEE7FEE7D5
:10040000FEE7FEE7FEE7FEE7FEE7FEE7FEE7FEE7C4
:10041000FEE7FEE7FEE7FEE7FEE7FEE7FEE7FEE7B4
:10042000FEE7FEE7FEE7FEE7FEE7FEE7FEE7FEE7A4
:10043000FEE7FEE7704700000000A2A2A2A2008033
:100440000340088003401080034030800340348024
:1004500003403880034018080240000000F00020EC
:10046000000001206D1600000000000000000000E8
:10047000010000000000000000000000000000007B
:1004800090010000C0040000C0040000F02400003F
:10049000F0240000000000209000002090000020C8
:1004A000B0010020B001002000F00020F11A00008F
:1004B000B118000000000000000000000000000073
:1004C00010B5054C237833B9044B13B10448AFF38E
:1004D00000800123237010BD900000200000000068
:1004E000CC240000084B10B51BB108480849AFF3F5
:1004F00000800848036803B910BD074B002BFBD0F0
:10050000BDE81040184700BF00000000CC240000E8
:1005100094000020000000200000000080B483B0A0
:1005200000AF0346FB71094997F907305B09FA7977
:1005300002F01F02012000FA02F2603341F823208A
:100540000C37BD465DF8047B704700BF00E100E05A
:1005500080B483B000AF78600B46FB707B6803F01B
:1005600070427B68C3F313035B011344FA78920073
:10057000134403F100731A46012313600C37BD4680
:100580005DF8047B704700BF80B483B000AF786033
:100590000B46FB707B6803F070427B68C3F3130368
:1005A0005B011344FA789200134403F100731A4676
:1005B000002313600C37BD465DF8047B704700BF15
:1005C00080B483B000AF78600B46FB707B6803F0AB
:1005D00070427B68C3F313035B011344FA78920003
:1005E000134403F100731B68DBB218460C37BD4699
:1005F0005DF8047B704700BF80B584B000AFF86041
:10060000B9601346FB71FB68144A934204D0FB683F
:10061000134A934200D000BEFB79F868B9681A46C5
:1006200000F040F9FB681B68303318460321FFF7E0
:10063000ABFFFB681B68343318460221FFF7A4FFA9
:10064000FB681B68383318460021FFF79DFFFB68E5
:10065000044A5A621037BD4680BD00BF44010020E5
:10066000040100206D0C000080B487B000AF7860FA
:10067000396000237B617B68264A934204D07B6803
:10068000254A934200D000BE3B68002B00D100BE3B
:100690007B68204A934203D07B681F4A934233D140
:1006A0003B68002B30D03A687B6913441B78FB739E
:1006B00027E07B681B681B7DBB737B685A7BBB7B19
:1006C0001343DAB27B685A73BB7B03F02003002B21
:1006D000EFD000233B610EE07B681B68FA7B1A7049
:1006E0003B6901333B617B6901337B613A687B691C
:1006F00013441B78FB73FB7B002B02D03B690F2B51
:10070000EAD9FB7B002BD4D11C37BD465DF8047BB6
:10071000704700BF4401002004010020684620F01B
:1007200007018D4689B500AF034800F0A7F9BD4623
:10073000BDE889408546704744010020684620F0A6
:1007400007018D4689B500AF034800F097F9BD4613
:10075000BDE88940854670470401002080B588B017
:1007600000AF786039607B684A4A934204D07B6866
:10077000494A934200D000BE7B68464A934204D067
:100780007B68454A934240F082807B683A689A6071
:1007900000F07CFF7B683F4A934203D13F4B1B68CC
:1007A000FB6102E03E4B1B68FB61FB69DA003B68C2
:1007B000B2FBF3F3BB61BB695B087B617B699B099F
:1007C0003B613B699B017A69D31AFB603B69DB01A2
:1007D000BA69D21AFB685B00D31AFA681344FB604B
:1007E0003B69B3F5803F00D300BE3B69B3F5803F62
:1007F0004DD23B69012B2AD97B681B680C33184604
:100800000721FFF7A5FE7B681B683A69120AD2B27E
:100810001A717B681B683A69D2B21A707B681B68D0
:100820000C3318460721FFF7AFFE7B681B68303397
:1008300018460721FFF78CFEFB68FF2B00D900BE8E
:100840007B681B68FA68D2B283F83C201FE07B68A3
:100850001B680C3318460721FFF77AFE7B681B687C
:100860003A69120AD2B21A717B681B683A69D2B22D
:100870001A707B681B680C3318460721FFF784FE4B
:100880007B681B68303318460721FFF77DFE203751
:10089000BD4680BD44010020040100200800002066
:1008A0000C00002080B584B000AFF860B96013463A
:1008B000FB71FB686D4A934204D0FB686C4A93421B
:1008C00000D000BEFB68694A934216D1FB684FF026
:1008D00080421A60FB680A221A71664A654B9B6C5B
:1008E00043F0800393640A20FFF718FE614A614BCE
:1008F0009B6C23F08003936414E0FB685E4A1A60EB
:10090000FB680B221A715B4A5A4B9B6C43F4807351
:1009100093640B20FFF702FE564A564B9B6C23F460
:1009200080739364FB681B6800221A71FB681B6864
:1009300000221A72FB681B68083318460121FFF772
:1009400007FEFB681B68083318460221FFF700FE0C
:10095000FB681B68083318460021FFF7F9FDFB68A8
:100960001B68103318460421FFF70EFEFB681B6856
:10097000103318460521FFF707FEFB681B68343368
:1009800018460121FFF700FEFB681B683433184648
:100990000021FFF7F9FDFB681B6838331846012179
:1009A000FFF7F2FDFB681B68303318460521FFF79F
:1009B000EBFDFB681B68303318460621FFF7E4FDAA
:1009C000FB681B68303318460721FFF7DDFDFB6825
:1009D0001B68383318460321FFF7D6FDFB681B68F8
:1009E000002283F84420FB681B68002283F848201B
:1009F000FB681B68002283F84C20F868B968FFF791
:100A0000ADFEFB681B68FA791A73FB68BA689A60D6
:100A1000FB68FA791A73FB6800225A61FB680022AE
:100A20001A61FB6800229A61FB6800221A62FB6867
:100A300000225A62FB680022DA61FB6800229A6297
:100A4000FB680022DA62FB6800221A63FB6800225E
:100A50005A63FB6800229A63FB680022DA63FB6832
:100A600000225A731037BD4680BD00BF44010020EC
:100A700004010020008003400000014080B584B0E4
:100A800000AF78607B68774A934204D07B68764AEF
:100A9000934200D000BE7B68724A934204D07B68C8
:100AA000714A934240F0DB807B681B681B7ADBB2A3
:100AB00003F00F03FB73FB7B0C2B00F2CE8001A233
:100AC00052F823F0F90A00005B0C0000170B00003D
:100AD000710B0000350B00005B0C0000530B000095
:100AE0005B0C00005B0C00005B0C00005B0C00006A
:100AF0005B0C0000350B00007B689B6A002B00D16B
:100B000000BE7B689B6A002B04D07B689B6A786878
:100B10009847A4E0A3E07B685B6A002B00D100BE8D
:100B20007B685B6A002B04D07B685B6A78689847B7
:100B300095E094E07B681B6A002B00D100BE7B68C7
:100B40001B6A002B04D07B681B6A7868984786E094
:100B500085E07B68DB69002B00D100BE7B68DB6928
:100B6000002B04D07B68DB697868984777E076E0F3
:100B70007B681B68283318460021FFF721FD0346D8
:100B8000002B0CD07B68DB6A002B00D100BE7B6899
:100B9000DB6A002B03D07B68DB6A786898477B6848
:100BA0001B68283318460121FFF70AFD0346002B76
:100BB0000CD07B681B6B002B00D100BE7B681B6BCD
:100BC000002B03D07B681B6B786898477B681B6899
:100BD000283318460221FFF7F3FC0346002B0CD004
:100BE0007B685B6B002B00D100BE7B685B6B002BCE
:100BF00003D07B685B6B786898477B681B682833F9
:100C000018460321FFF7DCFC0346002B0CD07B6861
:100C10009B6B002B00D100BE7B689B6B002B03D02D
:100C20007B689B6B786898477B681B6828331846FD
:100C30000421FFF7C5FC0346002B0DD07B68DB6B5E
:100C4000002B00D100BE7B68DB6B002B04D07B68DF
:100C5000DB6B7868984702E001E000BE00BF103708
:100C6000BD4680BD440100200401002080B586B04F
:100C700000AF78607B68354A934204D07B68344A81
:100C8000934200D000BE7B681B69002B00D100BEE0
:100C90007B685B69002B00D100BE7B682B4A9342C6
:100CA00003D07B682A4A93424CD17B681B69002B96
:100CB00048D07B685B69002B44D07B681B681B7D38
:100CC000FB737B685A7BFB7B1343DAB27B685A73F6
:100CD000FB7B03F02003002B24D010233B617B68B7
:100CE0005A697B689B69D31ABB60BB680F2B01D81C
:100CF000BB683B6100237B6110E07B681B687A68FE
:100D000011697A6892690A4412781A707B689B6943
:100D10005A1C7B689A617B6901337B617A693B6904
:100D20009A42EAD37B689A697B685B699A4209D1E7
:100D30007B6800225A617B681B68043318460121D6
:100D4000FFF722FC1837BD4680BD00BF44010020DC
:100D50000401002080B582B000AF0F4B5B68FB71CF
:100D60000D4B9B68DAB2FB791340FB71FB7903F002
:100D70000203BB71BB79002B01D000F0E7F8FB79CF
:100D800003F001037B717B79002B01D000F006F8A2
:100D90000837BD4680BD00BF0060014080B584B00B
:100DA00000AF634B1B78022B3FD0052B6BD0012B80
:100DB00040F0AD805F4B1B889BB2002B30D05E4B68
:100DC0001A685C4B1B889BB21046194600F006FA65
:100DD000F860584B1B889BB21A46FB689A420FD9A1
:100DE000544B1B889AB2FB689BB2D31A9AB2514BF0
:100DF0001A80514B1A68FB6813444F4A13600EE087
:100E00004C4B00221A804D4B1B68002B03D0484BE3
:100E100002221A7003E0464B03221A7004E003E03A
:100E200000BE00F0B5F97FE07EE0444B1B68002B6C
:100E300024D0434B1A68414B1B681046194600F0FA
:100E4000CDF9B8603D4B1B68BA689A420CD23B4B57
:100E50001A68BB68D31A394A1360394B1A68BB68E1
:100E60001344374A13600DE0364A364B9B6823F033
:100E7000010393602E4B03221A7003E000BE00F0C2
:100E800087F951E050E02D4B1B68002B1BD12E4BF6
:100E90001B68002B14D02C4B1B682948984702462E
:100EA000264B1A60254B1B68002B0CD1254A254B7D
:100EB0009B6823F0010393601D4B03221A7002E02C
:100EC00000BE00F065F91D4B1B68002B09D11D4ABF
:100ED0001C4B9B6823F001039360154B03221A708F
:100EE00022E0174B1A68154B1B681046194600F094
:100EF00075F97860114B1A687B68D31A0F4A136032
:100F00000F4B1A687B6813440D4A13600CE00D4ABE
:100F10000C4B9B6823F001039360002000F018F94C
:100F2000034B00221A7000BF1037BD4680BD00BFC2
:100F3000D1000020B4000020B0000020BC00002040
:100F4000B800002000600140CC00002080B584B0D3
:100F500000AF794B1B69FB81FB8923F4FF4323F02E
:100F60007F03BB81FB89FB72744B1B78052B00F25E
:100F7000D88001A252F823F0910F00000D1100005B
:100F80000D110000E90F000037100000E110000013
:100F9000BB89002B27D0FB7AF12B06D0FB7ABB72E2
:100FA000BB7A184600F04CF91DE0654B00221A8010
:100FB000644B1B68624A128892B21344FA7A1A7020
:100FC0005F4B1B889BB201339AB25D4B1A805D4B1D
:100FD0001B685B4A128892B2134400221A70574B66
:100FE00004221A70A4E0A3E0BB89002B22D0FB7A74
:100FF0007B72554B1B78DBB27A7A9A4215D1504BF3
:1010000000221A804F4B1B684D4A128892B213443B
:101010007A7A1A704A4B1B889BB201339AB2484BBA
:101020001A80464B04221A7004E07B7A184600F0BE
:1010300007F97DE07CE0BB89002B06D0FB7A3B7290
:101040003B7A184600F0FCF849E03E4B1A683C4BEE
:101050001B889BB2013B13441B78F12B16D1394BF3
:101060001B68374A128892B21344FA7A1A70354BC9
:101070001A68334B1B889BB2013B13441B781846FC
:1010800000F0DEF82D4B00221A7028E02C4B1B8854
:101090009AB22E4B1B889A4210D2FB7AFB71294BD5
:1010A0001B68274A128892B21344FA791A70244BAB
:1010B0001B889BB201339AB2214B1A80204B1B88AC
:1010C0009AB2224B1B889A4209D11D4B1B889BB2B6
:1010D000184600F03DF8194B00221A7028E027E06E
:1010E000BB89002B0BD1174B1B680133FA7A1A709E
:1010F000022000F02DF8114B00221A7018E0FB7A44
:10110000BB71BB79184600F09BF811E0BB89002B3E
:1011100006D0FB7A7B717B79184600F091F807E0E6
:1011200006E0002000F014F8044B00221A7000BF03
:101130001037BD4680BD00BF00600140D1000020D7
:10114000C6000020C0000020AC000020C400002029
:1011500080B582B000AF0346FB800A4B1B68002BB2
:101160000DD0084B1B68084A1168FA8808461146DA
:101170009847044B00221A60044B00221A7008376B
:10118000BD4680BDC8000020C0000020D000002067
:1011900080B582B000AF0E4B1B78DBB2002B13D0B2
:1011A0000C4B1B889BB21846FFF7D2FF0A4A0A4B2A
:1011B0001B6843F001031360074B1B6803F0010336
:1011C0007B607B68002BF7D10837BD4680BD00BF30
:1011D000D0000020C60000200060014080B485B02F
:1011E00000AF78603960154A144B1B6823F0040384
:1011F00013600023FB60114B5B6803F00103BB60CD
:101200000DE00E497A68FB6813441B780B61FB689C
:101210000133FB60094B5B6803F00103BB60BB68F3
:10122000002B03D0FA683B689A42EAD3FB68184661
:101230001437BD465DF8047B704700BF0060014075
:1012400080B582B000AF0346FB71064B1B68002BD4
:1012500004D0044B1B68FA79104698470837BD46FE
:1012600080BD00BFD400002090B484B000AFF8600F
:10127000B9607A60FB704B484B4B1A68F97813469B
:101280009B001344DB01034403F5E07359604749B5
:10129000454B1A6813469B0013449B000B44FA68A5
:1012A0005A604249404B1A6813469B0013449B0006
:1012B0000B44BA689A603D483B4B19683B4C3A4B2B
:1012C0001A6813469B0013449B00234408335B6851
:1012D0001A0C12040B469B000B449B00034408337A
:1012E0005A607B68B3F5803F0FD97B68A3F58033E4
:1012F0002F4A1361BB6803F580332D4AD360FB6826
:1013000003F580332A4A936019E02848264B1A686F
:10131000264C254B19680B469B000B449B0023442D
:1013200008335B68796889B2194313469B001344FC
:101330009B000344083359601D4B00221A611B486F
:10134000194B1A68194C184B19680B469B000B4433
:101350009B00234408335B6843F4E00113469B0081
:1013600013449B000344083359600E490E4B1A681E
:1013700013469B001344DB010B4403F5E073012289
:101380001A600849084B1A6813469B001344DB0196
:101390000B4403F5E47300225A601037BD4690BC3D
:1013A000704700BF00002842F000002000400140CC
:1013B000D8000020684620F007018D4691B500AFA7
:1013C000344A354B1B6803F52873012142F823107A
:1013D0003248314B1A68314C2F4B19680B469B0031
:1013E0000B449B00234408335B6823F4E00113465D
:1013F0009B0013449B00034408335960264B1B6831
:101400000133254A1360244B1B68042B02D1224B65
:1014100000221A60224B1B69002B17D0214B1B683E
:10142000042B03D11F4B00221A6004E01D4B1B68E4
:1014300001331C4A13601A4B9868194BD968184B32
:101440001A69174B1B7DFFF70FFF1EE01349124B64
:101450001A6813469B0013449B000B4408335B68D7
:1014600003F4E003002B10D10B4B00221A600D4B4C
:1014700000221A600A4B01221A70094B5B68002B8C
:1014800003D0074B5B6801209847BD46BDE89140FB
:101490008546704700002842F400002000400140CB
:1014A000D8000020F0000020684620F007018D469B
:1014B00081B583B000AF384B1B683B603B6803F4D9
:1014C00070633B603B68002B2FD03449344B1A6863
:1014D00013469B001344DB010B4403F502731B68A6
:1014E000002B0AD02F4B02221A702E4B5B68002B68
:1014F00003D02C4B5B68022098472849284B1A6878
:1015000013469B001344DB010B4403F502735B6835
:10151000002B0AD0234B03221A70224B5B68002B4E
:1015200003D0204B5B68032098471B4B1B683B6034
:101530003B6803F470433B603B68002B0AD0194BB7
:1015400004221A70174B5B68002B03D0154B5B68A5
:101550000420984700237B6014E010497A68134602
:101560009B001344DB010B4403F5E47301221A6072
:101570000A4A7B6803F52873012142F823107B682F
:1015800001337B607B68032BE7D90C37BD46BDE890
:1015900081408546704700BF00400140000028425E
:1015A000F4000020D800002080B483B000AF786041
:1015B000FEE700BF80B485B000AFF860B9607A6024
:1015C0003B60002318461437BD465DF8047B704726
:1015D00080B586B000AF78601F4B1B68002B02D12E
:1015E0001D4B1E4A1A601C4B1B687B61EFF308837E
:1015F0003B61194B1A683B699A420FD2164B1A6825
:101600007B681A443B699A421AD900200121144A86
:101610001923FFF7CFFF0120FFF7C6FF114BFB6037
:101620000D4B1A687B681A44FB689A4208D900205F
:1016300001210D4A1923FFF7BDFF0120FFF7B4FF79
:10164000054B1A687B681344034A13607B6918468C
:101650001837BD4680BD00BFF8000020B001002053
:101660008823000000F00020A423000080B500AF14
:1016700000F0F6F8044A044B5B6943F400735361CD
:10168000FEF7D8FE80BD00BF00ED00E080B588B059
:1016900000AF2F4BD3F8983003F08063FB61FB69F8
:1016A000002B4BD12A4BD3F8983003F48053BB6105
:1016B000BB69002B15D1274B274A1A60274B264AB6
:1016C0001A60274B244A1A60264B274A1A60274B78
:1016D000214A1A60264B204A1A60264B1E4A1A607D
:1016E0002BE0254A3B1D1068516803C3184BD3F803
:1016F0009C309B0903F007037B613A1D7B6913440F
:101700001B78FB74FB7C012B0AD0022B0DD0002B25
:101710000FD100F035F8F860F86800F04FF80CE0F1
:101720004FF4004000F04AF807E0144800F046F893
:1017300003E0124800F042F800BF05E000F020F896
:10174000F860F86800F03AF82037BD4680BD00BF69
:10175000008003400400002000E1F505080000209F
:101760000C0000201000002040787D0114000020B3
:10177000180000201C000020B823000040420F0089
:1017800080B483B000AF0A4BD3F8503103F00403A8
:101790003B603B68002B02D1064B7B6001E0064BAF
:1017A0007B607B6818460C37BD465DF8047B70474C
:1017B0000080034040787D0180F0FA0280B483B05D
:1017C00000AF78600C4A7B6813600C4A7B6813603A
:1017D0000B4A7B6813600B4B0B4A1A600B4A7B6801
:1017E00013600B4A7B6813600A4A7B6813600C37EE
:1017F000BD465DF8047B704704000020080000200F
:101800000C0000201000002040787D011400002012
:10181000180000201C00002080B483B000AF0E4BE5
:10182000D3F84C313B603B684FF60202934203D041
:101830000A4A934203D005E001237B6005E00223BE
:101840007B6002E000237B6000BF7B6818460C379A
:10185000BD465DF8047B70470080034002F801003C
:1018600080B582B000AFFFF7D7FF78607B68012BAF
:1018700000D002E000F004F800BF0837BD4680BD8C
:1018800080B400AF094A094BD3F8983043F4807311
:10189000C2F89830054A054BD3F8983023F080639E
:1018A000C2F89830BD465DF8047B70470080034065
:1018B000B0B594B002AF002387F84730254B1846E7
:1018C0004FF416510322FEF797FE224B1846224989
:1018D000FEF7CAFE214B07F118041D460FCD0FC4B9
:1018E00095E8030084E803001D4B3C461D460FCDE0
:1018F0000FC495E8030084E8030002233B6403233C
:10190000FB630323BB6302237B6307F118023C469E
:10191000BB6B00937B6B01931046396CFA6B2346CB
:1019200000F022F838633B6B002B01D101230DE05E
:10193000084B18460B49FEF797FE386B396C7A6BEB
:1019400000F098F8386B00F001F90023184648378A
:10195000BD46B0BD44010020C0230000F4230000B8
:101960000C240000E023000090B589B000AFF860BF
:10197000B9607A603B607A683B6B9A4206D03A4B1A
:1019800018463A49FEF770FE002368E0BB687A6BA0
:1019900002FB03F39B00184600F0D0F803463B61BE
:1019A0003B69002B06D1304B18463149FEF75CFEEF
:1019B000002354E00023FB614CE00023BB6142E0C4
:1019C000FB697A6B02FB03F2BB6913449B003A6923
:1019D000134400221A6000237B612DE0FB697A6BBF
:1019E00002FB03F2BB6913449B003A691344FA6992
:1019F000796B01FB02F1BA690A44920039690A4421
:101A00001168FA69786800FB02F07A690244920072
:101A1000F8680244126878697C6B04FB00F4B869CA
:101A2000204480003C682044006800FB02F20A4425
:101A30001A607B6901337B617A697B689A42CDDBEE
:101A4000BB690133BB61BA697B6B9A42B8DBFB6946
:101A50000133FB61FA69BB689A42AEDB3B69184609
:101A60002437BD4690BD00BF44010020242400005F
:101A70006C24000080B586B000AFF860B9607A6071
:101A800000237B6125E000233B6116E07B697A68D7
:101A900002FB03F23B6913449B00FA6813441B6882
:101AA0000F4810491A4600F00FF90F4B18460C4921
:101AB000FEF7DAFD3B6901333B613A697B689A4284
:101AC000E4DB094B18460949FEF7CEFD7B6901337B
:101AD0007B617A69BB689A42D5DB1837BD4680BD09
:101AE0008401002090240000440100209424000080
:101AF0000E4B70B51E460E4C0025E41AA410A542EC
:101B000004D056F8253098470135F8E700F0DEFCA0
:101B1000084B094C1E46E41AA4100025A54204D027
:101B200056F8253098470135F8E770BDE4240000E9
:101B3000E4240000E4240000E8240000024B0146F5
:101B4000186800F05BB800BF80000020024B01461F
:101B5000186800F00FB800BF8000002010B5431EC9
:101B60000A44914204D011F8014B03F8014FF8E701
:101B700010BD000030B500293CD051F8042C0B1FDB
:101B80001D49002AB8BF9B180A680C4612B95A6052
:101B90000B6030BD93420DD219685818904201BFB6
:101BA0005A5852181A60426823605A6030BD9942F0
:101BB00003D80A4651680029F9D1146815199D42C5
:101BC0000AD11B682344D0188842136012D10868D8
:101BD000034413604B680CE002D90C23036030BD52
:101BE0001C681819884201BF086849680019186004
:101BF0005960536030BD00BF0001002070B5CC1C9F
:101C000024F0030408340C2C38BF0C24002C0646A6
:101C100003DA0C233360002070BD8C42F9D3204AD4
:101C2000136810461946A1B10A68121B0ED40B2A7C
:101C300003D90A608B188C501FE08B420BBF5A6887
:101C40004A6802605A6018BF0B4616E00B464968A6
:101C5000E9E7144D2B681BB9304600F025F82860E1
:101C60003046214600F020F8421C0346D1D0C51C66
:101C700025F0030585420AD11C6003F10B001A1DF3
:101C800020F00700821A0AD05142995070BD3046A8
:101C9000E91A00F009F80130BBD02B46ECE770BD23
:101CA00000010020FC00002038B5064C002305464A
:101CB00008462360FFF78CFC431C02D1236803B164
:101CC0002B6038BDA40100200EB400B54FF40271A2
:101CD0009CB0ADF814106FF00041049107914FF6DD
:101CE000FF711DABADF81610084953F8042B029094
:101CF0000690086802A9019300F064F8029B002294
:101D00001A701CB05DF804EB03B07047800000202F
:101D10002DE9F0478E688246B3420C4690469946BC
:101D200040D38A8912F4906F3AD02568096902235A
:101D30006F1A656905EB450595FBF3F57B1C4B4474
:101D40009D4238BF1D4653050FD52946FFF756FF64
:101D5000064698B121693A46FFF700FFA38923F4AC
:101D6000906343F08003A38113E02A4600F0DBFA7E
:101D7000064670B950462169FFF7FCFE0C23CAF8ED
:101D80000030A3894FF0FF3043F04003A381BDE84A
:101D9000F08726613E4426604E466561ED1BA560D6
:101DA000B14500D24E4632462068414600F0A0FAC6
:101DB000A36800209B1BA36023681E442660BDE827
:101DC000F08700002DE9F0439DB003938B89064610
:101DD0001C060D4690460CD50B6953B94021FFF700
:101DE0000DFF2860286110B90C233360CCE040233C
:101DF0006B610023099320238DF8293030238DF85F
:101E00002A3043461C4613F8012B1AB9B4EB0809D3
:101E10000FD002E0252AF5D1F8E7304629464246A0
:101E20004B46FFF775FF013000F0A980099B4B443A
:101E300009932378002B00F0A28000234FF0FF329B
:101E400004930793059206938DF853301A9304F187
:101E500001084446DFF8489121784846052200F001
:101E600039FA08F10108049B30B1C9EB00000122E6
:101E7000824013430493ECE7D80644BF20228DF838
:101E80005320190744BF2B228DF8532022782A2A89
:101E900002D0079923460EE0039A0134111D1268FF
:101EA0000391002ABBBF524243F0020307920792FC
:101EB000B8BF04930AE01C4622780133303A092A5D
:101EC00003D80A2000FB0121F5E7079123782E2B88
:101ED0001AD163782A2B0AD1039B02341A1D1B687E
:101EE0000392002BB8BF4FF0FF3305930CE0611C49
:101EF00000220C4623780131303B092B03D80A20FD
:101F000000FB0232F5E70592DFF898802178404621
:101F1000032200F0DFF938B1049AC8EB0000402337
:101F2000834013430493013421781A48062204F1B4
:101F300001088DF8281000F0CDF988B1164B33B99F
:101F4000039B073323F007030833039313E003AB2A
:101F50000093304604A92A46104BAFF3008007E0F7
:101F600003AB0093304604A92A460C4B00F092F8CC
:101F7000421C074603D0099B3B44099341E7AB89C8
:101F80005B0601D4099801E04FF0FF301DB0BDE8B9
:101F9000F08300BFA324000000000000111D00001A
:101FA000992400009F2400002DE9F84391461F4624
:101FB0008A680B6906469342B8BF1346C9F80030D9
:101FC00091F843200C46DDF8208012B10133C9F8A6
:101FD00000302368990642BFD9F800300233C9F8AF
:101FE0000030256815F006051CD094F843302268AF
:101FF000003318BF012392061FD5E118302081F865
:1020000043005A1C94F845102244023382F84310CE
:1020100013E03046394604F119020123C04701306C
:1020200007D00135E368D9F800209B1A9D42F0DB08
:10203000DBE74FF0FF30BDE8F8833046394604F166
:102040004302C0470130F4D02268D9F80050E36859
:1020500002F00602042A08BF5D1B2269A3680CBFB8
:1020600025EAE57500259342C4BF9B1AED184FF091
:102070000009A9450ADA3046394604F11A0201235B
:10208000C0470130D5D009F10109F2E70020BDE8D1
:10209000F88300002DE9FF410C461746227E984642
:1020A0006E2A06460A9B01F1430100F0B08012D867
:1020B000632A23D00AD8002A00F0BD80582A40F0B5
:1020C000CC8084F84520DFF804E257E0642A1ED073
:1020D000692A1CD0C1E0732A00F0B18009D86F2AA8
:1020E0002ED0702A40F0B980226842F0200222608F
:1020F0003FE0752A24D0782A3BD0AEE01A6804F17C
:102100004205111D1960136884F84230A9E0206867
:102110001A6810F0800F02D0101D186008E010F04F
:10212000400F02F10400186002D0B2F9003000E064
:102130001368002B3EDA2D225B4284F8432039E0FD
:1021400020681A6810F0800F02D0101D186007E098
:1021500010F0400F02F10400186001D0138800E075
:102160001368227EDFF864E16F2A0CBF08220A227E
:102170001CE07822DFF858E184F8452022681868CE
:1021800012F0800F00F104051D6003D1550601D542
:10219000038800E00368D00744BF42F020022260B9
:1021A0001BB9226822F0200222601022002084F84D
:1021B000430002E0DFF814E10A226568002DA8BFA1
:1021C0002068A560A4BF20F00400206003B965B1B9
:1021D0000D46B3FBF2F002FB10331EF8033005F896
:1021E000013D03460028F4D100E00D46082A0BD13A
:1021F0002368DA0708D5236962689A42DEBF302374
:1022000005F8013C05F1FF35491B21612EE02568E9
:102210001A6815F0800F606903D0151D1D601368E2
:1022200008E015F0400F02F104051D60136801D0AD
:10223000188000E01860002323610D4616E01A683C
:10224000111D1960156800212846626800F042F8E7
:1022500008B1401B6060636804E004F1420584F843
:10226000422001232361002384F84330CDF800800D
:102270003046214603AA3B46FFF796FE013002D1C5
:102280004FF0FF301FE0304639462A462369C047E9
:102290000130F5D023689B0705D4E068039B984282
:1022A000B8BF18460FE00025E368039A9B1A9D42C9
:1022B000F3DA3046394604F119020123C0470130F0
:1022C000DED00135F0E704B0BDE8F081AA240000BB
:1022D000BB24000010B5C9B202449042034605D0A9
:1022E0001C7801308C42F8D1184610BD002010BD7A
:1022F000814210B501EB020301D3421E0BE098426C
:10230000FBD28118D21AD34204D013F8014D01F840
:10231000014DF8E710BD994204D011F8014B02F8C5
:10232000014FF8E710BDF8B5074615460E4621B92E
:102330001146BDE8F840FFF761BC1AB9FFF71AFC77
:102340002846F8BD00F015F8A8420ED238462946B6
:10235000FFF754FC044650B131462A46FFF7FEFB16
:1023600038463146FFF706FC01E03046F8BD20460E
:10237000F8BD51F8040C0028BEBF091851F8043C00
:10238000C0180438704700004865617020616E64B1
:1023900020737461636B20636F6C6C6973696F6E1B
:1023A0000A0000004F7574206F6620686561702018
:1023B0006D656D6F72790A0000010001020203036E
:1023C0000A0D2050726573696F6E61206375616CD0
:1023D0007175696572207465636C61200A0D000077
:1023E0004D617472697A20726573756C7461646F83
:1023F0003A0A0D0001000000020000000300000086
:1024000004000000050000000600000007000000B6
:1024100008000000090000000A0000000B00000096
:102420000C0000004E6F2073652070756564656E4A
:10243000206D756C7469706C69636172206C617376
:10244000206D617472696365732E204C6173206422
:10245000696D656E73696F6E6573206E6F20636F53
:10246000696E636964656E2E0A0D00002045727204
:102470006F7220646520617369676E616369F36ED2
:10248000206465206D656D6F726961200A0D000022
:10249000256420000A0D004300232D302B20006806
:1024A0006C4C006566674546470030313233343541
:1024B00036373839414243444546003031323334AF
:1024C000353637383961626364656600F8B500BF38
:1024D000F8BC08BC9E467047F8B500BFF8BC08BC05
:1024E0009E467047E5040000C104000000000000A3
:1024F0000000000000E1F50500E1F50500E1F5054B
:1025000040787D0100E1F50500E1F50500E1F50504
:1025100000000000000000000000000000000000BB
:1025200000000000000000000000000000000000AB
:1025300097240000000000000000000000000000E0
:10254000000000000000000000000000000000008B
:10255000000000000000000000000000000000007B
:10256000000000000000000000000000000000006B
:10257000200000200000000000000000000000001B
:040000030000019167
:00000001FF
